S01000006263725F323031352E73726563B6
S11300000C942A000C9447000C9447000C9447006D
S11300100C9447000C9447000C9447000C94470040
S11300200C9447000C94BA040C9447000C9493036A
S11300300C94BE030C9447000C9447000C944700A6
S11300400C9447000C9447000C9447000C94470010
S11300500C94470011241FBECFE5D4E0DEBFCDBF12
S113006010E0A0E6B0E0E0EBFEE002C005900D92E7
S1130070AA36B107D9F722E0AAE6B0E001C01D9282
S1130080A638B207E1F70E941E040C9456070C949C
S1130090000086E290E00E94E20362E070E080E407
S11300A090E00E940C0690937D0280937C0261E0B4
S11300B070E080E490E00E940C06909381028093AB
S11300C0800210927F0210927E02089580916C004B
S11300D0089580916C00882319F087E792E00895D1
S11300E080E090E00895CF93DF9300D000D01F927A
S11300F0CDB7DEB749835A836B837C838D83652FA9
S113010070E09B01240F311DC9011616170664F413
S1130110EB81FC8120E030E04191840F911D2F5F41
S11301203F4F26173707C4F380950F900F900F9019
S11301300F900F90DF91CF910895CF92DF92EF92BD
S1130140FF920F931F93CF93DF9300D000D01F92A1
S1130150CDB7DEB74983E52E5A836B837C838D83C9
S113016061E070E080E490E00E940C068C018EE374
S1130170F801808389818183E282F12C1E141F049B
S113018064F4AB81BC81339620E030E08D9181939F
S11301902F5F3F4F2E153F05CCF36701F3E0CF0EE1
S11301A0D11CC00ED11E49815A816B817C818D8105
S11301B00E947300F6018083F801EE0DFF1D8CE3AD
S11301C08483C70105967C01D12CF801ED0DF11D46
S11301D080810E94F603D3942D2D30E02E153F0527
S11301E0A4F3C8010E94C0060F900F900F900F90C7
S11301F00F90DF91CF911F910F91FF90EF90DF90BF
S1130200CF900895EF92FF920F931F93CF93DF93B4
S113021000D000D01F92CDB7DEB78C0180916A0068
S113022090916B000817190769F110936B00009304
S11302306A0061E070E082E090E00E940C067C01BC
S113024098013695279536952795ABE7B4E10E943A
S1130250FD0596958795F701808344E6489F9001B4
S1130260499F300D1124021B130B01836E2DFC8258
S1130270EB8240E052E07C818D810E949D00C701A9
S11302800E94C0060F900F900F900F900F90DF9177
S1130290CF911F910F91FF90EF900895EF92FF92ED
S11302A00F931F93CF93DF9300D000D01F92CDB74D
S11302B0DEB7E82EF92E61E070E082E090E00E9463
S11302C00C068C014E2D5F2D403187E2580710F04B
S11302D04FE057E29A013695279536952795ABE777
S11302E0B4E10E94FD0596958795F801808364E644
S11302F0689F9001699F300D1124421B530B418369
S1130300602F1C830B8341E052E07C818D810E942D
S11303109D00C8010E94C0060F900F900F900F908F
S11303200F90DF91CF911F910F91FF90EF9008955F
S11303300F931F93CF93DF9300D000D01F92CDB7BC
S1130340DEB761E070E081E090E00E940C068C0171
S1130350FC011082682F9C838B8342E051E07C81F6
S11303608D810E949D00C8010E94C0060F900F90CD
S11303700F900F900F90DF91CF911F910F910895DF
S113038083E083BF89B7816089BF089582EA8FBD06
S11303908AE18EBD84EE97E597BD86BD80ED97E03A
S11303A099BD88BD08958EE685BD84E683BD089514
S11303B0F894BF9AC79AB898C09AB998C19ABA984B
S11303C0C29AA398AB9AA298AA9AA198A99AA0981B
S11303D0A89AA698AE9ABC9ABE9AC69A8C9ABB9AC8
S11303E0BD9AC59A8F9AA49AAC9AA798A7981ABA54
S11303F00E94C0010E94C6010E94D3010E944900CC
S1130400089521E030E0A90102C0440F551F8A95E8
S1130410E2F7CA01242F36B33423341701F1EFE293
S1130420F5E73197F1F700C0000096B389238417EC
S1130430C1F08FE295E70197F1F700C0000086B3A1
S113044082238213FCCF8EE190E00E944E01EFE202
S1130450F5E73197F1F700C0000081E0089580E0EE
S1130460089580E008950F931F938B019923DCF086
S1130470C49A24EE37E5829FB001839F700D929F4A
S1130480700D1124882777FD8095982F0E940E0502
S11304902AE037ED43E25CE30E9472050E94E00427
S11304A079BD68BD1AC0C4982CE138EA829FB001B6
S11304B0839F700D929F700D1124882777FD80957E
S11304C0982F0E940E052AE037ED43E25CE30E9478
S11304D072050E94E00479BD68BD1123BCF0C39A83
S11304E084E6809FB001819F700D1124882777FDD9
S11304F08095982F0E940E052AE037ED43E25CE3D5
S11305000E9472050E94E00463BD16C0C3982CE9E2
S11305102003B001219F700D1124882777FD809559
S1130520982F0E940E052AE037ED43E25CE30E9417
S113053072050E94E00463BD1F910F91089589B371
S11305408095881F8827881F08950F931F93CF9342
S1130550DF9385E090E00E942806EC010E9466008B
S11305608823C1F00E946900EC010097F9F08881AA
S1130570823099F4EA81FB818081813031F40181F8
S113058010E01195019511090DC0811109C0018177
S113059010E008C00FEF1FEF05C00FEF1FEF02C000
S11305A00FEF1FEFCE010E94C00602C00FEF1FEF36
S11305B0C801DF91CF911F910F91089583B386FBFA
S11305C0882780F991E089270895809168009091A7
S11305D06900892B31F0809168009091690001963F
S11305E039F48FEF9FEF909369008093680008952A
S11305F080916800909169000197909369008093BD
S1130600680008958091660090916700892B31F00D
S11306108091660090916700019639F48FEF9FEF07
S1130620909367008093660008958091660090918E
S11306306700019790936700809366000895823065
S113064091F018F4813031F029C08330F1F0843016
S113065099F024C085E090E0909367008093660051
S11306608FEF9FEF08958AE090E090936700809366
S113067066008FEF9FEF089585E090E09093670008
S11306808093660084E690E0089585E090E090937E
S113069067008093660082E390E008958FEF9FEFF8
S11306A00895CF93C0916F00CC2361F1C13041F51F
S11306B00E94E5028091680090916900892B29F4D9
S11306C0C79A10926E00C0E01BC00E940203809182
S11306D0660090916700892B99F480916E0090E0F8
S11306E0009731F0019741F410926E00C79A04C04C
S11306F081E080936E00C79880916D000E941F0373
S1130700C0936F00CF910895CF93C82F0E941F0309
S1130710909369008093680081E080936F00C09398
S11307206D00CF9108951F920F920FB60F9211246E
S11307302F938F939F93EF93FF938BB12CB1887179
S1130740E0917200EF5F90917100E91739F0E09346
S11307507200F0E0EB58FF4F208301C082E09091DB
S11307607000892B80937000FF91EF919F918F917E
S11307702F910F900FBE0F901F9018951F920F92FC
S11307800FB60F9211248F939F93EF93FF93909141
S1130790740080917300981759F0E0917300EF5F33
S11307A0E0937300F0E0EB58FE4F80818CB901C0F8
S11307B05598FF91EF919F918F910F900FBE0F90DD
S11307C01F9018951092740010927300109272008A
S11307D01092710099231CF422E02BB99F7790BDED
S11307E089B988E98AB986E880BD089520917400A2
S11307F02F5F909173002917E1F3E22FF0E0EB589B
S1130800FE4F808320937400559A08958091750259
S113081090917602019690937602809375020A97DE
S113082020F01092760210927502809175029091D8
S11308307602099711F40E94510308950E94D80189
S11308402FEF3EE984E2215030408040E1F700C0C0
S11308500000789482ED94E00E94020184E690E026
S11308600E944E0182E00E948403C0E000E010E098
S1130870812C912CCC24C3940F2EF8EEEF2EF3E0B0
S1130880FF2EF02D0F2EFAE0AF2EF02DB12C0E948A
S1130890DE028823E1F3C13021F0D0F1C23099F0B7
S11308A0F6CF82E00E940102C82FCC2580E00E948E
S11308B00102882361F30E949F02882341F383E0AD
S11308C00E948403E4CF82E00E940102882339F06D
S11308D060E070E080E090E00E943302C0E080E0DD
S11308E00E940102882329F09FEF891A990A0F5F59
S11308F01F4F8C2D0E940102882329F021E0821AC7
S1130900910801501109B801C4010E943302BFCFFC
S113091080E00E940102882329F081E090E00E9497
S11309200201CC2D8C2D0E940102882349F082E023
S113093090E00E940201C2E00A2D1B2D8A2C9B2C00
S113094082E00E94010281110E9498010E94A50286
S11309508F3F3FEF930709F49ACF181619061CF43A
S11309600E94020194CF9701281B390BC9010E94F0
S113097002018DCF1F920F920FB60F9211242F9365
S11309803F934F935F936F937F938F939F93AF9313
S1130990BF93EF93FF9384E482BF0E940604FF9108
S11309A0EF91BF91AF919F918F917F916F915F91E3
S11309B04F913F912F910F900FBE0F901F9018955C
S11309C070D088F09F5790F0B92F9927B751A0F0B5
S11309D0D1F0660F771F881F991F1AF0BA95C9F7CF
S11309E012C0B13081F077D0B1E0089574C0672FA0
S11309F0782F8827B85F39F0B93FCCF3869577957F
S1130A006795B395D9F73EF4909580957095619567
S1130A107F4F8F4F9F4F0895E89409C097FB3EF492
S1130A2090958095709561957F4F8F4F9F4F992337
S1130A30A9F0F92F96E9BB279395F69587957795B5
S1130A406795B795F111F8CFFAF4BB0F11F460FF75
S1130A501BC06F5F7F4F8F4F9F4F16C0882311F0CD
S1130A6096E911C0772321F09EE8872F762F05C0E1
S1130A70662371F096E8862F70E060E02AF09A957C
S1130A80660F771F881FDAF7880F9695879597F971
S1130A90089557FD9058440F551F59F05F3F71F06A
S1130AA04795880F97FB991F61F09F3F79F08795D1
S1130AB00895121613061406551FF2CF4695F1DF5A
S1130AC008C0161617061806991FF1CF86957105EA
S1130AD0610508940895E894BB2766277727CB011E
S1130AE097F908950BD078C069D028F06ED018F02B
S1130AF0952309F05AC05FC01124EECFCADFA0F3DA
S1130B00959FD1F3950F50E0551F629FF001729F9E
S1130B10BB27F00DB11D639FAA27F00DB11DAA1FBD
S1130B20649F6627B00DA11D661F829F2227B00D0A
S1130B30A11D621F739FB00DA11D621F839FA00D95
S1130B40611D221F749F3327A00D611D231F849FE5
S1130B50600D211D822F762F6A2F11249F5750403C
S1130B608AF0E1F088234AF0EE0FFF1FBB1F661FD7
S1130B70771F881F91505040A9F79E3F510570F090
S1130B8014C0AACF5F3FECF3983EDCF386957795CB
S1130B906795B795F795E7959F5FC1F7FE2B880F8B
S1130BA0911D9695879597F9089597F99F6780E821
S1130BB070E060E008959FEF80EC089500240A94AB
S1130BC01616170618060906089500240A94121624
S1130BD01306140605060895092E0394000C11F457
S1130BE0882352F0BB0F40F4BF2B11F460FF04C004
S1130BF06F5F7F4F8F4F9F4F0895A29FB001B39FA8
S1130C00C001A39F700D811D1124911DB29F700D11
S1130C10811D1124911D08950F931F93CF93DF938A
S1130C20869F8001879F100D969F100D1124C80187
S1130C300E942806EC01009729F0A80160E070E00A
S1130C400E944F07CE01DF91CF911F910F9108951C
S1130C50CF93DF938230910510F482E090E0E0912D
S1130C608402F091850220E030E0A0E0B0E030970B
S1130C7039F14081518148175907B8F0481759078D
S1130C8071F482819381109729F013969C938E932B
S1130C9012972CC0909385028093840227C021155B
S1130CA0310531F04217530718F0A901DB0101C0E7
S1130CB0EF019A01BD01DF010280F381E02DD7CF5E
S1130CC021153105F9F0281B390B2430310580F446
S1130CD08A819B816115710521F0FB0193838283D5
S1130CE004C09093850280938402FE01329644C02E
S1130CF0FE01E20FF31F819391932250310939834E
S1130D0028833AC02091820230918302232B41F43C
S1130D102091620030916300309383022093820219
S1130D2020916000309161002115310541F42DB707
S1130D303EB74091640050916500241B350BE0914F
S1130D408202F0918302E217F307A0F42E1B3F0BFB
S1130D502817390778F0AC014E5F5F4F2417350729
S1130D6048F04E0F5F1F5093830240938202819399
S1130D70919302C0E0E0F0E0CF01DF91CF910895BC
S1130D80CF93DF93009709F487C0FC013297138255
S1130D901282C0918402D0918502209781F420812F
S1130DA03181280F391F809182029091830282172A
S1130DB0930779F5F0938302E09382026DC0DE011C
S1130DC020E030E0AE17BF0750F412964D915C91CD
S1130DD013979D014115510509F1DA01F3CFB3834E
S1130DE0A28340815181840F951F8A179B0771F458
S1130DF08D919C911197840F951F02969183808306
S1130E0012968D919C9113979383828321153105BA
S1130E1029F4F0938502E09384023EC0D90113962D
S1130E20FC93EE9312974D915D91A40FB51FEA17B1
S1130E30FB0779F480819181840F951F0296D90173
S1130E4011969C938E938281938113969C938E9397
S1130E501297E0E0F0E08A819B81009719F0FE018F
S1130E60EC01F9CFCE01029628813981820F931FBC
S1130E7020918202309183022817390769F4309750
S1130E8029F4109285021092840202C01382128205
S1130E90D0938302C0938202DF91CF910895DC0145
S1130EA001C06D9341505040E0F70895F894FFCF8E
S10D0EB0000086022000FFFFFFFF90
S9030000FC
