S01000006263725F323031352E73726563B6
S11300000C947B000C9498000C9498000C94980029
S11300100C9498000C9498000C9498000C949800FC
S11300200C9498000C9480040C9498000C949603FF
S11300300C94C2030C9498000C9498000C949800AF
S11300400C9498000C9498000C9498000C949800CC
S11300500C949800380441044104410441044104CF
S113006041044104410441043B044104410441046A
S11300704104410441044104410441043B0441045A
S11300804104410441044104410441044104410444
S11300903B0441044104410441044104410441043A
S11300A0410441043B04410441044104410441042A
S11300B041044104410441043B044104410441041A
S11300C04104410441044104410441043B0441040A
S11300D041044104410441044104410441044104F4
S11300E03B044104410441044104410441044104EA
S11300F0410441043B0411241FBECFE5D4E0DEBF1C
S1130100CDBF10E0A0E6B0E0EEE0FCE002C0059058
S11301100D92AA36B107D9F721E0AAE6B0E001C0F2
S11301201D92A63CB207E1F70E9442040C94050616
S11301300C94000086E290E00E94E60362E070E026
S113014080E490E00E94BB049093BD018093BC01C5
S113015061E070E080E490E00E94BB049093C101F0
S11301608093C0011092BF011092BE010895CF93F5
S1130170DF930E94FA0390FD67C08E33910539F432
S11301801092BF011092BE0110926C005DC08C33BE
S1130190910509F042C0E091BC01F091BD0180815C
S11301A08093B7018281E8EBF1E08083808188232A
S11301B0C9F020E0EF01822F90E0E091C001F091BE
S11301C0C101E80FF91F0296880F991FA091BC0185
S11301D0B091BD01A80FB91F8C9180832F5F8881D6
S11301E0281748F38091C0019091C1019093BA01FE
S11301F08093B901E091B801F0E03296EE0FFF1F51
S11302008091BC019091BD01E80FF91F808180931A
S1130210BB0181E080936C0017C010926C00E091E8
S1130220BC01F091BD012091BE013091BF01A90133
S11302304F5F5F4F5093BF014093BE01220F331FA6
S1130240E20FF31F9183808380E0DF91CF910895C3
S113025080916C00882321F08091BB0181E0089596
S113026080E008958091B70108958093B7010895BF
S1130270CF93DF932091B8012223B1F0E82FF92F17
S113028080E090E049EB51E068EB71E0EA01A8817D
S1130290B981A80FB91F2C9121930196DB012C91F0
S11302A030E08217930794F3DF91CF910895CF93B1
S11302B0DF9300D000D01F92CDB7DEB749835A83B5
S11302C06B837C838D83652F70E09B01240F311D2C
S11302D0C9011616170664F4EB81FC8120E030E0B6
S11302E04191840F911D2F5F3F4F26173707C4F3A9
S11302F080950F900F900F900F900F90DF91CF91FA
S11303000895CF92DF92EF92FF920F931F93CF93B2
S1130310DF9300D000D01F92CDB7DEB74983E52E1E
S11303205A836B837C838D8361E070E080E490E08A
S11303300E94BB048C018EE3F80180838981818350
S1130340E282F12C1E141F0464F4AB81BC81339649
S113035020E030E08D9181932F5F3F4F2E153F05B4
S1130360CCF36701F3E0CF0ED11CC00ED11E49813E
S11303705A816B817C818D810E945701F6018083B3
S1130380F801EE0DFF1D8CE38483C70105967C0103
S1130390D12CF801ED0DF11D80810E941304D3943A
S11303A02D2D30E02E153F05A4F3C8010E946F05E2
S11303B00F900F900F900F900F90DF91CF911F919E
S11303C00F91FF90EF90DF90CF900895EF92FF92FE
S11303D00F931F93CF93DF9300D000D01F92CDB71C
S11303E0DEB78C0180916A0090916B0008171907A1
S11303F069F110936B0000936A0061E070E080E49F
S113040090E00E94BB047C019801369527953695AF
S11304102795ABE7B4E10E94AC0496958795F70164
S1130420808344E6489F9001499F300D1124021BAC
S1130430130B01836E2DFC82EB8240E052E07C8141
S11304408D810E948101C7010E946F050F900F905A
S11304500F900F900F90DF91CF911F910F91FF900C
S1130460EF900895EF92FF920F931F93CF93DF9332
S113047000D000D01F92CDB7DEB7E82EF92E61E090
S113048070E080E490E00E94BB048C014E2D5F2D4F
S1130490403187E2580710F04FE057E29A01369551
S11304A0279536952795ABE7B4E10E94AC04969561
S11304B08795F801808364E6689F9001699F300DF9
S11304C01124421B530B4183602F1C830B8341E097
S11304D052E07C818D810E948101C8010E946F05D8
S11304E00F900F900F900F900F90DF91CF911F916D
S11304F00F91FF90EF9008950F931F93CF93DF9385
S113050000D000D01F92CDB7DEB761E070E080E488
S113051090E00E94BB048C01FC011082682F9C8334
S11305208B8342E051E07C818D810E948101C8016E
S11305300E946F0580E090E00F900F900F900F9055
S11305400F90DF91CF911F910F91089583E083BFA6
S113055089B7816089BF089582EA8FBD8AE18EBD23
S113056084EE97E597BD86BD80ED97E099BD88BD83
S113057008958EE685BD84E683BD0895F894BF9AF8
S1130580C79AB898C09AB998C19ABA98C29AA398C7
S1130590AB9AA298AA9AA198A99AA098A89ABC9A48
S11305A0BE9AC69A8C9ABB9ABD9AC59A8F9AA49AF7
S11305B0AC9AA798A7980E94A6020E94AC020E9437
S11305C0B9020E949A007894089521E030E0A901CC
S11305D002C0440F551F8A95E2F7CA01242F36B38F
S11305E034233417D1F0EFE2F5E73197F1F700C087
S11305F0000096B38923841791F08FE295E7019761
S1130600F1F700C0000086B382238213FCCF8EE191
S113061090E00E94320281E0089580E0089580E035
S113062008958091680090916900892B39F48FEFC7
S11306309FEF90936900809368000895809168000B
S113064090916900019790936900809368000895E0
S11306508091660090916700892B39F48FEF9FEFAA
S1130660909367008093660008958091660090914E
S11306706700019790936700809366000895823025
S113068069F08330A1F08130D9F485E090E0909353
S11306906700809366008FEF9FEF08958AE090E0F3
S11306A090936700809366008FEF9FEF089585E035
S11306B090E090936700809366008AE090E008954C
S11306C08FEF9FEF0895CF93C0916F00CC2361F11A
S11306D0C13041F50E941103809168009091690036
S11306E0892B29F4C79A10926E00C0E01BC00E94A7
S11306F028038091660090916700892B99F480917A
S11307006E0090E0009731F0019741F410926E0072
S1130710C79A04C081E080936E00C79880916D00F1
S11307200E943F03C0936F00CF9108951F920F92D0
S11307300FB60F9211242F938F939F93EF93FF93F0
S11307408BB12CB18871E0917200EF5FEF739091DF
S11307507100E91739F0E0937200F0E0EB58FF4FB5
S1130760208301C082E090917000892B80937000F7
S1130770FF91EF919F918F912F910F900FBE0F904A
S11307801F9018951F920F920FB60F9211248F93FA
S11307909F93EF93FF939091740080917300981747
S11307A059F0E0917300EF5FE0937300F0E0EB54D5
S11307B0FF4F80818CB901C05598FF91EF919F91B3
S11307C08F910F900FBE0F901F9018951092740088
S11307D010927300109272001092710099231CF40D
S11307E022E02BB99F7790BD89B988E98AB986E858
S11307F080BD08959091720080917100981781F0E6
S1130800E0917100EF5FEF73E0937100F0E0EB585B
S1130810FF4F8081909170001092700090E00895D5
S113082080E091E00895209174002F5F909173000F
S11308302917E1F3E22FF0E0EB54FF4F808320937C
S11308407400559A08958091B5019091B60101966E
S11308509093B6018093B501E091B501F091B60192
S11308603A97E135F10568F4E65DFF4F0C94A60470
S11308700E947C0208950E9463031092B6011092B4
S1130880B501089561E070E080E490E00E94BB044B
S1130890EC010E94BE022FEF8EE994E221508040C9
S11308A09040E1F700C0000082ED94E00E94E60170
S11308B084E690E00E9432020E94B7000E94280160
S11308C08823D1F00E9432018230B1F483E00E9487
S11308D03501CE010E9438018881813031F489814B
S11308E090E088519C4F0E94E6018881811104C0E8
S11308F0898190E00E94E60180E00E94E502DCCF5D
S11309001F920F920FB60F9211242F933F934F9380
S11309105F936F937F938F939F93AF93BF93EF9363
S1130920FF9384E482BF0E942304FF91EF91BF915F
S1130930AF919F918F917F916F915F914F913F9173
S11309402F910F900FBE0F901F901895EE0FFF1F61
S11309500590F491E02D0994A29FB001B39FC001CA
S1130960A39F700D811D1124911DB29F700D811DD7
S11309701124911D08950F931F93CF93DF93869FA6
S11309808001879F100D969F100D1124C8010E94AD
S1130990D704EC01009729F0A80160E070E00E9400
S11309A0FE05CE01DF91CF911F910F910895CF9352
S11309B0DF938230910510F482E090E0E091C4016D
S11309C0F091C50120E030E0A0E0B0E0309739F1CB
S11309D04081518148175907B8F04817590771F4F5
S11309E082819381109729F013969C938E9312978A
S11309F02CC09093C5018093C40127C021153105F3
S1130A0031F04217530718F0A901DB0101C0EF01CF
S1130A109A01BD01DF010280F381E02DD7CF2115BA
S1130A203105F9F0281B390B2430310580F48A8113
S1130A309B816115710521F0FB019383828304C0BE
S1130A409093C5018093C401FE01329644C0FE0117
S1130A50E20FF31F81939193225031093983288344
S1130A603AC02091C2013091C301232B41F420915B
S1130A706200309163003093C3012093C20120913E
S1130A806000309161002115310541F42DB73EB766
S1130A904091640050916500241B350BE091C20124
S1130AA0F091C301E217F307A0F42E1B3F0B2817A4
S1130AB0390778F0AC014E5F5F4F2417350748F0D3
S1130AC04E0F5F1F5093C3014093C20181939193D2
S1130AD002C0E0E0F0E0CF01DF91CF910895CF9321
S1130AE0DF93009709F487C0FC01329713821282C6
S1130AF0C091C401D091C501209781F42081318136
S1130B00280F391F8091C2019091C3018217930766
S1130B1079F5F093C301E093C2016DC0DE0120E0DA
S1130B2030E0AE17BF0750F412964D915C911397C5
S1130B309D014115510509F1DA01F3CFB383A28375
S1130B4040815181840F951F8A179B0771F48D9101
S1130B509C911197840F951F02969183808312961E
S1130B608D919C911397938382832115310529F4E8
S1130B70F093C501E093C4013EC0D9011396FC93E0
S1130B80EE9312974D915D91A40FB51FEA17FB07E1
S1130B9079F480819181840F951F0296D901119671
S1130BA09C938E938281938113969C938E93129738
S1130BB0E0E0F0E08A819B81009719F0FE01EC01EE
S1130BC0F9CFCE01029628813981820F931F20919B
S1130BD0C2013091C3012817390769F4309729F409
S1130BE01092C5011092C40102C013821282D093E4
S1130BF0C301C093C201DF91CF910895DC0101C00C
S1110C006D9341505040E0F70895F894FFCFF3
S10D0C0E0000C6012000FFFFFFFFF5
S9030000FC
