S01000006263725F323031352E73726563B6
S11300000C9462000C947F000C94FD0C0C947F0003
S11300100C947F000C947F000C947F000C947F0060
S11300200C947F000C94CE0C0C947F000C94D0069E
S11300300C94FC060C947F000C947F000C947F00BD
S11300400C947F000C947F000C947F000C947F0030
S11300500C947F007C0802097909550C550C550C49
S1130060550C550C550C550C040A1E0AB20A550CB5
S1130070550C550C550C550C550C550C0E0B260BEC
S1130080320B550C550C550C550C550C550C550C88
S1130090D70AEF0AFB0A550C550C550C550C550C98
S11300A0550C550C550C450B660B800B990BBB0B73
S11300B0550C550C550C550C550CCA0BEC0B080C77
S11300C0240C460C11241FBECFE5D4E0DEBFCDBF07
S11300D010E0A0E6B0E0EEEEF0E202C005900D9272
S11300E0AA38B107D9F722E0AAE8B0E001C01D920E
S11300F0A433B207E1F70E945D0C0C9475100C94C4
S1130100000086E290E00E94200762E070E080E454
S113011090E00E94030F9093F9018093F80161E04D
S113012070E080E490E00E94030F9093FD018093BF
S1130130FC011092FB011092FA010895CF93DF9312
S11301400E94340790FD67C08E33910539F41092F4
S1130150FB011092FA0110928C005DC08C33910562
S113016009F042C0E091F801F091F9018081809397
S1130170F3018281E4EFF1E0808380818823C9F078
S113018020E0EF01822F90E0E091FC01F091FD016D
S1130190E80FF91F0296880F991FA091F801B091FA
S11301A0F901A80FB91F8C9180832F5F88812817CC
S11301B048F38091FC019091FD019093F6018093A6
S11301C0F501E091F401F0E03296EE0FFF1F80910B
S11301D0F8019091F901E80FF91F80818093F701EC
S11301E081E080938C0017C010928C00E091F8019C
S11301F0F091F9012091FA013091FB01A9014F5FBF
S11302005F4F5093FB014093FA01220F331FE20F1B
S1130210F31F9183808380E0DF91CF9108958091D3
S11302208C00882321F08091F70181E0089580E01B
S113023008958091F30108958093F3010895CF9375
S1130240DF932091F4012223B1F0E82FF92F80E00D
S113025090E045EF51E064EF71E0EA01A881B981D3
S1130260A80FB91F2C9121930196DB012C9130E04A
S11302708217930794F3DF91CF910895CF93DF937F
S113028000D000D01F92CDB7DEB749835A836B8369
S11302907C838D83652F70E09B01240F311DC90180
S11302A01616170664F4EB81FC8120E030E04191DE
S11302B0840F911D2F5F3F4F26173707C4F3809596
S11302C00F900F900F900F900F90DF91CF910895A2
S11302D0CF92DF92EF92FF920F931F93CF93DF930E
S11302E000D000D01F92CDB7DEB74983E52E5A83E4
S11302F06B837C838D8361E070E080E490E00E94F6
S1130300030F8C018EE3F801808389818183E2826B
S1130310F12C1E141F0464F4AB81BC81339620E0DD
S113032030E08D9181932F5F3F4F2E153F05CCF325
S11303306701F3E0CF0ED11CC00ED11E49815A8152
S11303406B817C818D810E943E01F6018083F801DE
S1130350EE0DFF1D8CE38483C70105967C01D12C2F
S1130360F801ED0DF11D80810E944D07D3942D2DD0
S113037030E02E153F05A4F3C8010E94B70F0F907B
S11303800F900F900F900F90DF91CF911F910F91CD
S1130390FF90EF90DF90CF9008950F931F93CF932A
S11303A0DF93CDB7DEB727970FB6F894DEBF0FBE45
S11303B0CDBF8C0180918A0090918B00081719079A
S11303C029F198013695279536952795ABE7B4E141
S11303D00E94F40E969587958E8344E6489F90017B
S11303E0499F300D1124C801821B930B8F83CE01CA
S11303F00696682F9C838B8340E052E07C818D813C
S11304000E94680110938B0000938A0027960FB610
S1130410F894DEBF0FBECDBFDF91CF911F910F9136
S11304200895CF93DF93CDB7DEB727970FB6F8942F
S1130430DEBF0FBECDBFAC01403187E2580710F0DC
S11304404FE057E29A013695279536952795ABE705
S1130450B4E10E94F40E96958795898364E6689FBB
S11304609001699F300D1124421B530B4A83CE0126
S11304700196682F9E838D8341E052E07E818F81B7
S11304800E94680127960FB6F894DEBF0FBECDBF59
S1130490DF91CF910895CF93DF9300D000D000D0A7
S11304A0CDB7DEB71982CE010196682F9D838C8368
S11304B042E051E07D818E810E94680180E090E0FD
S11304C026960FB6F894DEBF0FBECDBFDF91CF9155
S11304D0089583E083BF89B7816089BF089582EA64
S11304E08FBD8AE18EBD84EE97E597BD86BD8EE211
S11304F099E09BBD8ABD19BC18BC0895F894BF9AB5
S1130500C79AB898C09AB998C19ABA98C29AA39847
S1130510AB9AA298AA9AA198A99AA098A89AA698E0
S1130520AE9ABC9AC498BE9AC69A8C9ABB9AC3983F
S1130530BD9AC59A8F9A8D9AA49AAC9AA798A798AF
S11305401ABA85E886B980E487B984E085BF80E873
S11305508BBF0E9469020E946F028EE685BD0E94D5
S113056081007894089521E030E0A90102C0440F8D
S1130570551F8A95E2F7CA01242F36B33423341762
S1130580D1F0EFE2F5E73197F1F700C0000096B340
S11305908923841791F08FE295E70197F1F700C062
S11305A0000086B382238213FCCF8EE190E00E9488
S11305B0110281E0089580E0089580E0089583B3F6
S11305C080958F700895CF93DF93EB0140939B0048
S11305D0442349F090939F0080939E0070939D0064
S11305E060939C006AC09923CCF0C49ABC0188270C
S11305F077FD8095982F0E94D70D2AE037ED43E2CE
S11306005CE30E948B0E20E036EC4FEA56E40E9435
S11306108B0E0E94A90D79BD68BD1BC0C49891952D
S113062081959109BC01882777FD8095982F0E94B8
S1130630D70D2AE037ED43E25CE30E948B0E20E005
S113064036EC4FEA56E40E948B0E0E94A90D79BD48
S113065068BDDD23C4F0C398BE01882777FD80956B
S1130660982F0E94D70D2AE037ED43E25CE30E9405
S11306708B0E20E030E04EE753E40E948B0E0E9484
S1130680A90D63BD1AC0C39A662777276C1B7D0B1F
S1130690882777FD8095982F0E94D70D2AE037EDA3
S11306A043E25CE30E948B0E20E030E04EE753E42B
S11306B00E948B0E0E94A90D63BDDF91CF91089516
S11306C0882311F0C69801C0C69A662311F0C59814
S11306D00895C59A0895880F991F880F991F880F48
S11306E0991F825D964F9BBD8ABD089583B386FB97
S11306F0882780F991E089270895806487B9369A1C
S1130700349BFECF84B195B108956F927F928F92FE
S11307109F92AF92BF92CF92DF92EF92FF920F938C
S11307201F93CF93DF930F2EFEEFCF2EF1E0DF2E3A
S1130730F02D0F2EF0E2EF2EF2E0FF2EF02D612CC3
S113074083E690E00E94CD019C2CAD2CBE2C7F2C26
S11307508701E601862C882D0E947D0328EC2A95CA
S1130760F1F7288139812115310519F4998388839A
S113077005C02817390710F499838883F80120816C
S113078031812115310519F49183808305C08217C5
S1130790930710F491838083839422960E5F1F4FF6
S11307A087E08812D8CF82E00E94B302882341F206
S11307B082E490E00E94CD0184E690E00E94110260
S11307C09FE7A9EAB3E09150A040B040E1F700C030
S11307D0000084E690E00E94110284E690E0909389
S11307E01F0280931E0264E670E08EE090E00E9497
S11307F0531000E112E00F2EF0E0CF2EF0E0DF2ED8
S1130800F02D0F2EFEE2EF2EF2E0FF2EF02DC92D7B
S1130810DA2D8B2C972CF401819191914F016991E0
S11308207991680F791F76956795D8016D937D93BB
S11308308D01C6010E945310B2E0CB0ED11C8E1460
S11308409F0449F7DF91CF911F910F91FF90EF9093
S1130850DF90CF90BF90AF909F908F907F906F90DC
S11308600895CF92DF92EF92FF920F931F93CF934D
S1130870DF9300E112E0C6E0D0E0D12C0F2EF6E0C9
S1130880CF2EF02DEE24E394F12C8C2D8C1B0E94A2
S11308907D03F801219131918F012817390748F020
S11308A097010C2E02C0220F331F0A94E2F7D22ABA
S11308B009C097010C2E02C0220F331F0A94E2F7DD
S11308C02095D222219708F78D2D8F77DF91CF9134
S11308D01F910F91FF90EF90DF90CF900895CF93E9
S11308E0C82F0E9431048C23CF91089587E00E9481
S11308F07D0321E08436910508F020E0822F0895DD
S1130900EF92FF920F931F93CF93DF93C0E0D0E059
S113091000E112E00F2EF0E1EF2EF0E0FF2EF02DBB
S1130920CE010E944D10F801819391938F0122967C
S1130930CE15DF05A9F7DF91CF911F910F91FF909D
S1130940EF90089580910E0290910F02019690937A
S11309500F0280930E02089580910E0290910F026F
S1130960209195003091960040910E0250910F0213
S11309705093960040939500821B930B0895CF9259
S1130980DF92EF92FF92CF93DF93EB0128E2AC0169
S1130990249FC001259F900D1124BC01882777FD59
S11309A08095982F0E94D70D2AE037ED43E25CE34F
S11309B00E948B0E6B017C01BE01882777FD809518
S11309C0982F0E94D70D9B01AC01C701B6010E946C
S11309D03B0DDF91CF91FF90EF90DF90CF90089582
S11309E08F929F92AF92BF92CF92DF92EF92FF923B
S11309F0CF93DF930E94AC04EC0180919B00882389
S1130A0009F415C1BE0180919E0090919F000E943F
S1130A10BF046B017C0123E333E34FEE51E40E94F6
S1130A208B0E4B015C016091990070919A008827AC
S1130A3077FD8095982F0E94D70D9B01AC01C701CB
S1130A40B6010E943B0D2AE939E941E451E40E94D0
S1130A508B0E20E030E048E452E40E948B0E9B01B0
S1130A60AC01C501B4010E943C0D2091910030916C
S1130A70920040919300509194000E943C0D4B01D0
S1130A805C01609391007093920080939300909323
S1130A90940020E038EF47EA56E40E94870E1816C7
S1130AA06CF480E098EFA7EAB6E480939100909309
S1130AB09200A0939300B093940011C020E030E022
S1130AC0A901C501B4010E94A00D882344F4109229
S1130AD091001092920010929300109294006091F1
S1130AE091007091920080919300909194000E94E3
S1130AF0A90D79BD68BDC701B6010E94A40D70930C
S1130B009A0060939900BE0180919C0090919D0091
S1130B100E94BF046B017C0120E030E040E45FE30D
S1130B200E948B0E4B015C016091970070919800BC
S1130B30882777FD8095982F0E94D70D9B01AC01E3
S1130B40C701B6010E943B0D2FE832EC45EF5DE38F
S1130B500E948B0E20E030E048E452E40E948B0EA9
S1130B609B01AC01C501B4010E943C0D20918D0094
S1130B7030918E0040918F00509190000E943C0D66
S1130B804B015C0160938D0070938E0080938F0005
S1130B909093900020E030E045E753E40E94870EF4
S1130BA018166CF480E090E0A5E7B3E480938D0020
S1130BB090938E00A0938F00B093900011C020E01A
S1130BC030E0A901C501B4010E94A00D882344F4BA
S1130BD010928D0010928E0010928F00109290004F
S1130BE060918D0070918E0080918F0090919000A3
S1130BF00E94A90D63BDC701B6010E94A40D7093A4
S1130C0098006093970080919E0090919F00181621
S1130C10190614F4C49A01C0C39880919C00909161
S1130C209D001816190614F4C39801C0C39ADF91E5
S1130C30CF91FF90EF90DF90CF90BF90AF909F90B7
S1130C408F9008958091680090916900892B31F00C
S1130C508091680090916900019639F48FEF9FEFBD
S1130C609093690080936800089580916800909142
S1130C7069000197909369008093680008958091BA
S1130C80660090916700892B31F080916600909105
S1130C906700019639F48FEF9FEF9093670080937C
S1130CA06600089580916600909167000197909383
S1130CB06700809366000895823091F018F48130C3
S1130CC031F029C08330F1F0843099F024C085E0FC
S1130CD090E090936700809366008FEF9FEF0895F4
S1130CE08AE090E090936700809366008FEF9FEF17
S1130CF0089585E090E0909367008093660084E611
S1130D0090E0089585E090E09093670080936600FA
S1130D1082E390E008958FEF9FEF0895CF93C09101
S1130D20A200CC2361F1C13041F50E9422068091DA
S1130D30680090916900892B29F4C79A1092A10048
S1130D40C0E01BC00E943F0680916600909167003E
S1130D50892B99F48091A10090E0009731F00197DC
S1130D6041F41092A100C79A04C081E08093A100CD
S1130D70C7988091A0000E945C06C093A200CF9106
S1130D800895CF93C82F0E945C06909369008093C6
S1130D90680081E08093A200C093A000CF910895E1
S1130DA01F920F920FB60F9211242F938F939F933C
S1130DB0EF93FF938BB12CB18871E091A500EF5FA5
S1130DC0EF739091A400E91739F0E093A500F0E0E7
S1130DD0E855FF4F208301C082E09091A300892B46
S1130DE08093A300FF91EF919F918F912F910F908A
S1130DF00FBE0F901F9018951F920F920FB60F926F
S1130E0011248F939F93EF93FF939091A700809168
S1130E10A600981759F0E091A600EF5FE093A600B2
S1130E20F0E0E851FF4F80818CB901C05598FF91E3
S1130E30EF919F918F910F900FBE0F901F90189577
S1130E401092A7001092A6001092A5001092A40080
S1130E5099231CF422E02BB99F7790BD89B988E9C6
S1130E608AB986E880BD08959091A5008091A40078
S1130E70981781F0E091A400EF5FEF73E093A40072
S1130E80F0E0E855FF4F80819091A3001092A300F9
S1130E9090E0089580E091E008952091A7002F5FED
S1130EA09091A6002917E1F3E22FF0E0E851FF4FFB
S1130EB080832093A700559A08958091F2018F5F53
S1130EC08093F2018091F1018F5F8093F101809111
S1130ED0F2018A3031F40E944B020E948E06109275
S1130EE0F2018091F101843121F40E94F004109206
S1130EF0F1010895813049F40E946F0421E090E0EB
S1130F00813009F020E0822F0895823051F480E48A
S1130F100E946F0421E090E0803409F020E0822FE9
S1130F20089580E090E008951F93CF93DF93EC0140
S1130F30162F87E70E946F04863091F160F48230A7
S1130F40D9F118F48823B1F080C0833009F441C08A
S1130F508430D1F07AC0803209F45EC020F480314C
S1130F6009F444C072C0803309F44BC0803609F4DC
S1130F7060C06BC080E090E00E946B03412FBE0113
S1130F80CE010E94E30261C08AE090E00E946B03FC
S1130F90BE0165507109412FCE010E94E30255C084
S1130FA08FE090E00E946B03BE0165507109412FF0
S1130FB0CE010E94E30249C084E190E00E946B03E9
S1130FC0BE016A507109412FCE0105970E94E302C8
S1130FD03CC089E190E00E946B03BE016F5071092F
S1130FE0412FCE010A970E94E3022FC086EF9FEFA4
S1130FF00E946B03412FBE01CE0105970E94E302BC
S113100024C081EF9FEF0E946B03412FBE01CE01EC
S113101005970E94E30219C08CEE9FEF0E946B03B8
S1131020BE0165507109412FCE010A970E94E30267
S11310300CC087EE9FEF0E946B03BE016A507109DA
S1131040412FCE010F970E94E302DF91CF911F91B0
S113105008958FE00E946F0421E030E08F3011F09A
S113106020E030E0C901089580E70E946F0421E088
S113107030E0803711F020E030E0C90108958FE0BE
S113108097E20E94CD018AE090E09093EC01809376
S1131090EB01CAE0D0E00EE310E00F2EF6E32F2EB2
S11310A0312CF02D0F2EF5E34F2E512CF02D0F2E59
S11310B0F4E36F2E712CF02D6894882485F8912C1C
S11310C00F2EFFE1AF2EB12CF02D0F2EFAE2CF2E12
S11310D0D12CF02D0F2EF9E2EF2EF12CF02DE09112
S11310E0EB01F091EC013A97E833F10508F0DDC328
S11310F0E65DFF4F0C94EE0E81E08093EA0187E7F2
S11311000E946F04843089F08031F1F081112EC087
S113111080E090E00E946B034091EA016DE270E090
S11311208DE290E00E94E30229C080916A009091D0
S11311306B000E946B034091EA0161E270E080E37E
S113114090E00E94E3021AC080916A0090916B00C3
S11311509195819591090E946B034091EA0160E3A6
S113116070E081E290E00E94E30208C04091EA014D
S113117060E070E080E090E00E94E30282E00E9480
S11311806F04823031F48BE090E09093EC01809313
S1131190EB0180E20E946F04803231F48CE090E035
S11311A09093EC018093EB010E942908892B91F024
S11311B083E390E09093EC018093EB014091EA018A
S11311C065E070E085E090E00E94E3021092F00197
S11311D01092EF010E943408892B09F480CF8DE32B
S11311E090E09093EC018093EB014091EA0165E07B
S11311F070E085E090E00E94E3021092F00110920A
S1131200EF016DCF1092EA0184E60E946F048032F0
S113121099F138F4882309F442C0843009F452C0A7
S11312205ECF803419F08036A1F059CF80917400DC
S1131230909175000E946B03609176007091770025
S11312404091EA0180918000909181000E94E30224
S113125046CF80917200909173000E946B0360915D
S11312607800709179004091EA0180918200909118
S113127083000E94E30233CF80917000909171004B
S11312800E946B0360917A0070917B004091EA01A7
S113129080918400909185000E94E30220CF809188
S11312A06E0090916F000E946B0360917C007091BE
S11312B07D004091EA0180918600909187000E9410
S11312C0E3020DCF80916A0090916B000E946B0342
S11312D060917E0070917F004091EA0180918800C6
S11312E0909189000E94E302D093EC01C093EB013A
S11312F0F6CE1092EA0183E10E946F048230D9F1A4
S113130030F4882309F44EC0813039F0E8CE8330BC
S1131310D9F0803109F45DC0E2CE2091740030919F
S1131320750086EF9FEF821B930B0E946B03609105
S11313308000709181004091EA0180917600909143
S113134077000E94E302CBCE2091720030917300AB
S113135087EF9FEF821B930B0E946B0360918200C7
S1131360709183004091EA01809178009091790016
S11313700E94E302B4CE209170003091710088EF96
S11313809FEF821B930B0E946B036091840070910A
S113139085004091EA0180917A0090917B000E943F
S11313A0E3029DCE20916E0030916F0089EF9FEF94
S11313B0821B930B0E946B036091860070918700DF
S11313C04091EA0180917C0090917D000E94E302AB
S11313D086CE20916C0030916D008AEF9FEF821BC6
S11313E0930B0E946B036091880070918900409177
S11313F0EA0180917E0090917F000E94E302D093E5
S1131400EC01C093EB016BCE84E190E00E94CD012E
S113141061E081E00E9460038091EF019091F0010E
S1131420C39708F45CCE1092EE011092ED0185E1B1
S113143090E09093EC018093EB0151CE87E70E94FA
S11314406F04863099F160F48230D9F118F488235E
S1131450B1F079C0833009F43FC08430E1F073C047
S1131460803209F45BC020F4803109F440C06BC0C1
S1131470803309F448C0803609F45BC064C080E05E
S113148090E00E946B0341E064E170E084E190E04D
S11314900E94E30258C0CE010E946B0341E06DE05C
S11314A070E08FE090E00E94E3024DC08FE090E096
S11314B00E946B0341E0BE018FE090E00E94E302D2
S11314C042C084E190E00E946B0340E065E070E07C
S11314D0CE010E94E30237C089E190E00E946B03D1
S11314E040E066EF7FEFCE010E94E3022CC086EF5E
S11314F09FEF0E946B0340E06FE070E08DE090E0AE
S11315000E94E30220C081EF9FEF0E946B0340E042
S11315106FE070E0CE010E94E30215C08CEE9FEFF5
S11315200E946B0340E0BE0185E090E00E94E3026C
S11315300AC087EE9FEF0E946B0340E066EF7FEFE7
S1131540CE010E94E3028091ED019091EE01873972
S113155091050CF4C4CD86E190E09093EC01809366
S1131560EB01BDCD61E084E190E00E94940780E747
S11315700E946F04803751F41092F0011092EF0131
S11315808EE190E09093EC018093EB0187E00E9460
S11315906F04873009F0A3CD1092F0011092EF018F
S11315A088E290E09093EC018093EB0198CD88E27F
S11315B090E00E94CD018CE390E00E946B0340E038
S11315C06CEE7FEF8CE390E00E94E302F092EC017A
S11315D0E092EB011092F0011092EF0180CD809126
S11315E0EF019091F001CD9708F479CDD092EC0100
S11315F0C092EB0174CD87E70E946F04823009F03A
S11316006ECDD093EC01C093EB011092F0011092D7
S1131610EF0160E080E00E94600361CD8EE190E024
S11316200E94CD0184EC9FEF0E946B0340E06CE3C9
S113163070E08CEE9FEF0E94E302B092EC01A09266
S1131640EB011092F0011092EF0149CD8091EF016E
S11316509091F001CD9708F442CD9092EC018092E4
S1131660EB013DCD87E70E946F04803609F037CD4A
S1131670D093EC01C093EB011092F0011092EF01B2
S113168060E080E00E9460032ACD8091EF01909198
S1131690F001892BD1F382E00E947A07892B51F063
S11316A01092F0011092EF0184E190E09093EC012C
S11316B08093EB018091EF019091F001C39708F4BE
S11316C00ECD7092EC016092EB0109CD61E081E0F6
S11316D00E94600361E08CE390E00E949407809193
S11316E0ED019091EE018D3891050CF4F8CC5092F7
S11316F0EC014092EB0160E080E00E946003EFCCDB
S113170086E290E00E946B0341E06FE070E08FE0BE
S113171090E00E94E30281E00E946F04813009F0AE
S1131720DECCCE010E946B033092EC012092EB01DF
S1131730D6CC41E064E170E084E190E00E94E302F1
S113174088E00E946F04883009F0C9CC8CEE9FEFCA
S11317500E946B031092F0011092EF018091EF014F
S11317609091F001892BD1F387E390E09093EC0101
S11317708093EB01B4CC82EE9FEF0E946B038091C7
S1131780EF019091F0010597D0F3D093EC01C09351
S1131790EB01A5CC81E00E947A07892B51F01092CD
S11317A0F0011092EF0184E190E09093EC018093BA
S11317B0EB018091EF019091F001C39708F48FCC75
S11317C084E00E94C1061093EC010093EB01109297
S11317D0EE011092ED0183CC61E081E00E94600390
S11317E061E08CE390E00E9494078091ED01909178
S11317F0EE018D3891050CF472CC8FE390E0909358
S1131800EC018093EB0160E080E00E94600367CC10
S11318108AED9FEF0E946B0341E06FE070E08FE080
S113182090E00E94E30280E40E946F04803409F097
S113183056CC86EF9FEF0E946B0380E490E0909378
S1131840EC018093EB014BCC41E064E170E084E176
S113185090E00E94E30288E00E946F04883009F05F
S11318603ECC84E190E00E946B031092F001109250
S1131870EF018091EF019091F001892BD1F381E484
S113188090E09093EC018093EB0129CC8EE190E001
S11318900E946B038091EF019091F0010597D0F3C2
S11318A0D093EC01C093EB011ACC80E090E00E944D
S11318B0CD0181E00E94C106FFCF61E070E080E4C9
S11318C090E00E94030FEC010E947E022FEF8EE94C
S11318D094E2215080409040E1F700C0000082ED86
S11318E094E00E94CD0184E690E00E94110240E061
S11318F060E070E080E090E00E94E30280E090E02D
S11319000E946B030E9476038823A9F10E94DF02E0
S113191090E00E94CD010E949E000E940F01882346
S1131920D1F00E9419018230B1F483E00E941C01BD
S1131930CE010E941F018881813031F4898190E0B9
S113194088519C4F0E94CD018881811104C08981F6
S113195090E00E94CD0181E00E94B302882319F037
S113196084E00E94C1060E947604882359F284E030
S11319700E94C106C7CF81E00E94B302882321F0F0
S11319800E9485030E943F0880E00E94B3028823DE
S113199009F4B8CF0E9480040E943F081F920F925E
S11319A00FB60F9211242F933F934F935F936F932E
S11319B07F938F939F93AF93BF93EF93FF9384E4AD
S11319C082BF8091EF019091F00101969093F00114
S11319D08093EF010E945D07FF91EF91BF91AF915A
S11319E09F918F917F916F915F914F913F912F9133
S11319F00F900FBE0F901F9018951F920F920FB665
S1131A000F9211242F933F934F935F936F937F9380
S1131A108F939F93AF93BF93EF93FF930E94A2047E
S1131A208091ED019091EE0101969093EE018093E7
S1131A30ED010E94DF0280FF0DC08091E8019091CA
S1131A40E9019C012F5F3F4F3093E9012093E801A6
S1131A500E94CD01FF91EF91BF91AF919F918F9122
S1131A607F916F915F914F913F912F910F900FBE96
S1131A700F901F9018955058BB27AA270ED00DC160
S1131A80FED030F003D120F031F49F3F11F41EF466
S1131A90F3C00EF4E095E7FBE9C0E92F0FD180F322
S1131AA0BA17620773078407950718F071F49EF557
S1131AB027C10EF4E0950B2EBA2FA02D0B01B9010E
S1131AC090010C01CA01A0011124FF27591B99F0B0
S1131AD0593F50F4503E68F11A16F040A22F232FBC
S1131AE0342F4427585FF3CF469537952795A7950C
S1131AF0F0405395C9F77EF41F16BA0B620B730BB3
S1131B00840BBAF09150A1F0FF0FBB1F661F771F23
S1131B10881FC2F70EC0BA0F621F731F841F48F4D8
S1131B20879577956795B795F7959E3F08F0B3CF5E
S1131B309395880F08F09927EE0F97958795089548
S1131B4071D008F481E0089504D06894B111D9C02B
S1131B500895BCD088F09F5790F0B92F9927B751BA
S1131B60A0F0D1F0660F771F881F991F1AF0BA955D
S1131B70C9F712C0B13081F0C3D0B1E00895C0C03C
S1131B80672F782F8827B85F39F0B93FCCF3869553
S1131B9077956795B395D9F73EF4909580957095B0
S1131BA061957F4F8F4F9F4F0895E89409C097FB2D
S1131BB03EF490958095709561957F4F8F4F9F4F20
S1131BC09923A9F0F92F96E9BB279395F695879564
S1131BD077956795B795F111F8CFFAF4BB0F11F427
S1131BE060FF1BC06F5F7F4F8F4F9F4F16C08823CE
S1131BF011F096E911C0772321F09EE8872F762F04
S1131C0005C0662371F096E8862F70E060E02AF044
S1131C109A95660F771F881FDAF7880F9695879530
S1131C2097F90895990F0008550FAA0BE0E8FEEF05
S1131C3016161706E807F907C0F012161306E4078C
S1131C40F50798F0621B730B840B950B39F40A2685
S1131C5061F0232B242B252B21F408950A2609F463
S1131C60A140A6958FEF811D811D089597F99F6767
S1131C7080E870E060E008959FEF80EC0895002410
S1131C800A941616170618060906089500240A94DD
S1131C9012161306140605060895092E0394000C63
S1131CA011F4882352F0BB0F40F4BF2B11F460FFF2
S1131CB004C06F5F7F4F8F4F9F4F089557FD90581B
S1131CC0440F551F59F05F3F71F04795880F97FBFC
S1131CD0991F61F09F3F79F08795089512161306B6
S1131CE01406551FF2CF4695F1DF08C016161706E5
S1131CF01806991FF1CF869571056105089408951A
S1131D00E894BB2766277727CB0197F908958ADFE4
S1131D1008F48FEF08950BD0C0CFB1DF28F0B6DF01
S1131D2018F0952309F0A2CFA7CF1124EACFC6DF7C
S1131D30A0F3959FD1F3950F50E0551F629FF001DA
S1131D40729FBB27F00DB11D639FAA27F00DB11D33
S1131D50AA1F649F6627B00DA11D661F829F2227BC
S1131D60B00DA11D621F739FB00DA11D621F839F43
S1131D70A00D611D221F749F3327A00D611D231F19
S1131D80849F600D211D822F762F6A2F11249F5767
S1131D9050408AF0E1F088234AF0EE0FFF1FBB1F8A
S1131DA0661F771F881F91505040A9F79E3F510529
S1131DB070F05CCFA6CF5F3FECF3983EDCF38695E2
S1131DC077956795B795F795E7959F5FC1F7FE2BD4
S1131DD0880F911D9695879597F90895EE0FFF1F2B
S1131DE00590F491E02D0994A29FB001B39FC00126
S1131DF0A39F700D811D1124911DB29F700D811D33
S1131E001124911D08950F931F93CF93DF93869F01
S1131E108001879F100D969F100D1124C8010E9408
S1131E201F0FEC01009729F0A80160E070E00E9408
S1131E304610CE01DF91CF911F910F910895CF935A
S1131E40DF938230910510F482E090E0E091320259
S1131E50F091330220E030E0A0E0B0E0309739F1B7
S1131E604081518148175907B8F04817590771F450
S1131E7082819381109729F013969C938E931297E5
S1131E802CC0909333028093320227C02115310570
S1131E9031F04217530718F0A901DB0101C0EF012B
S1131EA09A01BD01DF010280F381E02DD7CF211516
S1131EB03105F9F0281B390B2430310580F48A816F
S1131EC09B816115710521F0FB019383828304C01A
S1131ED09093330280933202FE01329644C0FE0195
S1131EE0E20FF31F819391932250310939832883A0
S1131EF03AC02091300230913102232B41F42091D9
S1131F0062003091630030933102209330022091BB
S1131F106000309161002115310541F42DB73EB7C1
S1131F204091640050916500241B350BE091300210
S1131F30F0913102E217F307A0F42E1B3F0B281790
S1131F40390778F0AC014E5F5F4F2417350748F02E
S1131F504E0F5F1F5093310240933002819391934F
S1131F6002C0E0E0F0E0CF01DF91CF910895CF937C
S1131F70DF93009709F487C0FC0132971382128221
S1131F80C0913202D0913302209781F420813181B3
S1131F90280F391F809130029091310282179307E4
S1131FA079F5F0933102E09330026DC0DE0120E058
S1131FB030E0AE17BF0750F412964D915C91139721
S1131FC09D014115510509F1DA01F3CFB383A283D1
S1131FD040815181840F951F8A179B0771F48D915D
S1131FE09C911197840F951F02969183808312967A
S1131FF08D919C911397938382832115310529F444
S1132000F0933302E09332023EC0D9011396FC935D
S1132010EE9312974D915D91A40FB51FEA17FB073C
S113202079F480819181840F951F0296D9011196CC
S11320309C938E938281938113969C938E93129793
S1132040E0E0F0E08A819B81009719F0FE01EC0149
S1132050F9CFCE01029628813981820F931F2091F6
S11320603002309131022817390769F4309729F486
S1132070109233021092320202C013821282D09361
S11320803102C0933002DF91CF910895DC0101C089
S11320906D9341505040E0F70895A8E1B0E042E06C
S11320A050E00C945A100E946810272F0C94691069
S11320B0DC01CB01FC01E199FECF06C0FFBBEEBB06
S11320C0E09A31960DB20D9241505040B8F7089500
S11320D0262FE199FECF9FBB8EBB2DBB0FB6F89484
S11120E0E29AE19A0FBE01960895F894FFCF9C
S11320EE000034022000FFFFFFFF0E001400170053
S11320FE1E0023002D00EDFFF0FF23001C002A001C
S10D210E2800240025002100300001
S9030000FC
