:100000000C942A000C9447000C9447000C94470071
:100010000C9447000C9447000C9447000C94470044
:100020000C9447000C9448010C9447000C94470032
:100030000C9447000C9447000C9447000C94470024
:100040000C9447000C9447000C9447000C94470014
:100050000C94470011241FBECFE5D4E0DEBFCDBF16
:1000600010E0A0E6B0E0E0E2F3E002C005900D92FF
:10007000A436B107D9F720E0A4E6B0E001C01D9294
:10008000A936B207E1F70E9440010C948E010C944E
:10009000000083E083BF89B7816089BF089582EA49
:1000A0008FBD8AE18EBD84EE97E597BD86BD80ED5C
:1000B00097E099BD88BD08958EE685BD84E683BD31
:1000C0000895F894BF9AC79AB898C09AB998C19AF7
:1000D000BA98C29AA398AB9AA298AA9AA198A99AF8
:1000E000A098A89ABC9ABE9AC69A8C9ABB9ABD9AB6
:1000F000C59A8F9A0E9449000E944F000E945C009E
:100100007894089521E030E0A90102C0440F551F02
:100110008A95E2F7CA01242F36B334233417C1F08D
:10012000EFE3FCE93197F1F700C0000096B38923B3
:10013000841781F0C7988FE39CE90197F1F700C01D
:10014000000086B382238213FCCFC79A81E0089512
:1001500080E0089580E008958091620090916300AE
:10016000892B39F48FEF9FEF9093630080936200A7
:1001700008958091620090916300019790936300CD
:100180008093620008958091600090916100892BB6
:1001900039F48FEF9FEF9093610080936000089592
:1001A000809160009091610001979093610080932D
:1001B00060000895823069F08330A1F08130D9F475
:1001C00085E090E090936100809360008FEF9FEF57
:1001D00008958AE090E090936100809360008FEF33
:1001E0009FEF089585E090E0909361008093600018
:1001F00088EE93E008958FEF9FEF0895CF93C0911D
:100200006600CC2361F1C13041F50E94AC008091C1
:10021000620090916300892B29F4C79A10926500BF
:10022000C0E01BC00E94C3008091600090916100FB
:10023000892B99F48091650090E0009731F0019747
:1002400041F410926500C79A04C081E08093650074
:10025000C798809164000E94DA00C0936600CF9135
:100260000895CF93C82F0E94DA0090936300809383
:10027000620081E080936600C0936400CF9108958E
:100280000E94610083E00E9431010E948B01FDCF3A
:100290001F920F920FB60F9211242F933F934F93FB
:1002A0005F936F937F938F939F93AF93BF93EF93DE
:1002B000FF9384E482BF809167009091680001966B
:1002C0009093680080936700809167009091680028
:1002D0000A9731F410926800109267000E94FE00A5
:1002E000FF91EF91BF91AF919F918F917F916F910E
:1002F0005F914F913F912F910F900FBE0F901F90E4
:10030000189580E00E94820081E00E94820082E0D5
:100310000E94820008950E9481010895F894FFCF01
:04032000FFFFFFFFDD
:00000001FF
