S01000006263725F323031352E73726563B6
S11300000C942A000C9447000C9447000C9447006D
S11300100C9447000C9447000C9447000C94470040
S11300200C9447000C94BB020C9447000C942E02D1
S11300300C945A020C9447000C9447000C9447000B
S11300400C9447000C9447000C9447000C94470010
S11300500C94470011241FBECFE5D4E0DEBFCDBF12
S113006010E0A0E6B0E0E2E6F8E002C005900D92F0
S1130070A837B107D9F721E0A8E7B0E001C01D9285
S1130080A13DB207E1F70E94A2020C942F040C9444
S1130090000086E290E00E947E0282E090E00E94EE
S11300A008039093C8018093C70181E090E00E9407
S11300B008039093CC018093CB011092CA01109253
S11300C0C90108952F923F924F925F926F927F924F
S11300D08F929F92AF92BF92CF92DF92EF92FF9254
S11300E00F931F93CF93DF93CDB7DEB72B970FB644
S11300F0F894DEBF0FBECDBFFE01B0960191119101
S11301005F01F8018081882309F4CDC0812C912CF2
S113011077247394612C6894552454F8412C312C21
S1130120853209F0B6C0F8018181803329F40F5F6C
S11301301F4F272D362D02C0282D392D6801FFEFC2
S1130140CF1ADF0AF8014181442309F4ACC0082D19
S1130150192D433689F030F4453251F0483509F011
S11301607CC012C0443681F0483709F076C00CC018
S113017085E20E94920290C0F5018081F2E0AF0E08
S1130180B11C0E94920288C0F5018081918152E0E5
S1130190A50EB11C443619F44AE0232C02C0452DA7
S11301A0242C642F722D0E94F4028983862F972FAA
S11301B00097A9F0FE013296E72CF62C5FEFE51AC2
S11301C0F50A642F722D0E94F4028193862F972FD3
S11301D0009739F05BE0E516F10481F702C0E72CE3
S11301E0F62CE016F106B8F40E191F09232B21F49E
S11301F06894222425F804C00F2EF0E32F2EF02D4E
S11302000115110541F0822D0E949202015011093D
S113021001151105C1F78701015011091123E4F1FA
S113022081E090E08C0F9D1FE80EF91EF70182918A
S11302307F018F3721F48DE20E94920209C08A3037
S113024020F0895C0E94920203C0805D0E949202A9
S113025001501109112354F71FC080ED840F8A3017
S113026010F5C801880F991F000F111F000F111FEF
S1130270000F111F080F191F842F90E0C097080F5B
S1130280191FFFEFCF1ADF0AF6014081411161CF38
S11302900AC00E949202680186010F5F1F4FF60197
S11302A0818181113DCF2B960FB6F894DEBF0FBE2E
S11302B0CDBFDF91CF911F910F91FF90EF90DF9011
S11302C0CF90BF90AF909F908F907F906F905F90F2
S11302D04F903F902F90089583E083BF89B781604A
S11302E089BF089582EA8FBD8AE18EBD84EE97E5C9
S11302F097BD86BD80ED97E099BD88BD08958EE6D3
S113030085BD84E683BD0895F894BF9AC79AB898CA
S1130310C09AB998C19ABA98C29AA398AB9AA2986B
S1130320AA9AA198A99AA098A89ABC9ABE9AC69A81
S11303308C9ABB9ABD9AC59A8F9AA49AAC9A0E9439
S11303406C010E9472010E947F010E94490078940E
S113035008958091680090916900892B39F48FEF9A
S11303609FEF9093690080936800089580916800DE
S113037090916900019790936900809368000895B3
S11303808091660090916700892B39F48FEF9FEF7D
S11303909093670080936600089580916600909121
S11303A067000197909367008093660008958230F8
S11303B069F08330A1F08130D9F485E090E0909326
S11303C06700809366008FEF9FEF08958AE090E0C6
S11303D090936700809366008FEF9FEF089585E008
S11303E090E0909367008093660088EE93E0089510
S11303F08FEF9FEF0895CF93C0917A00CC2361F1E2
S1130400C13041F50E94A901809168009091690072
S1130410892B29F4C79A10927900C0E01BC00E946E
S1130420C0018091660090916700892B99F48091B6
S1130430790090E0009731F0019741F4109279002F
S1130440C79A04C081E080937900C79880917800AE
S11304500E94D701C0937A00CF9108951F920F9202
S11304600FB60F9211242F938F939F93EF93FF93C3
S11304708BB12CB18871E0917D00EF5FEF739091A7
S11304807C00E91739F0E0937D00F0E0E058FF4F7D
S1130490208301C082E090917B00892B80937B00B4
S11304A0FF91EF919F918F912F910F900FBE0F901D
S11304B01F9018951F920F920FB60F9211248F93CD
S11304C09F93EF93FF9390917F0080917E00981704
S11304D059F0E0917E00EF5FE0937E00F0E0E0549D
S11304E0FF4F80818CB901C05598FF91EF919F9186
S11304F08F910F900FBE0F901F90189510927F0050
S113050010927E0010927D0010927C0099231CF4BE
S113051022E02BB99F7790BD89B988E98AB986E82A
S113052080BD089520917F002F5F90917E00291750
S1130530E1F3E22FF0E0E054FF4F808320937F004B
S1130540559A08950E9484011CE0CAE6D0E01F92E7
S11305501F93DF93CF930E9462009FEF23ED80E30C
S1130560915020408040E1F700C000000F900F90B0
S11305700F900F90ECCF1F920F920FB60F92112491
S11305802F933F934F935F936F937F938F939F9397
S1130590AF93BF93EF93FF9384E482BF8091C00134
S11305A09091C10101969093C1018093C001809103
S11305B0C0019091C1010A9731F41092C1011092C7
S11305C0C0010E94FB01FF91EF91BF91AF919F91F8
S11305D08F917F916F915F914F913F912F910F90E8
S11305E00FBE0F901F901895AA1BBB1B51E107C0AB
S11305F0AA1FBB1FA617B70710F0A61BB70B881FAF
S1130600991F5A95A9F780959095BC01CD0108953D
S1130610CF93DF938230910510F482E090E0E09173
S1130620CF01F091D00120E030E0A0E0B0E03097BD
S113063039F14081518148175907B8F048175907D3
S113064071F482819381109729F013969C938E9371
S113065012972CC09093D0018093CF0127C021150D
S1130660310531F04217530718F0A901DB0101C02D
S1130670EF019A01BD01DF010280F381E02DD7CFA4
S113068021153105F9F0281B390B2430310580F48C
S11306908A819B816115710521F0FB01938382831B
S11306A004C09093D0018093CF01FE01329644C0E0
S11306B0FE01E20FF31F8193919322503109398394
S11306C028833AC02091CD013091CE01232B41F4EF
S11306D020916200309163003093CE012093CD01CC
S11306E020916000309161002115310541F42DB74E
S11306F03EB74091640050916500241B350BE09196
S1130700CD01F091CE01E217F307A0F42E1B3F0BAD
S11307102817390778F0AC014E5F5F4F241735076F
S113072048F04E0F5F1F5093CE014093CD0181934B
S1130730919302C0E0E0F0E0CF01DF91CF91089502
S1130740CF93DF93009709F487C0FC01329713829B
S11307501282C091CF01D091D001209781F42081E1
S11307603181280F391F8091CD019091CE018217DC
S1130770930779F5F093CE01E093CD016DC0DE01CE
S113078020E030E0AE17BF0750F412964D915C9113
S113079013979D014115510509F1DA01F3CFB38394
S11307A0A28340815181840F951F8A179B0771F49E
S11307B08D919C911197840F951F0296918380834C
S11307C012968D919C911397938382832115310501
S11307D029F4F093D001E093CF013EC0D9011396E0
S11307E0FC93EE9312974D915D91A40FB51FEA17F8
S11307F0FB0779F480819181840F951F0296D901BA
S113080011969C938E938281938113969C938E93DD
S11308101297E0E0F0E08A819B81009719F0FE01D5
S1130820EC01F9CFCE01029628813981820F931F02
S11308302091CD013091CE012817390769F4309702
S113084029F41092D0011092CF0102C013821282B7
S1130850D093CE01C093CD01DF91CF910895F89448
S1050860FFCFC4
S11308620000D1012000FFFFFFFF48656C6C6F3A66
S10B087220307825780A00000B
S9030000FC
