:100000000C942A000C9447000C9447000C94470071
:100010000C9447000C9447000C9447000C94470044
:100020000C9447000C94A1020C9447000C94FA0124
:100030000C9426020C9447000C9447000C94470043
:100040000C9447000C9447000C9447000C94470014
:100050000C94470011241FBECFE5D4E0DEBFCDBF16
:1000600010E0A0E6B0E0EAE6F8E002C005900D92EC
:10007000AA36B107D9F721E0AAE6B0E001C01D9287
:10008000A33CB207E1F70E946E020C9433040C9477
:10009000000086E290E00E944A0262E070E080E4A4
:1000A00090E00E94E9029093BA018093B90161E067
:1000B00070E080E490E00E94E9029093BE0180939A
:1000C000BD011092BC011092BB010895CF93DF9344
:1000D00000D000D01F92CDB7DEB749835A836B831F
:1000E0007C838D83652F70E09B01240F311DC90136
:1000F0001616170664F4EB81FC8120E030E0419194
:10010000840F911D2F5F3F4F26173707C4F380954B
:100110000F900F900F900F900F90DF91CF91089557
:10012000CF92DF92EF92FF920F931F93CF93DF93C3
:1001300000D000D01F92CDB7DEB74983E52E5A8399
:100140006B837C838D8361E070E080E490E00E94AB
:10015000E9028C018EE3F801808389818183E28248
:10016000F12C1E141F0464F4AB81BC81339620E093
:1001700030E08D9181932F5F3F4F2E153F05CCF3DB
:100180006701F3E0CF0ED11CC00ED11E49815A8108
:100190006B817C818D810E946600F6018083F8016D
:1001A000EE0DFF1D8CE38483C70105967C01D12CE5
:1001B000F801ED0DF11D80810E945E02D3942D2D7A
:1001C00030E02E153F05A4F3C8010E949D030F9057
:1001D0000F900F900F900F90DF91CF911F910F9183
:1001E000FF90EF90DF90CF900895EF92FF920F93E2
:1001F0001F93CF93DF9300D000D01F92CDB7DEB70F
:100200007C0161E070E080E490E00E94E9028C01F2
:1002100097013695279536952795ABE7B4E10E946F
:10022000DA0296958795F801808344E6489F90010D
:10023000499F300D1124E21AF30AE182602F1C83DA
:100240000B8340E052E07C818D810E949000C801C8
:100250000E949D030F900F900F900F900F90DF91D1
:10026000CF911F910F91FF90EF90089583E083BF8E
:1002700089B7816089BF089582EA8FBD8AE18EBD0A
:1002800084EE97E597BD86BD80ED97E099BD88BD6A
:1002900008958EE685BD84E683BD0895F894BF9ADF
:1002A000C79AB898C09AB998C19ABA98C29AA398AE
:1002B000AB9AA298AA9AA198A99AA098A89ABC9A2F
:1002C000BE9AC69A8C9ABB9ABD9AC59A8F9AA49ADE
:1002D000AC9AA798A7980E9436010E943C010E9400
:1002E00049010E9449007894089580916800909196
:1002F0006900892B39F48FEF9FEF90936900809309
:10030000680008958091680090916900019790932A
:10031000690080936800089580916600909167005D
:10032000892B39F48FEF9FEF9093670080936600DD
:1003300008958091660090916700019790936700FF
:10034000809366000895823069F08330A1F0813097
:10035000D9F485E090E090936700809366008FEF7A
:100360009FEF08958AE090E0909367008093660085
:100370008FEF9FEF089585E090E090936700809362
:10038000660088EE93E008958FEF9FEF0895CF9376
:10039000C0916C00CC2361F1C13041F50E94750120
:1003A0008091680090916900892B29F4C79A109276
:1003B0006B00C0E01BC00E948C0180916600909190
:1003C0006700892B99F480916B0090E0009731F0E1
:1003D000019741F410926B00C79A04C081E08093AA
:1003E0006B00C79880916A000E94A301C0936C00C3
:1003F000CF9108951F920F920FB60F9211242F9351
:100400008F939F93EF93FF938BB12CB18871E09101
:100410006F00EF5FEF7390916E00E91739F0E09392
:100420006F00F0E0EE58FF4F208301C082E0909112
:100430006D00892B80936D00FF91EF919F918F91BB
:100440002F910F900FBE0F901F9018951F920F9233
:100450000FB60F9211248F939F93EF93FF93909178
:10046000710080917000981759F0E0917000EF5F73
:10047000E0937000F0E0EE54FF4F80818CB901C032
:100480005598FF91EF919F918F910F900FBE0F9014
:100490001F901895109271001092700010926F00CA
:1004A00010926E0099231CF422E02BB99F7790BD27
:1004B00089B988E98AB986E880BD089520917100DC
:1004C0002F5F909170002917E1F3E22FF0E0EE54D6
:1004D000FF4F808320937100559A08950E944E012A
:1004E0002FEF3EE944E2215030404040E1F700C0A8
:1004F00000008FE799EA23E0815090402040E1F727
:1005000000C0000080E090E00E94F50081E090E0F3
:1005100000E010E004C0CE0102C0802F912F3FE721
:1005200049EA23E0315040402040E1F700C000009C
:10053000EC0121960E94F500C83E33E0D30759F73D
:10054000ECCF1F920F920FB60F9211242F933F936F
:100550004F935F936F937F938F939F93AF93BF93CB
:10056000EF93FF9384E482BF8091B2019091B30135
:1005700001969093B3018093B2018091B201909162
:10058000B3010A9731F41092B3011092B2010E94A4
:10059000C701FF91EF91BF91AF919F918F917F9193
:1005A0006F915F914F913F912F910F900FBE0F90E0
:1005B0001F901895A29FB001B39FC001A39F700D1B
:1005C000811D1124911DB29F700D811D1124911D5B
:1005D00008950F931F93CF93DF93869F8001879F8A
:1005E000100D969F100D1124C8010E940503EC0107
:1005F000009729F0A80160E070E00E942C04CE0171
:10060000DF91CF911F910F910895CF93DF938230A7
:10061000910510F482E090E0E091C101F091C201F7
:1006200020E030E0A0E0B0E0309739F14081518126
:1006300048175907B8F04817590771F48281938118
:10064000109729F013969C938E9312972CC0909339
:10065000C2018093C10127C02115310531F0421735
:10066000530718F0A901DB0101C0EF019A01BD0198
:10067000DF010280F381E02DD7CF21153105F9F09C
:10068000281B390B2430310580F48A819B81611548
:10069000710521F0FB019383828304C09093C20112
:1006A0008093C101FE01329644C0FE01E20FF31FA8
:1006B0008193919322503109398328833AC0209144
:1006C000BF013091C001232B41F420916200309191
:1006D00063003093C0012093BF01209160003091EE
:1006E00061002115310541F42DB73EB740916400FA
:1006F00050916500241B350BE091BF01F091C001C2
:10070000E217F307A0F42E1B3F0B2817390778F0E8
:10071000AC014E5F5F4F2417350748F04E0F5F1F47
:100720005093C0014093BF018193919302C0E0E0D8
:10073000F0E0CF01DF91CF910895CF93DF93009741
:1007400009F487C0FC01329713821282C091C10163
:10075000D091C201209781F420813181280F391F67
:100760008091BF019091C0018217930779F5F093B2
:10077000C001E093BF016DC0DE0120E030E0AE17A4
:10078000BF0750F412964D915C9113979D0141154E
:10079000510509F1DA01F3CFB383A283408151817E
:1007A000840F951F8A179B0771F48D919C91119767
:1007B000840F951F02969183808312968D919C9150
:1007C0001397938382832115310529F4F093C20195
:1007D000E093C1013EC0D9011396FC93EE931297AA
:1007E0004D915D91A40FB51FEA17FB0779F4808145
:1007F0009181840F951F0296D90111969C938E9337
:100800008281938113969C938E931297E0E0F0E09F
:100810008A819B81009719F0FE01EC01F9CFCE018E
:10082000029628813981820F931F2091BF01309158
:10083000C0012817390769F4309729F41092C201D2
:100840001092C10102C013821282D093C001C093E2
:10085000BF01DF91CF910895DC0101C06D9341503C
:0A0860005040E0F70895F894FFCF30
:0A086A000000C3012000FFFFFFFFA4
:00000001FF
