:100000000C942A000C9447000C9447000C94470071
:100010000C9447000C9447000C9447000C94470044
:100020000C9447000C9400050C9447000C94E003DA
:100030000C940C040C9447000C9447000C9447005B
:100040000C9447000C9447000C9447000C94470014
:100050000C94470011241FBECFE5D4E0DEBFCDBF16
:1000600010E0A0E6B0E0ECE3FFE002C005900D92E6
:10007000AA36B107D9F721E0AAE6B0E001C01D9287
:10008000A63CB207E1F70E9485040C949C070C94EF
:10009000000086E290E00E94300462E070E080E4BC
:1000A00090E00E9452069093BD018093BC0161E0F4
:1000B00070E080E490E00E9452069093C10180932A
:1000C000C0011092BF011092BE010895CF93DF933B
:1000D0000E94440490FD67C08E33910539F410925C
:1000E000BF011092BE0110926C005DC08C3391056F
:1000F00009F042C0E091BC01F091BD018081809384
:10010000B7018281E8EBF1E0808380818823C9F028
:1001100020E0EF01822F90E0E091C001F091C10159
:10012000E80FF91F0296880F991FA091BC01B091AA
:10013000BD01A80FB91F8C9180832F5F888128177C
:1001400048F38091C0019091C1019093BA018093CE
:10015000B901E091B801F0E03296EE0FFF1F8091F7
:10016000BC019091BD01E80FF91F80818093BB0114
:1001700081E080936C0017C010926C00E091BC018C
:10018000F091BD012091BE013091BF01A9014F5FE7
:100190005F4F5093BF014093BE01220F331FE20F08
:1001A000F31F9183808380E0DF91CF910895809148
:1001B0006C00882321F08091BB0181E0089580E0EC
:1001C00008958091B70108958093B7010895CF9362
:1001D000DF932091B8012223B1F0E82FF92F80E0BE
:1001E00090E049EB51E068EB71E0EA01A881B98148
:1001F000A80FB91F2C9121930196DB012C9130E0BF
:100200008217930794F3DF91CF910895CF93DF93F3
:1002100000D000D01F92CDB7DEB749835A836B83DD
:100220007C838D83652F70E09B01240F311DC901F4
:100230001616170664F4EB81FC8120E030E0419152
:10024000840F911D2F5F3F4F26173707C4F380950A
:100250000F900F900F900F900F90DF91CF91089516
:10026000CF92DF92EF92FF920F931F93CF93DF9382
:1002700000D000D01F92CDB7DEB74983E52E5A8358
:100280006B837C838D8361E070E080E490E00E946A
:1002900052068C018EE3F801808389818183E2829A
:1002A000F12C1E141F0464F4AB81BC81339620E052
:1002B00030E08D9181932F5F3F4F2E153F05CCF39A
:1002C0006701F3E0CF0ED11CC00ED11E49815A81C7
:1002D0006B817C818D810E940601F6018083F8018B
:1002E000EE0DFF1D8CE38483C70105967C01D12CA4
:1002F000F801ED0DF11D80810E945D04D3942D2D38
:1003000030E02E153F05A4F3C8010E9406070F90A8
:100310000F900F900F900F90DF91CF911F910F9141
:10032000FF90EF90DF90CF9008950F931F93CF939E
:10033000DF93CDB7DEB727970FB6F894DEBF0FBEB9
:10034000CDBF8C0180916A0090916B00081719074E
:1003500029F198013695279536952795ABE7B4E1B5
:100360000E944306969587958E8344E6489F9001A8
:10037000499F300D1124C801821B930B8F83CE013E
:100380000696682F9C838B8340E052E07C818D81B0
:100390000E94300110936B0000936A0027960FB6FD
:1003A000F894DEBF0FBECDBFDF91CF911F910F91AB
:1003B0000895CF93DF93CDB7DEB727970FB6F894A4
:1003C000DEBF0FBECDBFAC01403187E2580710F051
:1003D0004FE057E29A013695279536952795ABE77A
:1003E000B4E10E94430696958795898364E6689FE9
:1003F0009001699F300D1124421B530B4A83CE019B
:100400000196682F9E838D8341E052E07E818F812B
:100410000E94300127960FB6F894DEBF0FBECDBF05
:10042000DF91CF910895CF93DF9300D000D000D01B
:10043000CDB7DEB71982CE010196682F9D838C83DC
:1004400042E051E07D818E810E94300180E090E0A9
:1004500026960FB6F894DEBF0FBECDBFDF91CF91C9
:10046000089583E083BF89B7816089BF089582EAD8
:100470008FBD8AE18EBD84EE97E597BD86BD80E68F
:1004800099E09BBD8ABD19BC18BC0895F894BF9A29
:10049000C79AB898C09AB998C19ABA98C29AA398BC
:1004A000AB9AA298AA9AA198A99AA098A89AA69855
:1004B000AE9ABC9AC498BE9AC69A8C9ABB9AC398B4
:1004C000BD9AC59A8F9A8D9AA49AAC9AA798A79824
:1004D0001ABA0E9431020E9437028EE685BD0E9440
:1004E00049007894089521E030E0A90102C0440F4A
:1004F000551F8A95E2F7CA01242F36B334233417E7
:10050000D1F0EFE2F5E73197F1F700C0000096B3C4
:100510008923841791F08FE295E70197F1F700C0E6
:10052000000086B382238213FCCF8EE190E00E940C
:10053000D90181E0089580E0089580E0089583B3B3
:1005400080958F7008950F931F93CF93DF938C0145
:10055000EB010E949F021123CCF0C49AB8018827B6
:1005600077FD8095982F0E9454052AE037ED43E2ED
:100570005CE30E94B80520E036EC4FEA56E40E94A6
:10058000B8050E94260579BD68BD1BC0C4986627C2
:100590007727601B710B882777FD8095982F0E9425
:1005A00054052AE037ED43E25CE30E94B80520E001
:1005B00036EC4FEA56E40E94B8050E94260579BD44
:1005C00068BDDD23C4F0C398BE01882777FD809500
:1005D000982F0E9454052AE037ED43E25CE30E9425
:1005E000B80520E030E04EE753E40E94B8050E94D1
:1005F000260563BD1AC0C39A662777276C1B7D0B3F
:10060000882777FD8095982F0E9454052AE037EDC2
:1006100043E25CE30E94B80520E030E04EE753E49B
:100620000E94B8050E94260563BDDF91CF911F91FE
:100630000F910895845D9E4F880F991F880F991F11
:10064000880F991F9BBD8ABD089589B38095881F27
:100650008827881F089583B386FB882780F991E057
:10066000892708958091680090916900892B31F065
:100670008091680090916900019639F48FEF9FEFA7
:10068000909369008093680008958091680090912C
:1006900069000197909369008093680008958091A4
:1006A000660090916700892B31F0809166009091EF
:1006B0006700019639F48FEF9FEF90936700809366
:1006C000660008958091660090916700019790936D
:1006D0006700809366000895823091F018F48130AD
:1006E00031F029C08330F1F0843099F024C085E0E6
:1006F00090E090936700809366008FEF9FEF0895DE
:100700008AE090E090936700809366008FEF9FEF00
:10071000089585E090E0909367008093660084E6FA
:1007200090E0089585E090E09093670080936600E4
:1007300082E390E008958FEF9FEF0895CF93C091EB
:100740006F00CC2361F1C13041F50E9432038091EA
:10075000680090916900892B29F4C79A10926E0065
:10076000C0E01BC00E944F0380916600909167001B
:10077000892B99F480916E0090E0009731F00197F9
:1007800041F410926E00C79A04C081E080936E001D
:10079000C79880916D000E946C03C0936F00CF9149
:1007A0000895CF93C82F0E946C03909369008093A3
:1007B000680081E080936F00C0936D00CF91089531
:1007C0001F920F920FB60F9211242F938F939F9326
:1007D000EF93FF938BB12CB18871E0917200EF5FC2
:1007E000EF7390917100E91739F0E0937200F0E037
:1007F000EB58FF4F208301C082E090917000892B5D
:1008000080937000FF91EF919F918F912F910F90A6
:100810000FBE0F901F9018951F920F920FB60F9258
:1008200011248F939F93EF93FF9390917400809185
:100830007300981759F0E0917300EF5FE093730035
:10084000F0E0EB54FF4F80818CB901C05598FF91C7
:10085000EF919F918F910F900FBE0F901F90189561
:100860001092740010927300109272001092710036
:1008700099231CF422E02BB99F7790BD89B988E9B0
:100880008AB986E880BD08959091720080917100C8
:10089000981781F0E0917100EF5FEF73E0937100C2
:1008A000F0E0EB58FF4F8081909170001092700043
:1008B00090E0089580E091E00895209174002F5F0A
:1008C000909173002917E1F3E22FF0E0EB54FF4F12
:1008D000808320937400559A08958091B50190917A
:1008E000B60101969093B6018093B5018091B50150
:1008F0009091B6010A9741F40E9413020E949E0350
:100900001092B6011092B501089561E070E080E4A4
:1009100090E00E9452067C010E9446022FEF8EE971
:1009200094E2215080409040E1F700C0000082ED49
:1009300094E00E94950184E690E00E94D90162EE65
:100940007FEF82EE9FEF0E94A30280E090E00E9482
:100950001A03C0E0D0E0C12CD12C0E942B038823C5
:10096000B9F10E949F0290E00E9495010E946600EA
:100970000E94D700882309F10E94E1008230E9F447
:1009800083E00E94E400C7010E94E700F701808134
:10099000813051F4818190E0CC27DD27C81BD90B31
:1009A00088519C4F0E949501F7018081811105C0FB
:1009B000C181D0E0CE010E94950180E00E947302C7
:1009C000882319F084E00E94D1030E942503C5CF3B
:1009D0008E010F5F1F4FCE010E9495010F30F7E28D
:1009E0001F0711F0E80102C0CC2DDD2D9FEBE4EDD7
:1009F000F1E09150E040F040E1F700C00000ADCFE1
:100A00001F920F920FB60F9211242F933F934F9383
:100A10005F936F937F938F939F93AF93BF93EF9366
:100A2000FF9384E482BF0E946D04FF91EF91BF9118
:100A3000AF919F918F917F916F915F914F913F9176
:100A40002F910F900FBE0F901F90189570D088F0C7
:100A50009F5790F0B92F9927B751A0F0D1F0660FAA
:100A6000771F881F991F1AF0BA95C9F712C0B130C5
:100A700081F077D0B1E0089574C0672F782F882770
:100A8000B85F39F0B93FCCF3869577956795B39504
:100A9000D9F73EF490958095709561957F4F8F4F73
:100AA0009F4F0895E89409C097FB3EF49095809578
:100AB000709561957F4F8F4F9F4F9923A9F0F92F24
:100AC00096E9BB279395F695879577956795B795A2
:100AD000F111F8CFFAF4BB0F11F460FF1BC06F5F88
:100AE0007F4F8F4F9F4F16C0882311F096E911C09A
:100AF000772321F09EE8872F762F05C0662371F0BB
:100B000096E8862F70E060E02AF09A95660F771FCE
:100B1000881FDAF7880F9695879597F9089557FDFE
:100B20009058440F551F59F05F3F71F04795880F5B
:100B300097FB991F61F09F3F79F0879508951216F2
:100B400013061406551FF2CF4695F1DF08C016169E
:100B500017061806991FF1CF86957105610508944F
:100B60000895E894BB2766277727CB0197F9089566
:100B70000BD078C069D028F06ED018F0952309F01A
:100B80005AC05FC01124EECFCADFA0F3959FD1F306
:100B9000950F50E0551F629FF001729FBB27F00D2B
:100BA000B11D639FAA27F00DB11DAA1F649F662780
:100BB000B00DA11D661F829F2227B00DA11D621FCF
:100BC000739FB00DA11D621F839FA00D611D221F89
:100BD000749F3327A00D611D231F849F600D211D6D
:100BE000822F762F6A2F11249F5750408AF0E1F010
:100BF00088234AF0EE0FFF1FBB1F661F771F881F59
:100C000091505040A9F79E3F510570F014C0AACFF3
:100C10005F3FECF3983EDCF3869577956795B79543
:100C2000F795E7959F5FC1F7FE2B880F911D96956D
:100C3000879597F9089597F99F6780E870E060E0DD
:100C400008959FEF80EC089500240A941616170665
:100C500018060906089500240A94121613061406AD
:100C600005060895092E0394000C11F4882352F010
:100C7000BB0F40F4BF2B11F460FF04C06F5F7F4FC8
:100C80008F4F9F4F0895A29FB001B39FC001A39FB4
:100C9000700D811D1124911DB29F700D811D1124B5
:100CA000911D08950F931F93CF93DF93869F80012B
:100CB000879F100D969F100D1124C8010E946E068B
:100CC000EC01009729F0A80160E070E00E94950710
:100CD000CE01DF91CF911F910F910895CF93DF93B4
:100CE0008230910510F482E090E0E091C401F0912F
:100CF000C50120E030E0A0E0B0E0309739F140815C
:100D0000518148175907B8F04817590771F4828183
:100D10009381109729F013969C938E9312972CC071
:100D20009093C5018093C40127C02115310531F08E
:100D30004217530718F0A901DB0101C0EF019A0126
:100D4000BD01DF010280F381E02DD7CF21153105F0
:100D5000F9F0281B390B2430310580F48A819B81FE
:100D60006115710521F0FB019383828304C0909388
:100D7000C5018093C401FE01329644C0FE01E20F1A
:100D8000F31F8193919322503109398328833AC00C
:100D90002091C2013091C301232B41F420916200C4
:100DA000309163003093C3012093C2012091600011
:100DB000309161002115310541F42DB73EB74091C6
:100DC000640050916500241B350BE091C201F09145
:100DD000C301E217F307A0F42E1B3F0B28173907B6
:100DE00078F0AC014E5F5F4F2417350748F04E0F87
:100DF0005F1F5093C3014093C2018193919302C03E
:100E0000E0E0F0E0CF01DF91CF910895CF93DF9341
:100E1000009709F487C0FC01329713821282C091B7
:100E2000C401D091C501209781F420813181280F20
:100E3000391F8091C2019091C3018217930779F500
:100E4000F093C301E093C2016DC0DE0120E030E009
:100E5000AE17BF0750F412964D915C9113979D0108
:100E60004115510509F1DA01F3CFB383A283408123
:100E70005181840F951F8A179B0771F48D919C9166
:100E80001197840F951F02969183808312968D91FE
:100E90009C911397938382832115310529F4F09354
:100EA000C501E093C4013EC0D9011396FC93EE93B3
:100EB00012974D915D91A40FB51FEA17FB0779F4C6
:100EC00080819181840F951F0296D90111969C9380
:100ED0008E938281938113969C938E931297E0E078
:100EE000F0E08A819B81009719F0FE01EC01F9CFB7
:100EF000CE01029628813981820F931F2091C20171
:100F00003091C3012817390769F4309729F41092FA
:100F1000C5011092C40102C013821282D093C30192
:100F2000C093C201DF91CF910895DC0101C06D93A0
:0C0F300041505040E0F70895F894FFCFC6
:0A0F3C000000C6012000FFFFFFFFC8
:00000001FF
