:100000000C946C000C9489000C94950C0C94890051
:100010000C9489000C9489000C9489000C9489003C
:100020000C9489000C94660C0C9489000C94890043
:100030000C9489000C9489000C9489000C9489001C
:100040000C9489000C9489000C9489000C9489000C
:100050000C948900C706E206B20BB20BB20BB20BCE
:10006000B20BB20BB20BB20B070798074A08B20BE0
:10007000B20BB20B2B08EE08B20BB20B10092A0917
:10008000BE09B20BB20BB20BB20BB20BB20BB20B7E
:10009000260A400A4E0AB20BB20BB20BB20BB20BDD
:1000A000B20BB20BE309FD090F0AB20BB20BB20B94
:1000B000B20BB20BB20BB20BB20B650A930AB30AC6
:1000C000D20AF80AB20BB20BB20BB20BB20B0B0B8B
:1000D000390B590B790B9F0B11241FBECFE5D4E0D0
:1000E000DEBFCDBF10E0A0E6B0E0ECEBFDE102C06A
:1000F00005900D92A838B107D9F720E0A8E8B0E044
:1001000001C01D92A03EB207E1F70E94BA0B0C9409
:10011000DC0E0C94000083E083BF89B7816089BF47
:10012000089582EA8FBD8AE18EBD84EE97E597BD82
:1001300086BD19BC18BC0895F894BF9AC79AB898A0
:10014000C09AB998C19ABA98C29AA398AB9AA29841
:10015000AA9AA198A99AA098A89AA698AE9ABC9A89
:10016000C498BE9AC69A8C9ABB9AC398BD9AC59AEF
:100170008F9A8D9AA49AAC9AA798A7981ABA85E8EC
:1001800086B980E487B984E085BF80E88BBF889A10
:10019000899A8A9A0E948B000E9491008EE685BD02
:1001A0007894089521E030E0A90102C0440F551F62
:1001B0008A95E2F7CA01242F36B334233417C1F0ED
:1001C000EFE2F5E73197F1F700C0000096B389231D
:1001D000841781F0C7988FE295E70197F1F700C087
:1001E000000086B382238213FCCFC79A81E0089572
:1001F00080E0089580E0089583B380958F7008951E
:10020000CF93DF93EB0140939A00442349F09093FE
:100210009E0080939D0070939C0060939B006AC039
:100220009923CCF0C49ABC01882777FD8095982F3C
:100230000E946F0D2AE037ED43E25CE30E94230E3B
:1002400020E036EC4FEA56E40E94230E0E94410D56
:1002500079BD68BD1BC0C498919581959109BC0179
:10026000882777FD8095982F0E946F0D2AE037ED43
:1002700043E25CE30E94230E20E036EC4FEA56E4B2
:100280000E94230E0E94410D79BD68BDDD23C4F09C
:10029000C398BE01882777FD8095982F0E946F0D27
:1002A0002AE037ED43E25CE30E94230E20E030E0D9
:1002B0004EE753E40E94230E0E94410D63BD1AC015
:1002C000C39A662777276C1B7D0B882777FD80955F
:1002D000982F0E946F0D2AE037ED43E25CE30E9405
:1002E000230E20E030E04EE753E40E94230E0E94EC
:1002F000410D63BDDF91CF910895882311F0C69819
:1003000001C0C69A662311F0C5980895C59A08954C
:10031000880F991F880F991F880F991F20916000DF
:1003200030916100820F931F9BBD8ABD089583B3F6
:1003300086FB882780F991E089270895806487B932
:10034000369A349BFECF84B195B108958F929F92D7
:10035000AF92BF92CF92DF92EF92FF920F931F93D3
:10036000CF93DF930F2EF3E6AF2EB12CF02D0F2E8F
:10037000FEEACF2EF0E0DF2EF02D0F2EF0EDEF2E67
:10038000F0E0FF2EF02D812CB0928900A092880021
:100390008601E701982C892D0E949E0128EC2A9560
:1003A000F1F7F801208131812115310519F491838C
:1003B000808305C02817390710F491838083288132
:1003C00039812115310519F49983888305C0821775
:1003D000930710F49983888393940E5F1F4F22969E
:1003E00087E09812D8CF82E00E94D200882361F281
:1003F00082E490E090938900809388009FE7A9EAC7
:10040000B3E09150A040B040E1F700C000008FE69B
:1004100090E09093CF008093CE006FE670E08EE086
:1004200090E00E94BA0EC0ECD0E000E010E00F2E89
:10043000FEECCF2EF0E0DF2EF02D0F2EF4EFEF2E9E
:10044000FF24F394F02DE992F992B701C8010E94BC
:10045000BA0E0E5F1F4FCC15DD05A9F7DF91CF91C6
:100460001F910F91FF90EF90DF90CF90BF90AF90D2
:100470009F908F900895CF92DF92EF92FF920F930B
:100480001F93CF93DF9300EC10E0C6E0D0E0D12CB7
:100490000F2EF6E0CF2EF02DEE24E394F12C8C2DD0
:1004A0008C1B0E949E01F801219131918F01281728
:1004B000390748F097010C2E02C0220F331F0A940F
:1004C000E2F7D22A09C097010C2E02C0220F331F77
:1004D0000A94E2F72095D222219708F78D2D8F7785
:1004E00080938A00DF91CF911F910F91FF90EF9041
:1004F000DF90CF900895CF93C82F0E943B028C23AA
:10050000CF91089587E00E949E0121E084369105F5
:1005100008F020E0822F0895EF92FF920F931F932F
:10052000CF93DF93C0E0D0E000EC10E00F2EF0E1BD
:10053000EF2EF0E0FF2EF02DCE010E94B40EF80158
:10054000819391938F012296CE15DF05A9F7DF9154
:10055000CF911F910F91FF90EF900895E82FF0E059
:10056000EE0FFF1FE054FF4F80819181089580E1DD
:1005700090E00E94B40E9093610080936000089513
:100580009093610080936000BC0180E190E00E9444
:10059000BA0E089580916000909161000895809155
:1005A000BE009091BF0001969093BF008093BE0063
:1005B00008958091BE009091BF00209194003091E9
:1005C00095004091BE005091BF005093950040931C
:1005D0009400821B930B0895CF92DF92EF92FF92CB
:1005E000CF93DF93EB0128E2AC01249FC001259F4C
:1005F000900D1124BC01882777FD8095982F0E94CB
:100600006F0D2AE037ED43E25CE30E94230E6B019D
:100610007C01BE01882777FD8095982F0E946F0D81
:100620009B01AC01C701B6010E94D30CDF91CF91B1
:10063000FF90EF90DF90CF9008958F929F92AF92AE
:10064000BF92CF92DF92EF92FF92CF93DF930E94FF
:10065000D902EC0180919A00882309F415C1BE01EA
:1006600080919D0090919E000E94EC026B017C01A4
:1006700023E333E34FEE51E40E94230E4B015C0170
:100680006091980070919900882777FD8095982F48
:100690000E946F0D9B01AC01C701B6010E94D30CF3
:1006A0002AE939E941E451E40E94230E20E030E0D8
:1006B00048E452E40E94230E9B01AC01C501B40141
:1006C0000E94D40C209190003091910040919200B2
:1006D000509193000E94D40C4B015C0160939000F8
:1006E00070939100809392009093930020E038EFF4
:1006F00047EA56E40E941F0E18166CF480E098EF4B
:10070000A7EAB6E48093900090939100A0939200A2
:10071000B093930011C020E030E0A901C501B401FD
:100720000E94380D882344F410929000109291009A
:10073000109292001092930060919000709191003D
:1007400080919200909193000E94410D79BD68BD07
:10075000C701B6010E943C0D709399006093980008
:10076000BE0180919B0090919C000E94EC026B0165
:100770007C0120E030E040E45FE30E94230E4B0167
:100780005C016091960070919700882777FD8095B5
:10079000982F0E946F0D9B01AC01C701B6010E940A
:1007A000D30C2FE832EC45EF5DE30E94230E20E0EE
:1007B00030E048E452E40E94230E9B01AC01C501E5
:1007C000B4010E94D40C20918C0030918D00409196
:1007D0008E0050918F000E94D40C4B015C016093FD
:1007E0008C0070938D0080938E0090938F0020E09A
:1007F00030E045E753E40E941F0E18166CF480E0C9
:1008000090E0A5E7B3E480938C0090938D00A093D3
:100810008E00B0938F0011C020E030E0A901C50127
:10082000B4010E94380D882344F410928C00109279
:100830008D0010928E0010928F0060918C0070914C
:100840008D0080918E0090918F000E94410D63BDBC
:10085000C701B6010E943C0D70939700609396000B
:1008600080919D0090919E001816190614F4C49A68
:1008700001C0C39880919B0090919C0018161906A6
:1008800014F4C39801C0C39ADF91CF91FF90EF9009
:10089000DF90CF90BF90AF909F908F900895CF93AF
:1008A000DF93809188009091890099233CF4919581
:1008B0008195910990938900809388002091880008
:1008C00030918900CAE0D0E0C901BE010E94860EC5
:1008D00082959295907F9827807F9827482F48602F
:1008E000E4E6F0E0C901BF010E94860EBE010E944D
:1008F000860E62957295707F7627607F7627C62F69
:10090000C460C90168EE73E00E94860E9B01BF01BE
:100910000E94860E62957295707F7627607F76279B
:10092000626022953295307F3227207F3227216006
:10093000929A50E831E080E09098883048F09091A9
:100940008A00932311F4919A01C09198330F29C022
:1009500090918B00913071F028F0923099F09330A3
:10096000C9F01FC0952F922311F4919801C0919A5C
:10097000569517C0952F962311F4919801C0919A1E
:1009800056950FC0952F9C2311F4919801C0919A10
:10099000569507C0952F942311F4919801C0919A10
:1009A0005695909A8F5F803139F6929880918B009E
:1009B0008F5F843019F080938B0002C010928B00FF
:1009C000DF91CF91089590938900809388000895D6
:1009D00080938A0008950895809164009091650045
:1009E000892B31F08091640090916500019639F473
:1009F0008FEF9FEF9093650080936400089580913E
:100A00006400909165000197909365008093640065
:100A100008958091620090916300892B31F080915C
:100A2000620090916300019639F48FEF9FEF9093ED
:100A3000630080936200089580916200909163004A
:100A4000019790936300809362000895823091F043
:100A500018F4813031F029C08330F1F0843099F0FE
:100A600024C085E090E090936300809362008FEF54
:100A70009FEF08958AE090E0909363008093620076
:100A80008FEF9FEF089585E090E09093630080934F
:100A9000620084E690E0089585E090E09093630022
:100AA0008093620082E390E008958FEF9FEF0895B6
:100AB000CF93C091A100CC2361F1C13041F50E94D8
:100AC000EC048091640090916500892B29F4C79A09
:100AD0001092A000C0E01BC00E9409058091620036
:100AE00090916300892B99F48091A00090E0009789
:100AF00031F0019741F41092A000C79A04C081E040
:100B00008093A000C79880919F000E942605C09303
:100B1000A100CF910895CF93C82F0E9426059093EE
:100B200065008093640081E08093A100C0939F00E2
:100B3000CF9108958091AD008F5F8093AD0080913B
:100B4000AC008F5F8093AC008091AB008F5F80938F
:100B5000AB008091AB00853021F40E944F041092CD
:100B6000AB008091AD008A3021F40E9458051092AC
:100B7000AD008091AC00843121F40E941D031092DD
:100B8000AC000895813051F480E00E947B0221E0A6
:100B900090E0813009F020E0822F0895823051F4F6
:100BA00080E40E947B0221E090E0803409F020E0A4
:100BB000822F089580E090E008951F93CF93DF93F4
:100BC000EC01162F87E70E947B02863091F160F4DA
:100BD0008230D9F118F48823B1F080C0833009F451
:100BE00041C08430D1F07AC0803209F45EC020F474
:100BF000803109F444C072C0803309F44BC08036A0
:100C000009F460C06BC080E090E00E948801412F31
:100C1000BE01CE010E94000161C08AE090E00E9406
:100C20008801BE0165507109412FCE010E9400016B
:100C300055C08FE090E00E948801BE0165507109A7
:100C4000412FCE010E94000149C084E190E00E9442
:100C50008801BE016A507109412FCE0105970E949B
:100C600000013CC089E190E00E948801BE016F5004
:100C70007109412FCE010A970E9400012FC086EF13
:100C80009FEF0E948801412FBE01CE0105970E946F
:100C9000000124C081EF9FEF0E948801412FBE0117
:100CA000CE0105970E94000119C08CEE9FEF0E94B3
:100CB0008801BE0165507109412FCE010A970E943B
:100CC00000010CC087EE9FEF0E948801BE016A50B0
:100CD0007109412FCE010F970E940001DF91CF9142
:100CE0001F9108958FE00E947B0221E030E08F3059
:100CF00011F020E030E0C901089588E70E947B02EE
:100D000021E030E0883711F020E030E0C90108959B
:100D10001092A6001092A500CAE0D0E00F2EF6E8CF
:100D20002F2EF0E03F2EF02D0F2EFCE74F2EF0E09F
:100D30005F2EF02D0F2EFCE66F2EF0E07F2EF02DB3
:100D40000F2EF2E8EF2EF0E0FF2EF02D08E710E076
:100D50000F2EF0E78F2EF0E09F2EF02D0F2EFEE7E6
:100D6000AF2EF0E0BF2EF02D0F2EF4E7CF2EF0E0E7
:100D7000DF2EF02D8091A5009091A6008234910580
:100D800008F0F0C4FC01E65DFF4F0C949A0E84EF6E
:100D90009AE10E94E3040E948202882331F081E0FC
:100DA00090E09093A6008093A50080E00E94D2007E
:100DB000882301F3D093A600C093A500CE010E9422
:100DC000E304D8CF85EF9AE10E94E3040E948202F7
:100DD000882311F0C7980AC0D093A600C093A5003D
:100DE000CE010E94E30484E00E948B0580E00E9413
:100DF000D200882309F4BECFD093A600C093A500EB
:100E0000CE010E94E30484E00E948B05B3CFCE01A3
:100E10000E94E30481E08093A40087E70E947B02A4
:100E2000843089F08031F1F081112EC080E090E0B3
:100E30000E9488014091A40062E370E082E390E0A8
:100E40000E94000129C080916600909167000E9475
:100E500088014091A4006EE170E08DE290E00E9474
:100E600000011AC08091660090916700919581956C
:100E700091090E9488014091A4006DE270E08EE12A
:100E800090E00E94000108C04091A40060E070E082
:100E900080E090E00E94000183E00E947B028330AA
:100EA00031F48BE090E09093A6008093A50080E65B
:100EB0000E947B02803639F48CE090E09093A6008B
:100EC0008093A50007C041E06EE170E08EE190E004
:100ED0000E9400010E947206892B91F083E390E04A
:100EE0009093A6008093A5004091A40065E070E077
:100EF00085E090E00E9400011092AA001092A900E3
:100F00000E947D06892B09F435CF8DE390E0909304
:100F1000A6008093A5004091A40065E070E085E004
:100F200090E00E9400011092AA001092A90022CF26
:100F30008BE090E00E94E3041092A40087E70E94F7
:100F40007B02843009F449C038F4813099F008F408
:100F500055C08330F9F00ECF803309F462C018F425
:100F6000863059F107CF803409F46EC0803609F419
:100F70006BC000CFF401808191810E948801F6014D
:100F8000608171814091A400F501808191810E946E
:100F90000001F0CE80916E0090916F000E94880158
:100FA00060917600709177004091A400809180005C
:100FB000909181000E940001DDCEF301808191813A
:100FC0000E948801F801608171814091A400F701BD
:100FD000808191810E940001CDCE80916A00909124
:100FE0006B000E948801F801608171814091A4002A
:100FF000F701808191810E940001BCCE8091680040
:10100000909169000E94880160917A0070917B0044
:101010004091A40080918400909185000E9400017D
:10102000A9CE8EEE9FEF0E948801F201608171814E
:101030004091A400F101808191810E940001D09330
:10104000A600C093A50096CE80E190E09093A60004
:101050008093A5008FCE80E190E00E94E30440E001
:1010600061EF7FEF88E290E00E940001E2E7F0E0AC
:10107000808191810E94880187E70E947B02811113
:1010800079CE80E090E00E948801D093A600C093C2
:10109000A50070CE8CE090E00E94E3041092A400C2
:1010A00087E70E947B02843009F47EC048F48130D7
:1010B00009F48DC008F462C0833009F488C05ACEA8
:1010C000803399F120F4803109F442C053CE80344A
:1010D00019F08036A1F04ECEF40180819181919576
:1010E000819591090E948801F5016081718140918B
:1010F000A400F601808191810E9400013BCE809185
:101100006E0090916F009195819591090E948801E0
:1011100060918000709181004091A40080917600E0
:10112000909177000E94000125CEF301808191818A
:101130009195819591090E948801F70160817181E3
:101140004091A400F801808191810E94000112CE9B
:1011500080916A0090916B009195819591090E9410
:10116000880160918400709185004091A400809175
:101170007A0090917B000E940001FCCD8091680074
:10118000909169009195819591090E9488016091E3
:101190008400709185004091A40080917A00909124
:1011A0007B000E940001E6CD82E190E00E94880170
:1011B000F101608171814091A400F20180819181EF
:1011C0000E940001D093A600C093A500D3CD81E179
:1011D00090E09093A6008093A500CCCD81E190E0B3
:1011E0000E94E30440E068E270E081EF9FEF0E941C
:1011F0000001E2E7F0E0808191819195819591096C
:101200000E94880187E70E947B028111B3CD80E0B4
:1012100090E00E948801D093A600C093A500AACDBB
:1012200084E190E00E94E30461E081E00E947D019E
:101230008091A9009091AA00C39708F49BCD1092C9
:10124000A8001092A70085E190E09093A6008093FB
:10125000A50090CD87E70E947B02863099F160F46B
:101260008230D9F118F48823B1F079C0833009F4C1
:101270003FC08430E1F073C0803209F45BC020F4D9
:10128000803109F440C06BC0803309F448C0803617
:1012900009F45BC064C080E090E00E94880141E0F6
:1012A00064E170E084E190E00E94000158C0CE014A
:1012B0000E94880141E06DE070E08FE090E00E94C4
:1012C00000014DC08FE090E00E94880141E0BE0126
:1012D0008FE090E00E94000142C084E190E00E9413
:1012E000880140E065E070E0CE010E94000137C057
:1012F00089E190E00E94880140E066EF7FEFCE0137
:101300000E9400012CC086EF9FEF0E94880140E000
:101310006FE070E08DE090E00E94000120C081EF5E
:101320009FEF0E94880140E06FE070E0CE010E94D4
:10133000000115C08CEE9FEF0E94880140E0BE01C5
:1013400085E090E00E9400010AC087EE9FEF0E94B6
:10135000880140E066EF7FEFCE010E94000180919E
:10136000A7009091A800873991050CF403CDE6E120
:10137000F0E0F093A600E093A500FCCC61E084E1EE
:1013800090E00E94DD0580E70E947B02803751F4E7
:101390001092AA001092A9008EE190E09093A6000E
:1013A0008093A50087E00E947B02873009F0E2CCA1
:1013B0001092AA001092A90088E290E09093A600F3
:1013C0008093A500D7CC88E290E00E94E3048CE3F0
:1013D00090E00E94880140E06CEE7FEF8CE390E0AB
:1013E0000E94000189E290E09093A6008093A500FE
:1013F0001092AA001092A900BDCC89E290E00E9450
:10140000E3048091A9009091AA00CD9708F4B2CC92
:101410008AE290E09093A6008093A500ABCC8AE28C
:1014200090E00E94E30487E70E947B02823009F08B
:10143000A1CCD093A600C093A5001092AA00109250
:10144000A90060E080E00E947D0194CC8EE190E0F4
:101450000E94E30484EC9FEF0E94880140E06CE36B
:1014600070E08CEE9FEF0E9400018FE190E090937E
:10147000A6008093A5001092AA001092A9007ACC31
:101480008091A9009091AA00CD9708F473CC80E2D6
:1014900090E09093A6008093A5006CCC80E290E051
:1014A0000E94E30487E70E947B02803609F062CC49
:1014B000D093A600C093A5001092AA001092A90094
:1014C00060E080E00E947D0155CC83E390E00E94C3
:1014D000E3048091A9009091AA00892BD1F382E0C6
:1014E0000E94C205892B51F01092AA001092A90007
:1014F00084E190E09093A6008093A5008091A900DC
:101500009091AA00C39708F435CC84E390E09093BF
:10151000A6008093A50084E00E948B051092A8008D
:101520001092A70027CC84E390E00E94E30461E0DE
:1015300081E00E947D0161E08CE390E00E94DD0586
:101540008091A7009091A8008D3891050CF412CCE1
:1015500085E390E09093A6008093A50060E080E092
:101560000E947D0107CC85E390E00E94E30486E2BF
:1015700090E00E94880141E06FE070E08FE090E031
:101580000E94000181E00E947B02813009F0F2CBD1
:10159000CE010E94880186E390E09093A60080939C
:1015A000A500E8CB86E390E00E94E30441E064E11B
:1015B00070E084E190E00E94000188E00E947B02DC
:1015C000883009F0D7CB8CEE9FEF0E9488011092F3
:1015D000AA001092A9008091A9009091AA00892BDD
:1015E000D1F387E390E09093A6008093A500C2CB4F
:1015F00087E390E00E94E30482EE9FEF0E9488015F
:101600008091A9009091AA000597D0F3D093A600ED
:10161000C093A500AFCB8DE390E00E94E3048091DE
:10162000A9009091AA00892BD1F381E00E94C20504
:10163000892B51F01092AA001092A90084E190E049
:101640009093A6008093A5008091A9009091AA0094
:10165000C39708F48FCB84E00E948B058EE390E063
:101660009093A6008093A5001092A8001092A70066
:1016700081CB8EE390E00E94E30461E081E00E9470
:101680007D0161E08CE390E00E94DD058091A70080
:101690009091A8008D3891050CF46CCB8FE390E00D
:1016A0009093A6008093A50060E080E00E947D01F9
:1016B00061CB8FE390E00E94E3048AED9FEF0E94EC
:1016C000880141E06FE070E08FE090E00E9400014F
:1016D00080E40E947B02803409F04CCB86EF9FEFC0
:1016E0000E94880180E490E09093A6008093A5007A
:1016F00041CB80E490E00E94E30441E064E170E0CB
:1017000084E190E00E94000188E00E947B02883022
:1017100009F030CB84E190E00E9488011092AA0089
:101720001092A9008091A9009091AA00892BD1F371
:1017300081E490E09093A6008093A5001BCB81E408
:1017400090E00E94E3048EE190E00E948801809185
:10175000A9009091AA000597D0F3D093A600C0935A
:10176000A50008CB80E090E00E94E30481E00E94A5
:101770008B05FFCF0E949C0082ED94E00E94E30461
:1017800084E690E00E94EB0440E060E070E080E0DE
:1017900090E00E9400010E94B70280E090E00E9469
:1017A0008801C0E0D0E000E810E0FF24F3940E943C
:1017B0009701882309F474C00E94FC00877081306F
:1017C00059F030F0823061F1833009F449C0EFCF35
:1017D0008FE70E947B02EBCF80E00E94D200811154
:1017E000219681E00E94D20081112197C770DD27E8
:1017F0008C2F0E949E010E94E304C8010C2E02C09F
:10180000959587950A94E2F70E94E8048FE799EA94
:1018100023E0815090402040E1F700C00000C7CF96
:1018200082E00E94D20081110E948C0280E00E941E
:10183000D2008111219681E00E94D200811121976E
:10184000C770DD278C2F0E94AE020E94E3048F2D0B
:101850000C2E01C0880F0A94EAF70E94E804A7CF73
:101860000E94B7020E94CA02EC0182E00E94D200EC
:10187000882321F0CE010E94C00299CF80E00E940F
:10188000D2008111219681E00E94D200811121971E
:10189000CE010E94E30480E090E00E948801E5CF41
:1018A00081E00E94D200882339F082E00E948B05FB
:1018B0000E94A6010E94880680E00E94D200882330
:1018C00009F475CF0E948C020E9488061F920F9225
:1018D0000FB60F9211242F933F934F935F936F9303
:1018E0007F938F939F93AF93BF93EF93FF9384E482
:1018F00082BF8091A9009091AA0001969093AA00BE
:101900008093A9000E949A05FF91EF91BF91AF913A
:101910009F918F917F916F915F914F913F912F9107
:101920000F900FBE0F901F9018951F920F920FB639
:101930000F9211242F933F934F935F936F937F9355
:101940008F939F93AF93BF93EF93FF930E94CF0228
:101950008091A7009091A80001969093A800809391
:10196000A7000E94FC0080FF0DC08091A200909112
:10197000A3009C012F5F3F4F3093A3002093A20050
:101980000E94E304FF91EF91BF91AF919F918F91DE
:101990007F916F915F914F913F912F910F900FBE6B
:1019A0000F901F9018955058BB27AA270ED00DC135
:1019B000FED030F003D120F031F49F3F11F41EF43B
:1019C000F3C00EF4E095E7FBE9C0E92F0FD180F3F7
:1019D000BA17620773078407950718F071F49EF52C
:1019E00027C10EF4E0950B2EBA2FA02D0B01B901E3
:1019F00090010C01CA01A0011124FF27591B99F085
:101A0000593F50F4503E68F11A16F040A22F232F90
:101A1000342F4427585FF3CF469537952795A795E0
:101A2000F0405395C9F77EF41F16BA0B620B730B87
:101A3000840BBAF09150A1F0FF0FBB1F661F771FF8
:101A4000881FC2F70EC0BA0F621F731F841F48F4AD
:101A5000879577956795B795F7959E3F08F0B3CF33
:101A60009395880F08F09927EE0F9795879508951D
:101A700071D008F481E0089504D06894B111D9C000
:101A80000895BCD088F09F5790F0B92F9927B7518F
:101A9000A0F0D1F0660F771F881F991F1AF0BA9532
:101AA000C9F712C0B13081F0C3D0B1E00895C0C011
:101AB000672F782F8827B85F39F0B93FCCF3869528
:101AC00077956795B395D9F73EF490958095709585
:101AD00061957F4F8F4F9F4F0895E89409C097FB02
:101AE0003EF490958095709561957F4F8F4F9F4FF5
:101AF0009923A9F0F92F96E9BB279395F695879539
:101B000077956795B795F111F8CFFAF4BB0F11F4FB
:101B100060FF1BC06F5F7F4F8F4F9F4F16C08823A2
:101B200011F096E911C0772321F09EE8872F762FD8
:101B300005C0662371F096E8862F70E060E02AF019
:101B40009A95660F771F881FDAF7880F9695879505
:101B500097F90895990F0008550FAA0BE0E8FEEFDA
:101B600016161706E807F907C0F012161306E40761
:101B7000F50798F0621B730B840B950B39F40A265A
:101B800061F0232B242B252B21F408950A2609F438
:101B9000A140A6958FEF811D811D089597F99F673C
:101BA00080E870E060E008959FEF80EC08950024E5
:101BB0000A941616170618060906089500240A94B2
:101BC00012161306140605060895092E0394000C38
:101BD00011F4882352F0BB0F40F4BF2B11F460FFC7
:101BE00004C06F5F7F4F8F4F9F4F089557FD9058F0
:101BF000440F551F59F05F3F71F04795880F97FBD1
:101C0000991F61F09F3F79F087950895121613068A
:101C10001406551FF2CF4695F1DF08C016161706B9
:101C20001806991FF1CF86957105610508940895EE
:101C3000E894BB2766277727CB0197F908958ADFB9
:101C400008F48FEF08950BD0C0CFB1DF28F0B6DFD6
:101C500018F0952309F0A2CFA7CF1124EACFC6DF51
:101C6000A0F3959FD1F3950F50E0551F629FF001AF
:101C7000729FBB27F00DB11D639FAA27F00DB11D08
:101C8000AA1F649F6627B00DA11D661F829F222791
:101C9000B00DA11D621F739FB00DA11D621F839F18
:101CA000A00D611D221F749F3327A00D611D231FEE
:101CB000849F600D211D822F762F6A2F11249F573C
:101CC00050408AF0E1F088234AF0EE0FFF1FBB1F5F
:101CD000661F771F881F91505040A9F79E3F5105FE
:101CE00070F05CCFA6CF5F3FECF3983EDCF38695B7
:101CF00077956795B795F795E7959F5FC1F7FE2BA9
:101D0000880F911D9695879597F9089597FB072E53
:101D100016F4009407D077FD09D00E94A00E07FCAE
:101D200005D03EF4909581959F4F089570956195EB
:101D30007F4F0895EE0FFF1F0590F491E02D099459
:101D4000AA1BBB1B51E107C0AA1FBB1FA617B707E1
:101D500010F0A61BB70B881F991F5A95A9F78095FD
:101D60009095BC01CD010895A8E1B0E042E050E0BB
:101D70000C94C10E0E94CF0E272F0C94D00EDC01C4
:101D8000CB01FC01E199FECF06C0FFBBEEBBE09AA0
:101D900031960DB20D9241505040B8F70895262F5C
:101DA000E199FECF9FBB8EBB2DBB0FB6F894E29A94
:0C1DB000E19A0FBE01960895F894FFCF51
:101DBC002E09FFFFFFFF0D00120014001E0028006B
:101DCC002D003200F6FFFBFF12001E001E002D003E
:081DDC002D002B002D00230057
:00000001FF
