S01000006263725F323031352E73726563B6
S11300000C942A000C9447000C9447000C9447006D
S11300100C9447000C9447000C9447000C94470040
S11300200C9447000C94AA010C9447000C942A01E8
S11300300C9456010C9447000C9447000C94470010
S11300400C9447000C9447000C9447000C94470010
S11300500C94470011241FBECFE5D4E0DEBFCDBF12
S113006010E0A0E6B0E0E8E1F6E002C005900D92F1
S1130070A837B107D9F721E0A8E7B0E001C01D9285
S1130080A73DB207E1F70E949E010C940A030C9469
S1130090000086E290E00E947A0186E690E0909368
S11300A0D4018093D30182E090E00E94E301909315
S11300B0C8018093C70181E090E00E94E30190931E
S11300C0CC018093CB011092CA011092C90108950A
S11300D083E083BF89B7816089BF089582EA8FBDB9
S11300E08AE18EBD84EE97E597BD86BD80ED97E0ED
S11300F099BD88BD08958EE685BD84E683BD0895C7
S1130100F894BF9AC79AB898C09AB998C19ABA98FD
S1130110C29AA398AB9AA298AA9AA198A99AA098CD
S1130120A89ABC9ABE9AC69A8C9ABB9ABD9AC59A4A
S11301308F9AA49AAC9A0E9468000E946E000E9452
S11301407B000E94490078940895809176009091F4
S11301507700892B39F48FEF9FEF9093770080938A
S1130160760008958091760090917700019790939E
S113017077008093760008958091740090917500C3
S1130180892B39F48FEF9FEF90937500809374005F
S11301900895809174009091750001979093750073
S11301A0809374000895823069F08330A1F0813027
S11301B0D9F485E090E090937500809374008FEFFC
S11301C09FEF08958AE090E0909375008093740007
S11301D08FEF9FEF089585E090E0909375008093F2
S11301E0740088EE93E008958FEF9FEF0895CF9306
S11301F0C0917A00CC2361F1C13041F50E94A50081
S11302008091760090917700892B29F4C79A1092F7
S11302107900C0E01BC00E94BC00809174009091E2
S11302207500892B99F48091790090E0009731F062
S1130230019741F410927900C79A04C081E0809339
S11302407900C798809178000E94D300C0937A0007
S1130250CF9108951F920F920FB60F9211242F93EE
S11302608F939F93EF93FF938BB12CB18871E0919F
S11302707D00EF5FEF7390917C00E91739F0E09314
S11302807D00F0E0E058FF4F208301C082E09091B0
S11302907B00892B80937B00FF91EF919F918F913D
S11302A02F910F900FBE0F901F9018951F920F92D1
S11302B00FB60F9211248F939F93EF93FF93909116
S11302C07F0080917E00981759F0E0917E00EF5FE7
S11302D0E0937E00F0E0E054FF4F80818CB901C0D0
S11302E05598FF91EF919F918F910F900FBE0F90B2
S11302F01F90189510927F0010927E0010927D003E
S113030010927C0099231CF422E02BB99F7790BDB6
S113031089B988E98AB986E880BD089520917F006B
S11303202F5F90917E002917E1F3E22FF0E0E05473
S1130330FF4F808320937F00559A08950E94800088
S11303402FEF83ED90E3215080409040E1F700C00F
S11303500000F6CF1F920F920FB60F9211242F9325
S11303603F934F935F936F937F938F939F93AF9339
S1130370BF93EF93FF9384E482BF8091C001909177
S1130380C10101969093C1018093C0018091C00185
S11303909091C1010A9731F41092C1011092C001E9
S11303A00E94F700FF91EF91BF91AF919F918F91C0
S11303B07F916F915F914F913F912F910F900FBE5D
S11303C00F901F901895CF93DF938230910510F40E
S11303D082E090E0E091CF01F091D00120E030E0A4
S11303E0A0E0B0E0309739F14081518148175907B6
S11303F0B8F04817590771F482819381109729F056
S113040013969C938E9312972CC09093D001809353
S1130410CF0127C02115310531F04217530718F0D9
S1130420A901DB0101C0EF019A01BD01DF010280D6
S1130430F381E02DD7CF21153105F9F0281B390BB5
S11304402430310580F48A819B816115710521F086
S1130450FB019383828304C09093D0018093CF01E6
S1130460FE01329644C0FE01E20FF31F8193919383
S113047022503109398328833AC02091CD0130912B
S1130480CE01232B41F4209162003091630030931C
S1130490CE012093CD01209160003091610021159F
S11304A0310541F42DB73EB7409164005091650089
S11304B0241B350BE091CD01F091CE01E217F30737
S11304C0A0F42E1B3F0B2817390778F0AC014E5FC0
S11304D05F4F2417350748F04E0F5F1F5093CE012E
S11304E04093CD018193919302C0E0E0F0E0CF010D
S11304F0DF91CF910895CF93DF93009709F487C0DC
S1130500FC01329713821282C091CF01D091D001A5
S1130510209781F420813181280F391F8091CD01EA
S11305209091CE018217930779F5F093CE01E09371
S1130530CD016DC0DE0120E030E0AE17BF0750F4FE
S113054012964D915C9113979D014115510509F146
S1130550DA01F3CFB383A28340815181840F951FC5
S11305608A179B0771F48D919C911197840F951FA5
S113057002969183808312968D919C911397938315
S113058082832115310529F4F093D001E093CF0142
S11305903EC0D9011396FC93EE9312974D915D9151
S11305A0A40FB51FEA17FB0779F480819181840FAA
S11305B0951F0296D90111969C938E938281938103
S11305C013969C938E931297E0E0F0E08A819B81CE
S11305D0009719F0FE01EC01F9CFCE0102962881B3
S11305E03981820F931F2091CD013091CE012817BC
S11305F0390769F4309729F41092D0011092CF0191
S113060002C013821282D093CE01C093CD01DF9138
S10B0610CF910895F894FFCF87
S11306180000D701200000000002000000008E0145
S10B062800000000FFFFFFFFCA
S9030000FC
