S01000006263725F323031352E73726563B6
S11300000C9461000C947E000C947E000C947E0091
S11300100C947E000C947E000C947E000C947E0064
S11300200C947E000C94AC070C947E000C94330565
S11300300C945F050C947E000C947E000C947E005E
S11300400C947E000C947E000C947E000C947E0034
S11300500C947E001D067006C8063707370737075D
S113006037073707370737073707140614063707E4
S113007037073707370737073707370737071406B0
S1130080370737073707370737073707370737077C
S11300903707140637073707370737073707370790
S11300A037073707370714061406140614063707EC
S11300B037073707370737073707140614061406B8
S11300C0140611241FBECFE5D4E0DEBFCDBF10E07F
S11300D0A0E6B0E0E0EFF4E102C005900D92AA388A
S11300E0B107D9F722E0AAE8B0E001C01D92A83117
S11300F0B207E1F70E943C070C94760A0C940000C6
S113010086E290E00E94830562E070E080E490E083
S11301100E9404099093DF018093DE0161E070E0A6
S113012080E490E00E9404099093E3018093E2014B
S11301301092E1011092E0010895CF93DF930E94A1
S1130140970590FD67C08E33910539F41092E10153
S11301501092E00110928C005DC08C33910509F07F
S113016042C0E091DE01F091DF0180818093D901EA
S11301708281EAEDF1E0808380818823C9F020E068
S1130180EF01822F90E0E091E201F091E301E80FAA
S1130190F91F0296880F991FA091DE01B091DF012B
S11301A0A80FB91F8C9180832F5F8881281748F38B
S11301B08091E2019091E3019093DC018093DB0153
S11301C0E091DA01F0E03296EE0FFF1F8091DE013C
S11301D09091DF01E80FF91F80818093DD0181E0B8
S11301E080938C0017C010928C00E091DE01F09196
S11301F0DF012091E0013091E101A9014F5F5F4FE0
S11302005093E1014093E001220F331FE20FF31FEB
S11302109183808380E0DF91CF91089580918C0059
S1130220882321F08091DD0181E0089580E0089524
S11302308091D90108958093D9010895CF93DF93D4
S11302402091DA012223B1F0E82FF92F80E090E029
S11302504BED51E06AED71E0EA01A881B981A80F84
S1130260B91F2C9121930196DB012C9130E0821768
S1130270930794F3DF91CF910895CF93DF9300D048
S113028000D01F92CDB7DEB749835A836B837C833A
S11302908D83652F70E09B01240F311DC901161653
S11302A0170664F4EB81FC8120E030E04191840F77
S11302B0911D2F5F3F4F26173707C4F380950F908A
S11302C00F900F900F900F90DF91CF910895CF92E0
S11302D0DF92EF92FF920F931F93CF93DF9300D09F
S11302E000D01F92CDB7DEB74983E52E5A836B83C6
S11302F07C838D8361E070E080E490E00E940409D7
S11303008C018EE3F801808389818183E282F12C60
S11303101E141F0464F4AB81BC81339620E030E0EA
S11303208D9181932F5F3F4F2E153F05CCF36701CD
S1130330F3E0CF0ED11CC00ED11E49815A816B81CE
S11303407C818D810E943D01F6018083F801EE0DD0
S1130350FF1D8CE38483C70105967C01D12CF80131
S1130360ED0DF11D80810E94B005D3942D2D30E058
S11303702E153F05A4F3C8010E94B8090F900F90F1
S11303800F900F900F90DF91CF911F910F91FF90DD
S1130390EF90DF90CF9008950F931F93CF93DF9347
S11303A0CDB7DEB727970FB6F894DEBF0FBECDBF2B
S11303B08C0180918A0090918B000817190729F10C
S11303C098013695279536952795ABE7B4E10E94B9
S11303D0F508969587958E8344E6489F9001499F3A
S11303E0300D1124C801821B930B8F83CE01069616
S11303F0682F9C838B8340E052E07C818D810E9436
S1130400670110938B0000938A0027960FB6F89427
S1130410DEBF0FBECDBFDF91CF911F910F91089525
S1130420CF93DF93CDB7DEB727970FB6F894DEBF2F
S11304300FBECDBFAC01403187E2580710F04FE04A
S113044057E29A013695279536952795ABE7B4E19F
S11304500E94F50896958795898364E6689F9001C4
S1130460699F300D1124421B530B4A83CE01019620
S1130470682F9E838D8341E052E07E818F810E94AC
S1130480670127960FB6F894DEBF0FBECDBFDF918C
S1130490CF910895CF93DF9300D000D000D0CDB793
S11304A0DEB71982CE010196682F9D838C8342E0CA
S11304B051E07D818E810E94670180E090E0269664
S11304C00FB6F894DEBF0FBECDBFDF91CF91089574
S11304D083E083BF89B7816089BF089582EA8FBDB5
S11304E08AE18EBD84EE97E597BD86BD8EE299E0E4
S11304F09BBD8ABD19BC18BC0895F894BF9AC79ACD
S1130500B898C09AB998C19ABA98C29AA398AB9A63
S1130510A298AA9AA198A99AA098A89AA698AE9ADD
S1130520BC9AC498BE9AC69A8C9ABB9AC398BD9A30
S1130530C59A8F9A8D9AA49AAC9AA798A7981ABA32
S113054085E886B980E487B90E9468020E946E0239
S11305508EE685BD0E9480007894089521E030E005
S1130560A90102C0440F551F8A95E2F7CA01242F3E
S113057036B334233417D1F0EFE2F5E73197F1F7CE
S113058000C0000096B38923841791F08FE295E7A9
S11305900197F1F700C0000086B382238213FCCFD9
S11305A08EE190E00E94100281E0089580E00895B9
S11305B080E0089583B380958F700895CF93DF937F
S11305C0EB019923CCF0C49ABC01882777FD809570
S11305D0982F0E9400082AE037ED43E25CE30E9472
S11305E0640820E036EC4FEA56E40E9464080E9456
S11305F0D20779BD68BD1BC0C498919581959109B6
S1130600BC01882777FD8095982F0E9400082AE076
S113061037ED43E25CE30E94640820E036EC4FEAE5
S113062056E40E9464080E94D20779BD68BDDD23A8
S1130630C4F0C398BE01882777FD8095982F0E9447
S113064000082AE037ED43E25CE30E94640820E0FE
S113065030E04EE753E40E9464080E94D20763BD71
S11306601AC0C39A662777276C1B7D0B882777FDF2
S11306708095982F0E9400082AE037ED43E25CE35E
S11306800E94640820E030E04EE753E40E946408CE
S11306900E94D20763BDDF91CF910895880F991FFF
S11306A0880F991F880F991F825D964F9BBD8ABD45
S11306B0089583B386FB882780F991E089270895FC
S11306C0806487B9369A349BFECF84B195B108957E
S11306D06F927F928F929F92AF92BF92CF92DF924E
S11306E0EF92FF920F931F93CF93DF930F2EF4EEAD
S11306F0CF2EF1E0DF2EF02D0F2EF4E0EF2EF2E0FE
S1130700FF2EF02D612C83E690E00E94CC019C2CFE
S1130710AD2CBE2C7F2C8701E601862C882D0E94EF
S1130720600328EC2A95F1F72881398121153105D8
S113073019F49983888305C02817390710F499831D
S11307408883F801208131812115310519F49183C1
S1130750808305C08217930710F491838083839468
S113076022960E5F1F4F87E08812D8CF82E00E9446
S1130770AE02882341F282E490E00E94CC0184E638
S113078090E00E9410029FE7A9EAB3E09150A040D4
S1130790B040E1F700C0000084E690E00E9410023F
S11307A084E690E0909303028093020264E670E092
S11307B08EE090E00E94540A04EF11E00F2EF0E066
S11307C0CF2EF0E0DF2EF02D0F2EF2E1EF2EF2E02F
S11307D0FF2EF02DC92DDA2D8B2C972CF40181914D
S11307E091914F0169917991680F791F7695679579
S11307F0D8016D937D938D01C6010E94540AB2E025
S1130800CB0ED11C8E149F0449F7DF91CF911F9119
S11308100F91FF90EF90DF90CF90BF90AF909F909B
S11308208F907F906F900895CF92DF92EF92FF9216
S11308300F931F93CF93DF9304EF11E0C6E0D0E052
S1130840D12C0F2EF6E0CF2EF02DEE24E394F12CD4
S11308508C2D8C1B0E946003F801219131918F0132
S11308602817390748F097010C2E02C0220F331FB6
S11308700A94E2F7D22A09C097010C2E02C0220F73
S1130880331F0A94E2F72095D222219708F78D2D81
S11308908F77DF91CF911F910F91FF90EF90DF90B1
S11308A0CF900895CF93C82F0E9414048C23CF9126
S11308B0089587E00E94600321E08436910508F0E2
S11308C020E0822F0895EF92FF920F931F93CF930E
S11308D0DF93C0E0D0E004EF11E00F2EF0E1EF2E43
S11308E0F0E0FF2EF02DCE010E944E0AF801819314
S11308F091938F012296CE15DF05A9F7DF91CF9151
S11309001F910F91FF90EF9008958091680090914E
S11309106900892B31F080916800909169000196FB
S113092039F48FEF9FEF90936900809368000895E6
S11309308091680090916900019790936900809379
S1130940680008958091660090916700892B31F0CA
S11309508091660090916700019639F48FEF9FEFC4
S1130960909367008093660008958091660090914B
S11309706700019790936700809366000895823022
S113098091F018F4813031F029C08330F1F08430D3
S113099099F024C085E090E090936700809366000E
S11309A08FEF9FEF08958AE090E090936700809323
S11309B066008FEF9FEF089585E090E090936700C5
S11309C08093660084E690E0089585E090E090933B
S11309D067008093660082E390E008958FEF9FEFB5
S11309E00895CF93C0918F00CC2361F1C13041F5BC
S11309F00E9485048091680090916900892B29F4F4
S1130A00C79A10928E00C0E01BC00E94A20480917D
S1130A10660090916700892B99F480918E0090E094
S1130A20009731F0019741F410928E00C79A04C0E8
S1130A3081E080938E00C79880918D000E94BF044E
S1130A40C0938F00CF910895CF93C82F0E94BF0405
S1130A50909369008093680081E080938F00C09335
S1130A608D00CF9108951F920F920FB60F9211240B
S1130A702F938F939F93EF93FF938BB12CB1887136
S1130A80E0919200EF5FEF7390919100E91739F0D4
S1130A90E0939200F0E0EB56FF4F208301C082E028
S1130AA090919000892B80939000FF91EF919F91FA
S1130AB08F912F910F900FBE0F901F9018951F923A
S1130AC00F920FB60F9211248F939F93EF93FF937E
S1130AD09091940080919300981759F0E0919300BD
S1130AE0EF5FE0939300F0E0EB52FF4F80818CB90D
S1130AF001C05598FF91EF919F918F910F900FBE78
S1130B000F901F90189510929400109293001092D9
S1130B1092001092910099231CF422E02BB99F7744
S1130B2090BD89B988E98AB986E880BD0895909115
S1130B30920080919100981781F0E0919100EF5F0D
S1130B40EF73E0939100F0E0EB56FF4F80819091BA
S1130B5090001092900090E0089580E091E0089554
S1130B60209194002F5F909193002917E1F3E22FD5
S1130B70F0E0EB52FF4F808320939400559A089540
S1130B808091D7019091D80101969093D8018093D8
S1130B90D7018091D7019091D8010A9741F40E941E
S1130BA04A020E94F1041092D8011092D7010895CC
S1130BB08FE097E20E94CC018AE090E09093D60106
S1130BC08093D5010F2EF0E72F2EF0E03F2EF02D6D
S1130BD00F2EF8EFAF2EBB24BA94F02D0F2EFCE0AD
S1130BE0EF2EF12CF02D0F2EF7EF8F2E99249A94DF
S1130BF0F02D0F2EFAEF6F2E77247A94F02D0F2E0E
S1130C00F9EF4F2E55245A94F02D0F2EF6EFCF2ED8
S1130C10DD24DA94F02D0BE010E0CAE6D0E08091F8
S1130C20D5019091D6010A978733910508F01FC129
S1130C30FC01E65DFF4F0C94EF0887E70E94520425
S1130C40843099F0803101F1811130C080E090E06E
S1130C500E944E036091760070917700809180002D
S1130C60909181000E94DE0227C0888199810E94B0
S1130C704E0360917800709179008091800090918A
S1130C8081000E94DE0218C0888199819195819526
S1130C9091090E944E0360917600709177008091D3
S1130CA08200909183000E94DE0206C060E070E042
S1130CB080E090E00E94DE0282E00E9452048230D2
S1130CC021F41093D6010093D50180E20E945204CE
S1130CD0803209F0A4CFF092D601E092D5019FCFE3
S1130CE084E60E945204803221F128F4882369F1B9
S1130CF08430C1F148C0803419F0803669F043C0B3
S1130D00E4E7F0E0808191810E944E03B6018EE118
S1130D1090E00E94DE0283CFE2E7F0E080819181DF
S1130D200E944E0360E070E08EE190E00E94DE02DB
S1130D3076CFF101808191810E944E036AE070E0D8
S1130D408BE190E00E94DE026ACFEEE6F0E0808163
S1130D5091810E944E0364E170E089E190E00E9479
S1130D60DE025DCF888199810E944E0369E170E0C3
S1130D708EE190E00E94DE028AE090E09093D6013A
S1130D808093D5014CCF1093D6010093D50147CF62
S1130D9083E10E945204823069F128F48823D1F15E
S1130DA0813039F05FC08330A1F0803109F443C051
S1130DB059C0E4E7F0E0808191819601281B390B4A
S1130DC0C9010E944E036EE170E0C6010E94DE027A
S1130DD026CFE2E7F0E0808191819401281B390B52
S1130DE0C9010E944E036EE170E080E090E00E9431
S1130DF0DE0215CFF101808191819501281B390B09
S1130E00C9010E944E036BE170E08AE090E00E9409
S1130E10DE0205CFEEE6F0E0808191819201281B8D
S1130E20390BC9010E944E0369E170E084E190E04E
S1130E300E94DE02F4CEECE6F0E080819181930121
S1130E40281B390BC9010E944E036EE170E089E151
S1130E5090E00E94DE028AE090E09093D6018093B5
S1130E60D501DDCEF092D601E092D501D8CE109214
S1130E70D6011092D501D3CE61E070E080E490E019
S1130E800E940409EC010E947D022FEF8EE994E296
S1130E90215080409040E1F700C0000082ED94E0D2
S1130EA00E94CC0184E690E00E94100260E070E0B1
S1130EB080E090E00E94DE0280E090E00E944E0319
S1130EC00E9459038823A9F10E94DA0290E00E944B
S1130ED0CC010E949D000E940E018823D1F00E9443
S1130EE018018230B1F483E00E941B01CE010E94FC
S1130EF01E018881813031F4898190E088519C4FB2
S1130F000E94CC018881811104C0898190E00E94F3
S1130F10CC0180E00E94AE02882319F084E00E9494
S1130F2024050E945904882359F284E00E94240570
S1130F30C7CF81E00E94AE02882321F00E9468039B
S1130F400E94D80580E00E94AE02882309F4B8CF3D
S1130F500E9463040E94D8051F920F920FB60F924D
S1130F6011242F933F934F935F936F937F938F93AA
S1130F709F93AF93BF93EF93FF9384E482BF0E9448
S1130F80C005FF91EF91BF91AF919F918F917F9198
S1130F906F915F914F913F912F910F900FBE0F90E2
S1130FA01F90189570D088F09F5790F0B92F99270B
S1130FB0B751A0F0D1F0660F771F881F991F1AF060
S1130FC0BA95C9F712C0B13081F077D0B1E0089575
S1130FD074C0672F782F8827B85F39F0B93FCCF3F6
S1130FE0869577956795B395D9F73EF49095809556
S1130FF0709561957F4F8F4F9F4F0895E89409C076
S113100097FB3EF490958095709561957F4F8F4F37
S11310109F4F9923A9F0F92F96E9BB279395F6954D
S1131020879577956795B795F111F8CFFAF4BB0FCB
S113103011F460FF1BC06F5F7F4F8F4F9F4F16C02F
S1131040882311F096E911C0772321F09EE8872FB9
S1131050762F05C0662371F096E8862F70E060E075
S11310602AF09A95660F771F881FDAF7880F9695EE
S1131070879597F9089557FD9058440F551F59F0D7
S11310805F3F71F04795880F97FB991F61F09F3F71
S113109079F087950895121613061406551FF2CF9A
S11310A04695F1DF08C0161617061806991FF1CFEA
S11310B086957105610508940895E894BB27662711
S11310C07727CB0197F908950BD078C069D028F021
S11310D06ED018F0952309F05AC05FC01124EECFEA
S11310E0CADFA0F3959FD1F3950F50E0551F629F7F
S11310F0F001729FBB27F00DB11D639FAA27F00D6D
S1131100B11DAA1F649F6627B00DA11D661F829F93
S11311102227B00DA11D621F739FB00DA11D621F78
S1131120839FA00D611D221F749F3327A00D611D95
S1131130231F849F600D211D822F762F6A2F112477
S11311409F5750408AF0E1F088234AF0EE0FFF1FCA
S1131150BB1F661F771F881F91505040A9F79E3F01
S1131160510570F014C0AACF5F3FECF3983EDCF356
S1131170869577956795B795F795E7959F5FC1F73E
S1131180FE2B880F911D9695879597F9089597F9E9
S11311909F6780E870E060E008959FEF80EC089519
S11311A000240A9416161706180609060895002442
S11311B00A9412161306140605060895092E0394BC
S11311C0000C11F4882352F0BB0F40F4BF2B11F430
S11311D060FF04C06F5F7F4F8F4F9F4F0895EE0FE6
S11311E0FF1F0590F491E02D0994A29FB001B39FD5
S11311F0C001A39F700D811D1124911DB29F700D1C
S1131200811D1124911D08950F931F93CF93DF9394
S1131210869F8001879F100D969F100D1124C80191
S11312200E942009EC01009729F0A80160E070E019
S11312300E94470ACE01DF91CF911F910F9108952B
S1131240CF93DF938230910510F482E090E0E09137
S11312501602F091170220E030E0A0E0B0E03097F1
S113126039F14081518148175907B8F04817590797
S113127071F482819381109729F013969C938E9335
S113128012972CC0909317028093160227C0211541
S1131290310531F04217530718F0A901DB0101C0F1
S11312A0EF019A01BD01DF010280F381E02DD7CF68
S11312B021153105F9F0281B390B2430310580F450
S11312C08A819B816115710521F0FB0193838283DF
S11312D004C09093170280931602FE01329644C014
S11312E0FE01E20FF31F8193919322503109398358
S11312F028833AC02091140230911502232B41F423
S113130020916200309163003093150220931402FF
S113131020916000309161002115310541F42DB711
S11313203EB74091640050916500241B350BE09159
S11313301402F0911502E217F307A0F42E1B3F0BE1
S11313402817390778F0AC014E5F5F4F2417350733
S113135048F04E0F5F1F509315024093140281937F
S1131360919302C0E0E0F0E0CF01DF91CF910895C6
S1131370CF93DF93009709F487C0FC01329713825F
S11313801282C0911602D0911702209781F4208115
S11313903181280F391F8091140290911502821710
S11313A0930779F5F0931502E09314026DC0DE0102
S11313B020E030E0AE17BF0750F412964D915C91D7
S11313C013979D014115510509F1DA01F3CFB38358
S11313D0A28340815181840F951F8A179B0771F462
S11313E08D919C911197840F951F02969183808310
S11313F012968D919C9113979383828321153105C5
S113140029F4F0931702E09316023EC0D901139613
S1131410FC93EE9312974D915D91A40FB51FEA17BB
S1131420FB0779F480819181840F951F0296D9017D
S113143011969C938E938281938113969C938E93A1
S11314401297E0E0F0E08A819B81009719F0FE0199
S1131450EC01F9CFCE01029628813981820F931FC6
S113146020911402309115022817390769F4309736
S113147029F4109217021092160202C013821282EB
S1131480D0931502C0931402DF91CF910895DC012B
S113149001C06D9341505040E0F70895A8E1B0E0D9
S11314A042E050E00C945B0A0E94690A272F0C94D6
S11314B06A0ADC01CB01FC01E199FECF06C0FFBB47
S11314C0EEBBE09A31960DB20D9241505040B8F700
S11314D00895262FE199FECF9FBB8EBB2DBB0FB67F
S11314E0F894E29AE19A0FBE01960895F894FFCF1A
S11314F0000018022000FFFFFFFF0F0019001E006C
S11315002D0032003700230014000F0000000000FB
S10D1510230014000F000000000087
S9030000FC
