:1000000012C02CC02BC02AC029C028C027C026C0BF
:1000100025C06FC323C0F0C21BC320C01FC01EC0B9
:100020001DC01CC01BC011241FBECFE5D4E0DEBF25
:10003000CDBF21E0A6E6B0E001C01D92A43CB2070E
:10004000E1F710E0A0E6B0E0E0ECFAE002C00590D5
:100050000D92A636B107D9F7A7D330C5D1CF11B8C5
:1000600088E480B9089594EA96BF4FEF50E060E0CD
:1000700070E006B607FC06C04150510961097109DC
:10008000C0F706C0452B462B472B11F481E008959D
:1000900091B1987F983011F09031C1F783B984E81D
:1000A00086BF8FEF90E0A0E0B0E006B607FC05C089
:1000B0000197A109B109C8F704C0892B8A2B8B2BA2
:1000C00029F381B1887F883111F08034F9F680E01E
:1000D000089584E986BF80E090E006B604FE05C07E
:1000E0000196811521E09207C1F7089583B984E84C
:1000F00086BF8FEF90E0A0E0B0E006B607FC05C039
:100100000197A109B109C8F704C0892B8A2B8B2B51
:1001100039F091B1987F81E0983219F480E0089528
:1001200081E0089584EC86BF8FEF90E0A0E0B0E01E
:1001300006B607FC05C00197A109B109C8F704C0BC
:10014000892B8A2B8B2B11F083B1089580E00895C1
:1001500084E886BF8FEF90E0A0E0B0E006B607FC31
:1001600005C00197A109B109C8F704C0892B8A2BE2
:100170008B2B11F083B1089580E00895AF92BF9268
:10018000DF92EF92FF920F931F93CF93DF9300D0F4
:10019000CDB7DEB7182FD62E662341F180ED498307
:1001A0005A8361DF812FA2DF88E28A95F1F781ED22
:1001B0005ADF4981A42E5A81B52E00E010E0ED2CC3
:1001C000F12CE1E0EE1AF1080D1570F40E151F0583
:1001D00011F4BEDF01C0A6DFF50180830F5F1F4F62
:1001E000FFEFAF1ABF0AF0CF74DF01C0D12C8D2D05
:1001F0000F900F90DF91CF911F910F91FF90EF9093
:10020000DF90BF90AF900895AB0161E0B7CFEF9260
:10021000FF920F931F93CF93DF9300D0CDB7DEB73C
:10022000082F162F6623E9F080ED49835A831BDFE0
:10023000802F5CDF4981042FE42E5A81F52E8E2D0C
:10024000801B811728F4F70181917F014FDFF7CFE1
:100250000F900F90DF91CF911F910F91FF90EF9032
:1002600038CF0F900F90DF91CF911F910F91FF909A
:10027000EF900895CF93DF931F92CDB7DEB76983D8
:10028000AE014F5F5F4F61E0C2DF0F90DF91CF9112
:1002900008950F931F93CF93DF9300D01F92CDB794
:1002A000DEB7182F062F1982BE016F5F7F4F2B8399
:1002B0004A83AADF2B814A81882301F1602F70E0F5
:1002C000641B71096F5F7F4FE1E0F0E002C0EE0F49
:1002D000FF1F4A95E2F73197062E01C0EE0F0A94F0
:1002E000EAF701C0220F6A95EAF76E2F60958981BF
:1002F0006823E2236E2B6983812FBCDF0F900F9060
:100300000F90DF91CF911F910F9108950F931F933D
:10031000CF93DF9300D0CDB7DEB7182F062FBE01E5
:100320006F5F7F4F4A8370DF89814A8121E030E02F
:10033000002E01C0220F0A94EAF7442319F0682F17
:10034000622B03C0622F609568236983812F92DF3F
:100350000F900F90DF91CF911F910F91089540E082
:1003600066E08BE6D3CF7BDE28E22A95F1F78FE7B4
:1003700099EA23E0815090402040E1F700C000005E
:10038000EEDF8FE295E70197F1F700C0000021E072
:1003900043E062E08BE67DDF23E043E062E08AE158
:1003A00078DF64E089E166DF23E042E064E08BE12E
:1003B00070DF20E042E064E08CE16BCF86E290E009
:1003C0006BD162E070E080E490E030D29093B601AF
:1003D0008093B50161E070E080E490E027D29093D3
:1003E000BA018093B9011092B8011092B701089533
:1003F000CF93DF9365D190FD57C08E33910539F4CB
:100400001092B8011092B701109266004DC0A091F1
:10041000B501B091B6018C33910599F58C9180931B
:10042000B00112968C918093B10120E03091B1011E
:10043000E091B501F091B6018091B9019091BA01B6
:10044000231770F4A22FB0E0EC01CA0FDB1F129645
:10045000AA0FBB1FAE0FBF1F3C9138832F5FE6CFA3
:100460009093B3018093B2018091B101E80FF11D27
:10047000E80FF11D84818093B40181E080936600D0
:1004800013C010926600E091B701F091B8019F018E
:100490002F5F3F4F3093B8012093B701EE0FFF1F3E
:1004A000EA0FFB1F9183808380E0DF91CF91089555
:1004B00080916600882321F08091B40181E0089545
:1004C00080E008958091B00108958093B00108956F
:1004D00020E030E04091B10150E0241735076CF482
:1004E000E091B201F091B301E20FF31F4081FC01F2
:1004F0004193CF012F5F3F4FEDCF089583E083BF3E
:1005000089B7816089BF0895F8948C9A949887B3CD
:10051000846387BB88B3846388BBF0DF4FDF23DF4E
:100520002FE789EA93E0215080409040E1F700C036
:100530000000789408959093680080936700089570
:10054000949A009741F0E7EBFBE03197F1F700C098
:1005500000000197F6CF94980895CF93DF932091F0
:10056000670030916800CAE0D0E0C901BE014AD1FD
:10057000482F4068E4E6F0E0C901BF0143D1BE0165
:1005800041D1C62FC064C90168EE73E03BD1262F6C
:10059000BF0138D16062822F8061C29A38E090E852
:1005A000C5982091BB01213059F038F0223059F024
:1005B000233089F4292F242308C0292F282305C09C
:1005C000292F262302C0292F2C23211102C0C498D1
:1005D00001C0C49A9695C59A315011F7C29880917E
:1005E000BB018F5F843019F08093BB0102C0109271
:1005F000BB01DF91CF9108951F920F920FB60F921A
:1006000011242F938F939F93EF93FF938BB19CB102
:100610008871E0916B00EF5FEF7320916A00E21741
:1006200039F0E0936B00F0E0E259FF4F908301C096
:1006300082E090916900982B90936900FF91EF916F
:100640009F918F912F910F900FBE0F901F90189533
:100650001F920F920FB60F9211248F939F93EF93D7
:10066000FF9390916D0080916C00981759F0E09184
:100670006C00EF5FE0936C00F0E0E255FF4F80818B
:100680008CB901C05598FF91EF919F918F910F9078
:100690000FBE0F901F90189510926D0010926C0075
:1006A00010926B0010926A0097FF03C022E02BB9F2
:1006B0009F7790BD89B988E98AB986E880BD089599
:1006C00090916B0080916A00981781F0E0916A0028
:1006D000EF5FEF73E0936A00F0E0E259FF4F808133
:1006E000909169001092690090E0089580E091E097
:1006F00008951F920F920FB60F9211242F933F93DC
:100700004F935F936F937F938F939F93AF93BF9319
:10071000EF93FF9384E482BF8091BC019091BD016F
:10072000A091BE01B091BF01AC01BD014F5F5F4F11
:100730006F4F7F4F4093BC015093BD016093BE014A
:100740007093BF0181309145A542B24040F01092B4
:10075000BC011092BD011092BE011092BF018091A8
:10076000AE019091AF0101969093AF018093AE01DD
:100770008091AE019091AF01059729F41092AF01DD
:100780001092AE01EADEFF91EF91BF91AF919F9180
:100790008F917F916F915F914F913F912F910F902A
:1007A0000FBE0F901F90189561E070E080E490E01C
:1007B0003DD0EC01A9DE80E090E0BDDE19DE78DE00
:1007C0008823E1F37FDE882381F08130B9F783E06D
:1007D0007CDECE017DDE2881898190E034E6239F96
:1007E000800D911D1124ACDEE9CF83E06EDECE01D9
:1007F0006FDE2881898190E034E6239F800D911D72
:100800001124DBCFAA1BBB1B51E107C0AA1FBB1FD2
:10081000A617B70710F0A61BB70B881F991F5A958C
:10082000A9F780959095BC01CD0108950F931F9372
:10083000CF93DF93869F8001879F100D969F100DA9
:100840001124C8010DD0EC01009721F0A80160E04F
:1008500070E02DD1CE01DF91CF911F910F910895BE
:10086000CF93DF938230910510F482E090E0E09125
:10087000C201F091C30120E030E0A0E0B0E0309789
:1008800039F14081518148175907B8F04817590785
:1008900071F482819381109729F013969C938E9323
:1008A00012972CC09093C3018093C20127C02115D9
:1008B000310531F04217530718F0A901DB0101C0DF
:1008C000EF019A01BD01DF010280F381E02DD7CF56
:1008D00021153105F9F0281B390B2430310580F43E
:1008E0008A819B816115710521F0FB0193838283CD
:1008F00004C09093C3018093C201FE01329644C0AC
:10090000FE01E20FF31F8193919322503109398345
:1009100028833AC02091C0013091C101232B41F4BA
:1009200020916200309163003093C1012093C00197
:1009300020916000309161002115310541F42DB7FF
:100940003EB74091640050916500241B350BE09147
:10095000C001F091C101E217F307A0F42E1B3F0B79
:100960002817390778F0AC014E5F5F4F2417350721
:1009700048F04E0F5F1F5093C1014093C001819317
:10098000919302C0E0E0F0E0CF01DF91CF910895B4
:10099000CF93DF93009709F487C0FC01329713824D
:1009A0001282C091C201D091C301209781F42081AD
:1009B0003181280F391F8091C0019091C1018217A8
:1009C000930779F5F093C101E093C0016DC0DE019A
:1009D00020E030E0AE17BF0750F412964D915C91C5
:1009E00013979D014115510509F1DA01F3CFB38346
:1009F000A28340815181840F951F8A179B0771F450
:100A00008D919C911197840F951F029691838083FD
:100A100012968D919C9113979383828321153105B2
:100A200029F4F093C301E093C2013EC0D9011396AB
:100A3000FC93EE9312974D915D91A40FB51FEA17A9
:100A4000FB0779F480819181840F951F0296D9016B
:100A500011969C938E938281938113969C938E938F
:100A60001297E0E0F0E08A819B81009719F0FE0187
:100A7000EC01F9CFCE01029628813981820F931FB4
:100A80002091C0013091C1012817390769F43097CE
:100A900029F41092C3011092C20102C01382128283
:100AA000D093C101C093C001DF91CF910895DC01C3
:100AB00001C06D9341505040E0F70895F894FFCF86
:060AC0000000C40120004B
:00000001FF
