:1000000029C043C042C041C040C03FC03EC03DC007
:100010003CC02EC43AC09FC3CAC337C036C035C027
:1000200034C033C032C0084AD73B3BCE016E84BCDB
:10003000BFFDC12F3D6C74319ABD56833DDA3D0042
:10004000C77F11BED9E4BB4C3E916BAAAABE00008B
:1000500000803F0011241FBECFE5D4E0DEBFCDBF3E
:1000600022E0A6E6B0E001C01D92A231B207E1F79E
:1000700010E0A0E6B0E0EEE6F8E102C005900D92D7
:10008000A636B107D9F7D9D7F0CBBACF11B888E4E3
:1000900080B9089594EA96BF4FEF50E060E070E0B9
:1000A00006B607FC06C04150510961097109C0F745
:1000B00006C0452B462B472B11F481E0089591B1E2
:1000C000987F983011F09031C1F783B984E886BFEA
:1000D0008FEF90E0A0E0B0E006B607FC05C0019706
:1000E000A109B109C8F704C0892B8A2B8B2B29F3EE
:1000F00081B1887F883111F08034F9F680E008956D
:1001000084E986BF80E090E006B604FE05C0019653
:10011000811521E09207C1F7089583B984E886BF6D
:100120008FEF90E0A0E0B0E006B607FC05C00197B5
:10013000A109B109C8F704C0892B8A2B8B2B39F090
:1001400091B1987F81E0983219F480E0089581E0C0
:10015000089584EC86BF8FEF90E0A0E0B0E006B693
:1001600007FC05C00197A109B109C8F704C0892B94
:100170008A2B8B2B11F083B1089580E0089584E8D9
:1001800086BF8FEF90E0A0E0B0E006B607FC05C0A8
:100190000197A109B109C8F704C0892B8A2B8B2BC1
:1001A00011F083B1089580E00895AF92BF92DF927D
:1001B000EF92FF920F931F93CF93DF9300D0CDB7B1
:1001C000DEB7182FD62E662341F180ED49835A837E
:1001D00061DF812FA2DF88E28A95F1F781ED5ADF96
:1001E0004981A42E5A81B52E00E010E0ED2CF12CAF
:1001F000E1E0EE1AF1080D1570F40E151F0511F46B
:10020000BEDF01C0A6DFF50180830F5F1F4FFFEF48
:10021000AF1ABF0AF0CF74DF01C0D12C8D2D0F9023
:100220000F90DF91CF911F910F91FF90EF90DF9092
:10023000BF90AF900895AB0161E0B7CFEF92FF920E
:100240000F931F93CF93DF9300D0CDB7DEB7082F66
:10025000162F6623E9F080ED49835A831BDF802F38
:100260005CDF4981042FE42E5A81F52E8E2D801BF0
:10027000811728F4F70181917F014FDFF7CF0F90AD
:100280000F90DF91CF911F910F91FF90EF9038CF9A
:100290000F900F90DF91CF911F910F91FF90EF90F2
:1002A0000895CF93DF931F92CDB7DEB76983AE0178
:1002B0004F5F5F4F61E0C2DF0F90DF91CF910895F4
:1002C0000F931F93CF93DF9300D01F92CDB7DEB76C
:1002D000182F062F1982BE016F5F7F4F2B834A8331
:1002E000AADF2B814A81882301F1602F70E0641B13
:1002F00071096F5F7F4FE1E0F0E002C0EE0FFF1F7A
:100300004A95E2F73197062E01C0EE0F0A94EAF7FC
:1003100001C0220F6A95EAF76E2F609589816823E4
:10032000E2236E2B6983812FBCDF0F900F900F901B
:10033000DF91CF911F910F9108950F931F93CF934A
:10034000DF9300D0CDB7DEB7182F062FBE016F5F49
:100350007F4F4A8370DF89814A8121E030E0002E9F
:1003600001C0220F0A94EAF7442319F0682F622B88
:1003700003C0622F609568236983812F92DF0F90FD
:100380000F90DF91CF911F910F91089540E066E0AB
:100390008BE6D3CFCF93DF931F92CDB7DEB7BE01ED
:1003A0006F5F7F4F85E747DF89810F90DF91CF91A6
:1003B00008956CDE28E22A95F1F78FE799EA23E0A9
:1003C000815090402040E1F700C00000DFDF8FE265
:1003D00095E70197F1F700C0000021E043E062E0FB
:1003E0008BE66EDF23E043E062E08AE169DF64E0F0
:1003F00089E157DF23E042E064E08BE161DF20E048
:1004000042E064E08CE15CCF86E290E0F4D162E00F
:1004100070E080E490E0E1D89093BA018093B90154
:1004200061E070E080E490E0D8D89093BE018093C2
:10043000BD011092BC011092BB010895CF93DF93D0
:10044000EED190FD57C08E33910539F41092BC0166
:100450001092BB01109266004DC0A091B901B091FD
:10046000BA018C33910599F58C918093B401129661
:100470008C918093B50120E03091B501E091B901F4
:10048000F091BA018091BD019091BE01231770F4E3
:10049000A22FB0E0EC01CA0FDB1F1296AA0FBB1F00
:1004A000AE0FBF1F3C9138832F5FE6CF9093B7010B
:1004B0008093B6018091B501E80FF11DE80FF11DA1
:1004C00084818093B80181E08093660013C010920C
:1004D0006600E091BB01F091BC019F012F5F3F4F8F
:1004E0003093BC012093BB01EE0FFF1FEA0FFB1FEF
:1004F0009183808380E0DF91CF91089580916600A1
:10050000882321F08091B80181E0089580E008956A
:100510008091B40108958093B401089520E030E003
:100520004091B50150E0241735076CF4E091B60115
:10053000F091B701E20FF31F4081FC014193CF011D
:100540002F5F3F4FEDCF0895CF93DF9300D000D0C2
:100550001F92CDB7DEB7942F49835A836B837C8378
:100560008D83252F30E0A901490F511DCA014B8110
:100570005C81FA01BF01641B750B6217730724F4D9
:100580006191860F911DF6CF80950F900F900F907F
:100590000F900F90DF91CF910895CF92DF92EF925D
:1005A000FF920F931F93CF93DF9300D000D01F9241
:1005B000CDB7DEB74983E52E5A836B837C838D8369
:1005C00061E070E080E490E008D88C018EE3F801EF
:1005D000808389818183E2828B819C81D8011396FB
:1005E000FC01F12C9F01281B390B2E153F051CF433
:1005F00021912D93F7CF6701F3E0CF0ED11CC00EF0
:10060000D11E49815A816B817C818D819DDFF601EC
:100610008083F4E0EF0EF11CF801EE0DFF1D8CE37A
:100620008083D12C8D2D90E0E816F9063CF0F8017E
:10063000E80FF91F80810CD1D394F4CFC8010F903B
:100640000F900F900F900F90DF91CF911F910F910E
:10065000FF90EF90DF90CF9072C883E083BF89B79F
:10066000816089BF0895F8948C9A949887B38463C5
:1006700087BB88B3846388BBF0DFC6DE9ADE2FE7D2
:1006800089EA93E0215080409040E1F700C00000EB
:100690007894089590936800809367000895949AE1
:1006A000009741F0E7EBFBE03197F1F700C0000065
:1006B0000197F6CF94980895CF93DF932091670028
:1006C00030916800CAE0D0E0C901BE0172D7482F5E
:1006D0004068E4E6F0E0C901BF016BD7BE0169D70D
:1006E000C62FC064C90168EE73E063D7262FBF012F
:1006F00060D76062822F8061C29A38E090E8C59826
:100700002091BF01213059F038F0223059F02330C8
:1007100089F4292F242308C0292F282305C0292F35
:10072000262302C0292F2C23211102C0C49801C006
:10073000C49A9695C59A315011F7C2988091BF011D
:100740008F5F843019F08093BF0102C01092BF0107
:10075000DF91CF9108951F920F920FB60F9211243F
:100760002F938F939F93EF93FF938BB19CB18871DD
:10077000E0916B00EF5FEF7320916A00E21739F0B0
:10078000E0936B00F0E0E259FF4F908301C082E0FC
:1007900090916900982B90936900FF91EF919F9140
:1007A0008F912F910F900FBE0F901F9018951F9251
:1007B0000F920FB60F9211248F939F93EF93FF9395
:1007C00090916D0080916C00981759F0E0916C0049
:1007D000EF5FE0936C00F0E0E255FF4F80818CB951
:1007E00001C05598FF91EF919F918F910F900FBE8F
:1007F0000F901F90189510926D0010926C0010923F
:100800006B0010926A0097FF03C022E02BB99F771C
:1008100090BD89B988E98AB986E880BD089590912C
:100820006B0080916A00981781F0E0916A00EF5F99
:10083000EF73E0936A00F0E0E259FF4F80819091FE
:1008400069001092690090E0089580E091E00895B9
:1008500090916D009F5F20916C009217E1F3E92F5A
:10086000F0E0E255FF4F808390936D00559A089514
:100870001F920F920FB60F9211242F933F934F9315
:100880005F936F937F938F939F93AF93BF93EF93F8
:10089000FF9384E482BF80910A0290910B02A091A1
:1008A0000C02B0910D02AC01BD014F5F5F4F6F4F65
:1008B0007F4F40930A0250930B0260930C02709397
:1008C0000D0281309145A542B24040F010920A02DB
:1008D00010920B0210920C0210920D028091B20144
:1008E0009091B30101969093B3018093B2018091EE
:1008F000B2019091B301059729F41092B3011092BF
:10090000B201DADEFF91EF91BF91AF919F918F918C
:100910007F916F915F914F913F912F910F900FBEFB
:100920000F901F901895FC014FE652E163E87AE3BF
:10093000408351836283738346EA5BE964E47BE32B
:1009400044835583668377834FE852EC65EF7CE3FD
:1009500040875187628773871486158616861786A7
:10096000108A118A128A138A108E118E128E138E9B
:10097000148E158E168E178E10A211A212A213A21B
:1009800014A215A216A217A210A611A612A613A6AB
:1009900008952F923F924F925F926F927F928F9223
:1009A0009F92AF92BF92CF92DF92EF92FF920F93FE
:1009B0001F93CF93DF93CDB7DEB76C970FB6F89444
:1009C000DEBF0FBECDBF1C014D8B5E8B6F8B788F52
:1009D000C901B801D10150962D913D914D915C9185
:1009E0005397298B3A8B4B8B5C8B3CD39B01AC018F
:1009F000F101648B758B868B978BC701B60173D51C
:100A0000D1011C962D913D914D915C911F972BD357
:100A10006D877E878F87988BD10194962D913D911C
:100A20004D915C9197972D833E834F835887C701E3
:100A3000B60159D54B015C01F101448C558C668C93
:100A4000778C20A131A142A153A129873A874B87F6
:100A50005C87A301920106D329853A854B855C8585
:100A600001D3F1012081318142815381FCD29B016C
:100A7000AC01C701B60137D5D10158962D913D91F2
:100A80004D915C915B97EFD269837A838B839C83D2
:100A9000A5019401C301B201E5D22B013C01A501DE
:100AA000940169857A858B859C85DCD269877A87F4
:100AB0008B879C87F1012481358146815781C7014D
:100AC000B60111D59B01AC016D817E818F81988526
:100AD000CAD2698F7A8F8B8F9C8FD10118962D91F6
:100AE0003D914D915C911B9769817A818B819C81AD
:100AF000BAD26B017C019B01AC0169817A818B8147
:100B00009C817BD34B015C01A701960169857A85A5
:100B10008B859C8572D36B017C012D853E854F852D
:100B200058896D897E898F89988D9CD26D837E834B
:100B30008F8398879B01AC01C501B401D4D49B017C
:100B4000AC016D857E858F8598898DD26D877E8776
:100B50008F87988BF10164877587868797872D81AA
:100B60003E814F815885C701B601BDD49B01AC01C0
:100B700069897A898B899C8976D2D10150966D9347
:100B80007D938D939C93539729813A814B815C810E
:100B9000C501B401A8D49B01AC0169817A818B8124
:100BA0009C8160D2F101608F718F828F938FA3013E
:100BB0009201C501B40197D49B01AC01C301B201FC
:100BC00051D2D1015C966D937D938D939C935F97E9
:100BD00029813A814B815C81C701B60184D49B0194
:100BE000AC0169857A858B859C853CD2F10160A337
:100BF00071A382A393A3A3019201C701B60173D489
:100C00009B01AC01698D7A8D8B8D9C8D2BD2D1018E
:100C100094966D937D938D939C9397976D857E8528
:100C20008F8598896C960FB6F894DEBF0FBECDBF46
:100C3000DF91CF911F910F91FF90EF90DF90CF90B8
:100C4000BF90AF909F908F907F906F905F904F90EC
:100C50003F902F900895CF93DF93CDB7DEB7659780
:100C60000FB6F894DEBF0FBECDBF61E070E080E448
:100C700090E0B3D43C01FC01412C512C81E38193E1
:100C80002FEF421A520A38E043165104C1F748EFD9
:100C900051E066E08BE389DA6091FA0170E0762F2B
:100CA00066278091FB01682B882777FD8095982F18
:100CB0003AD36B017C016093060270930702809324
:100CC0000802909309026091FC0170E0762F66277C
:100CD0008091FD01682B882777FD8095982F23D37D
:100CE0009B01AC016093F4017093F5018093F601D0
:100CF0009093F701C701B60129D221EE3EE245E605
:100D000052E4F1D3609302027093030280930402D1
:100D1000909305026093D0017093D1018093D2012A
:100D20009093D30184EC91E0FEDD80910A029091D2
:100D30000B02A0910C02B0910D028093C001909320
:100D4000C101A093C201B093C301332433944091F5
:100D50000A0250910B0260910C0270910D02C201C7
:100D60000596A0E0B0E084179507A607B70708F03E
:100D700002C180910A0290910B02A0910C02B091E5
:100D80000D022C0148EF51E06AE08BE30EDA60912E
:100D9000FA0170E0762F66278091FB01682B882787
:100DA00077FD8095982FBFD26B017C01609306027E
:100DB0007093070280930802909309026091FC01EE
:100DC00070E0762F66278091FD01682B882777FDDC
:100DD0008095982FA8D29B01AC016093F401709389
:100DE000F5018093F6019093F7016091000270E0A5
:100DF000762F662780910102682B882777FD8095E2
:100E0000982F2A8B3B8B4C8B5D8B8DD26E837F838F
:100E1000888799876093F0017093F1018093F201C4
:100E20009093F30180910A0290910B02A0910C0221
:100E3000B0910D028E879F87A88BB98B8091C001DE
:100E40009091C101A091C201B091C3018A879B8793
:100E5000AC87BD8780910A0290910B02A0910C0291
:100E6000B0910D028093C0019093C101A093C20183
:100E7000B093C3012A893B894C895D89C701B601BA
:100E800065D121EE3EE245E652E42DD34B015C01F3
:100E90006093020270930302809304029093050210
:100EA00020E030E044EB52ECA4D187FF0FC020E0FB
:100EB00030E044EB52E46091AE017091AF0180915B
:100EC000B0019091B10104D31816C4F020E030E0D5
:100ED00044EB52E4C501B401FBD2181604F520E03E
:100EE00030E044EB52EC6091AE017091AF01809123
:100EF000B0019091B1017DD187FF11C08092D001E6
:100F00009092D101A092D201B092D3018092AE0111
:100F10009092AF01A092B001B092B1012CC06E8549
:100F20007F85888999892A853B854C855D85621BEB
:100F3000730B840B950BF5D120E030E04AE754E4C5
:100F40005CD16B017C0120E030E043E053E46E8132
:100F50007F818885998551D18B019C01B501A401C0
:100F600084EC91E016DD6093AE017093AF01809345
:100F7000B0019093B10162DAC1DA882309F4E7CEB7
:100F8000C7DA182F8130A1F018F0823001F1DFCEDE
:100F900083E0C1DAC301C2DAD3012C9111968C919E
:100FA00090E0B4E62B9F800D911D112473DBCFCE12
:100FB00083E0B1DAC301B2DAF3012081818190E0EC
:100FC000F4E62F9F800D911D112469DBC0CE83E0D4
:100FD000A2DA19831A838090AE019090AF01A0909D
:100FE000B001B090B10175016401F7FAF094F7F81F
:100FF000F094C092AE01D092AF01E092B001F092B5
:10100000B10120E030E0A901C701B601F2D0D3015F
:1010100087FF04C03C92C501B40103C01C92C70104
:10102000B60153D1F3016183662D7C826B824981C5
:101030005A817C818D81B1DA8ACE15DB83ED94E013
:1010400029DBA8D9883651F02FE789EA93E02150AF
:1010500080409040E1F700C00000F3CF80E090E0D6
:1010600019DBF9DD5058BB27AA270ED0F7C1E8D10C
:1010700030F0EDD120F031F49F3F11F41EF4B8C1EF
:101080000EF4E095E7FBAEC1E92FF9D180F3BA1772
:10109000620773078407950718F071F49EF511C273
:1010A0000EF4E0950B2EBA2FA02D0B01B901900183
:1010B0000C01CA01A0011124FF27591B99F0593FC7
:1010C00050F4503E68F11A16F040A22F232F342F0F
:1010D0004427585FF3CF469537952795A795F0405D
:1010E0005395C9F77EF41F16BA0B620B730B840B72
:1010F000BAF09150A1F0FF0FBB1F661F771F881F2A
:10110000C2F70EC0BA0F621F731F841F48F4879581
:1011100077956795B795F7959E3F08F0B3CF939570
:10112000880F08F09927EE0F97958795089588D135
:1011300058F080E891E009F49EEF89D128F040E86A
:1011400051E059F45EEF09C053C1BBC1E92FE0780B
:1011500096D168F3092E052AC1F3261737074807E9
:10116000590738F00E2E07F8E02569F0E025E06415
:101170000AC0EF6307F8009407FADB01B9019D018B
:10118000DC01CA01AD01EF9347D068D10AD05F916D
:10119000552331F02BED3FE049E450FD49EC63CF9E
:1011A0000895DF93DD27B92FBF7740E85FE3161678
:1011B000170648075B0710F4D92F8ED19F938F93A2
:1011C0007F936F93F3D1E6E2F0E015D147D12F91F1
:1011D0003F914F915F9193D1DD2349F09058A2EA5E
:1011E0002AED3FE049EC5FE3D0785D274DDFDF91EA
:1011F00035C1D4D008F481E008950CD02FC127D197
:1012000040F01ED130F021F45F3F19F0EBC05111D6
:1012100059C1EEC034D198F39923C9F35523B1F3E2
:10122000951B550BBB27AA2762177307840738F055
:101230009F5F5F4F220F331F441FAA1FA9F333D0B4
:101240000E2E3AF0E0E830D091505040E695001C68
:10125000CAF729D0FE2F27D0660F771F881FBB1F24
:10126000261737074807AB07B0E809F0BB0B802DFE
:10127000BF01FF2793585F4F2AF09E3F510568F04A
:10128000B1C020C15F3FECF3983EDCF386957795C3
:101290006795B795F7959F5FC9F7880F911D96954C
:1012A000879597F90895E1E0660F771F881FBB1FA8
:1012B000621773078407BA0720F0621B730B840B55
:1012C000BA0BEE1F88F7E0950895E1D088F09F579C
:1012D00090F0B92F9927B751A0F0D1F0660F771F82
:1012E000881F991F1AF0BA95C9F712C0B13081F062
:1012F000E8D0B1E00895E5C0672F782F8827B85F60
:1013000039F0B93FCCF3869577956795B395D9F7C2
:101310003EF490958095709561957F4F8F4F9F4FCC
:101320000895E89409C097FB3EF4909580957095D8
:1013300061957F4F8F4F9F4F9923A9F0F92F96E921
:10134000BB279395F695879577956795B795F11196
:10135000F8CFFAF4BB0F11F460FF1BC06F5F7F4F33
:101360008F4F9F4F16C0882311F096E911C0772345
:1013700021F09EE8872F762F05C0662371F096E84E
:10138000862F70E060E02AF09A95660F771F881F1D
:10139000DAF7880F9695879597F90895990F0008C1
:1013A000550FAA0BE0E8FEEF16161706E807F90737
:1013B000C0F012161306E407F50798F0621B730BD2
:1013C000840B950B39F40A2661F0232B242B252B53
:1013D00021F408950A2609F4A140A6958FEF811DF6
:1013E000811D089597F99F6780E870E060E0089597
:1013F0009FEF80EC0895DF93CF931F930F93FF929D
:10140000EF92DF927B018C01689405C0DA2EEF0128
:1014100076D0FE01E894A59125913591459155919D
:10142000AEF3EF0131DEFE019701A801DA9479F7FE
:10143000DF90EF90FF900F911F91CF91DF91089572
:1014400000240A94161617061806090608950024A3
:101450000A9412161306140605060895092E03941D
:10146000000C11F4882352F0BB0F40F4BF2B11F491
:1014700060FF04C06F5F7F4F8F4F9F4F089557FDF0
:101480009058440F551F59F05F3F71F04795880FF2
:1014900097FB991F61F09F3F79F087950895121689
:1014A00013061406551FF2CF4695F1DF08C0161635
:1014B00017061806991FF1CF8695710561050894E6
:1014C0000895E894BB2766277727CB0197F90895FD
:1014D00065DF08F48FEF08959B01AC0160E070E0D8
:1014E00080E89FE38ACE0BD0B9CFAADF28F0AFDF28
:1014F00018F0952309F076CF7BCF1124E3CFBFDF1F
:10150000A0F3959FD1F3950F50E0551F629FF00116
:10151000729FBB27F00DB11D639FAA27F00DB11D6F
:10152000AA1F649F6627B00DA11D661F829F2227F8
:10153000B00DA11D621F739FB00DA11D621F839F7F
:10154000A00D611D221F749F3327A00D611D231F55
:10155000849F600D211D822F762F6A2F11249F57A3
:1015600050408AF0E1F088234AF0EE0FFF1FBB1FC6
:10157000661F771F881F91505040A9F79E3F510565
:1015800070F030CF9FCF5F3FECF3983EDCF3869551
:1015900077956795B795F795E7959F5FC1F7FE2B10
:1015A000880F911D9695879597F908959B01AC0139
:1015B0009ACFAA1BBB1B51E107C0AA1FBB1FA617CE
:1015C000B70710F0A61BB70B881F991F5A95A9F7EC
:1015D00080959095BC01CD0108950F931F93CF93F3
:1015E000DF93869F8001879F100D969F100D112419
:1015F000C8010DD0EC01009721F0A80160E070E077
:101600002DD1CE01DF91CF911F910F910895CF93EE
:10161000DF938230910510F482E090E0E0911002B7
:10162000F091110220E030E0A0E0B0E0309739F115
:101630004081518148175907B8F04817590771F48C
:1016400082819381109729F013969C938E93129721
:101650002CC0909311028093100227C021153105F0
:1016600031F04217530718F0A901DB0101C0EF0167
:101670009A01BD01DF010280F381E02DD7CF211552
:101680003105F9F0281B390B2430310580F48A81AB
:101690009B816115710521F0FB019383828304C056
:1016A0009093110280931002FE01329644C0FE0115
:1016B000E20FF31F819391932250310939832883DC
:1016C0003AC020910E0230910F02232B41F4209159
:1016D00062003091630030930F0220930E0220913C
:1016E0006000309161002115310541F42DB73EB7FE
:1016F0004091640050916500241B350BE0910E026F
:10170000F0910F02E217F307A0F42E1B3F0B2817EE
:10171000390778F0AC014E5F5F4F2417350748F06A
:101720004E0F5F1F50930F0240930E0281939193CF
:1017300002C0E0E0F0E0CF01DF91CF910895CF93B8
:10174000DF93009709F487C0FC013297138212825D
:10175000C0911002D0911102209781F42081318133
:10176000280F391F80910E0290910F028217930764
:1017700079F5F0930F02E0930E026DC0DE0120E0D8
:1017800030E0AE17BF0750F412964D915C9113975D
:101790009D014115510509F1DA01F3CFB383A2830D
:1017A00040815181840F951F8A179B0771F48D9199
:1017B0009C911197840F951F0296918380831296B6
:1017C0008D919C911397938382832115310529F480
:1017D000F0931102E09310023EC0D9011396FC93DE
:1017E000EE9312974D915D91A40FB51FEA17FB0779
:1017F00079F480819181840F951F0296D901119609
:101800009C938E938281938113969C938E931297CF
:10181000E0E0F0E08A819B81009719F0FE01EC0185
:10182000F9CFCE01029628813981820F931F209132
:101830000E0230910F022817390769F4309729F406
:10184000109211021092100202C013821282D093E1
:101850000F02C0930E02DF91CF910895DC0101C009
:0E1860006D9341505040E0F70895F894FFCF8B
:06186E0000001202200040
:00000001FF
