:1000000029C043C042C041C040C03FC03EC03DC007
:100010003CC019C43AC08CC3B6C337C036C035C063
:1000200034C033C032C0084AD73B3BCE016E84BCDB
:10003000BFFDC12F3D6C74319ABD56833DDA3D0042
:10004000C77F11BED9E4BB4C3E916BAAAABE00008B
:1000500000803F0011241FBECFE5D4E0DEBFCDBF3E
:1000600022E0A6E6B0E001C01D92A23DB207E1F792
:1000700010E0A0E6B0E0EAE2F8E102C005900D92DF
:10008000A636B107D9F7B7D7CECBBACF11B888E427
:1000900080B9089594EA96BF4FEF50E060E070E0B9
:1000A00006B607FC06C04150510961097109C0F745
:1000B00006C0452B462B472B11F481E0089591B1E2
:1000C000987F983011F09031C1F783B984E886BFEA
:1000D0008FEF90E0A0E0B0E006B607FC05C0019706
:1000E000A109B109C8F704C0892B8A2B8B2B29F3EE
:1000F00081B1887F883111F08034F9F680E008956D
:1001000084E986BF80E090E006B604FE05C0019653
:10011000811521E09207C1F7089583B984E886BF6D
:100120008FEF90E0A0E0B0E006B607FC05C00197B5
:10013000A109B109C8F704C0892B8A2B8B2B39F090
:1001400091B1987F81E0983219F480E0089581E0C0
:10015000089584EC86BF8FEF90E0A0E0B0E006B693
:1001600007FC05C00197A109B109C8F704C0892B94
:100170008A2B8B2B11F083B1089580E0089584E8D9
:1001800086BF8FEF90E0A0E0B0E006B607FC05C0A8
:100190000197A109B109C8F704C0892B8A2B8B2BC1
:1001A00011F083B1089580E00895AF92BF92DF927D
:1001B000EF92FF920F931F93CF93DF9300D0CDB7B1
:1001C000DEB7182FD62E662341F180ED49835A837E
:1001D00061DF812FA2DF88E28A95F1F781ED5ADF96
:1001E0004981A42E5A81B52E00E010E0ED2CF12CAF
:1001F000E1E0EE1AF1080D1570F40E151F0511F46B
:10020000BEDF01C0A6DFF50180830F5F1F4FFFEF48
:10021000AF1ABF0AF0CF74DF01C0D12C8D2D0F9023
:100220000F90DF91CF911F910F91FF90EF90DF9092
:10023000BF90AF900895AB0161E0B7CFEF92FF920E
:100240000F931F93CF93DF9300D0CDB7DEB7082F66
:10025000162F6623E9F080ED49835A831BDF802F38
:100260005CDF4981042FE42E5A81F52E8E2D801BF0
:10027000811728F4F70181917F014FDFF7CF0F90AD
:100280000F90DF91CF911F910F91FF90EF9038CF9A
:100290000F900F90DF91CF911F910F91FF90EF90F2
:1002A0000895CF93DF931F92CDB7DEB76983AE0178
:1002B0004F5F5F4F61E0C2DF0F90DF91CF910895F4
:1002C0000F931F93CF93DF9300D01F92CDB7DEB76C
:1002D000182F062F1982BE016F5F7F4F2B834A8331
:1002E000AADF2B814A81882301F1602F70E0641B13
:1002F00071096F5F7F4FE1E0F0E002C0EE0FFF1F7A
:100300004A95E2F73197062E01C0EE0F0A94EAF7FC
:1003100001C0220F6A95EAF76E2F609589816823E4
:10032000E2236E2B6983812FBCDF0F900F900F901B
:10033000DF91CF911F910F9108950F931F93CF934A
:10034000DF9300D0CDB7DEB7182F062FBE016F5F49
:100350007F4F4A8370DF89814A8121E030E0002E9F
:1003600001C0220F0A94EAF7442319F0682F622B88
:1003700003C0622F609568236983812F92DF0F90FD
:100380000F90DF91CF911F910F91089540E066E0AB
:100390008BE6D3CFCF93DF931F92CDB7DEB7BE01ED
:1003A0006F5F7F4F85E747DF89810F90DF91CF91A6
:1003B00008956CDE28E22A95F1F78FE799EA23E0A9
:1003C000815090402040E1F700C00000DFDF8FE265
:1003D00095E70197F1F700C0000021E043E062E0FB
:1003E0008BE66EDF23E043E062E08AE169DF64E0F0
:1003F00089E157DF23E042E064E08BE161DF20E048
:1004000042E064E08CE15CCF86E290E0E0D162E023
:1004100070E080E490E0BFD890937A0280937902F4
:1004200061E070E080E490E0B6D890937E02809323
:100430007D0210927C0210927B020895CF93DF938D
:10044000DAD190FD55C08E33910539F410927C02BB
:1004500010927B02109266004BC0A0917902B0917D
:100460007A028C33910589F58C91809374021296EF
:100470008C918093750220E030917502E0917902B1
:10048000F0917A0280917D0290917E02231770F4A0
:10049000A22FB0E0EC01CA0FDB1F1296AA0FBB1F00
:1004A000AE0FBF1F3C9138832F5FE6CF909377024A
:1004B00080937602E30FF11DE30FF11D8481809399
:1004C000780281E08093660013C010926600E0918C
:1004D0007B02F0917C029F012F5F3F4F30937C02A3
:1004E00020937B02EE0FFF1FEA0FFB1F9183808397
:1004F00080E0DF91CF91089580916600089580910A
:100500006600882319F084E792E0089580E090E087
:100510000895FC0183E08083118214821382128289
:100520000895CF93DF9300D000D01F92CDB7DEB7F0
:10053000942F49835A836B837C838D83252F30E0EE
:10054000A901490F511DCA014B815C81FA01BF010C
:10055000641B750B6217730724F46191860F911D5C
:10056000F6CF80950F900F900F900F900F90DF9126
:10057000CF910895CF92DF92EF92FF920F931F9346
:10058000CF93DF9300D000D01F92CDB7DEB7498361
:10059000E52E5A836B837C838D8361E070E080E479
:1005A00090E0F9D78C018EE3F80180838981818303
:1005B000E2828B819C81D8011396FC01F12C9F0172
:1005C000281B390B2E153F051CF421912D93F7CFD5
:1005D0006701F3E0CF0ED11CC00ED11E49815A81B4
:1005E0006B817C818D819DDFF6018083F4E0EF0ECD
:1005F000F11CF801EE0DFF1D8CE38083D12C8D2DB5
:1006000090E0E816F9063CF0F801E80FF91F808148
:100610000AD1D394F4CFC8010F900F900F900F9090
:100620000F90DF91CF911F910F91FF90EF90DF908E
:10063000CF9063C883E083BF89B7816089BF089585
:10064000F8948C9A949887B3846387BB88B3846347
:1006500088BBF0DFD9DEADDE2FE789EA93E02150D9
:1006600080409040E1F700C0000078940895909396
:100670006800809367000895949A009741F0E7EB33
:10068000FBE03197F1F700C000000197F6CF949896
:100690000895CF93DF932091670030916800CAE0FE
:1006A000D0E0C901BE0163D7482F4068E4E6F0E01E
:1006B000C901BF015CD7BE015AD7C62FC064C901AA
:1006C00068EE73E054D7262FBF0151D76062822FA6
:1006D0008061C29A38E090E8C59820917F0221306D
:1006E00059F038F0223059F0233089F4292F24238F
:1006F00008C0292F282305C0292F262302C0292F0F
:100700002C23211102C0C49801C0C49A9695C59AA1
:10071000315011F7C29880917F028F5F843019F0B9
:1007200080937F0202C010927F02DF91CF910895E3
:100730001F920F920FB60F9211242F938F939F93B6
:10074000EF93FF938BB19CB18871E0916B00EF5FE9
:1007500020916A00E21739F0E0936B00F0E0E25973
:10076000FF4F908301C082E090916900982B909395
:100770006900FF91EF919F918F912F910F900FBE84
:100780000F901F9018951F920F920FB60F92112481
:100790008F939F93EF93FF9390916D0080916C00E6
:1007A000981759F0E0916C00EF5FE0936C00F0E077
:1007B000E259FE4F80818CB901C05598FF91EF91AD
:1007C0009F918F910F900FBE0F901F9018951092D0
:1007D0006D0010926C0010926B0010926A0097FFEF
:1007E00003C022E02BB99F7790BD89B988E98AB907
:1007F00086E880BD089590916B0080916A009817FB
:1008000079F0E0916A00EF5FE0936A00F0E0E2596E
:10081000FF4F8081909169001092690090E00895E7
:1008200080E091E0089590916D009F5F20916C00B1
:100830009217E1F3E92FF0E0E259FE4F80839093A5
:100840006D00559A08951F920F920FB60F921124C2
:100850002F933F934F935F936F937F938F939F93C8
:10086000AF93BF93EF93FF9384E482BF8091CA025A
:100870009091CB02A091CC02B091CD02AC01BD0110
:100880004F5F5F4F6F4F7F4F4093CA025093CB0231
:100890006093CC027093CD0281309145A542B24065
:1008A00040F01092CA021092CB021092CC02109229
:1008B000CD0280917202909173020196909373021F
:1008C000809372028091720290917302059729F4CD
:1008D0001092730210927202DCDEFF91EF91BF91D1
:1008E000AF919F918F917F916F915F914F913F91C8
:1008F0002F910F900FBE0F901F901895FC014FE69F
:1009000052E163E87AE3408351836283738346EA6A
:100910005BE964E47BE344835583668377834FE834
:1009200052EC65EF7CE340875187628773871486BA
:10093000158616861786108A118A128A138A108ED7
:10094000118E128E138E148E158E168E178E10A287
:1009500011A212A213A214A215A216A217A210A6E7
:1009600011A612A613A608952F923F924F925F925E
:100970006F927F928F929F92AF92BF92CF92DF92AF
:10098000EF92FF920F931F93CF93DF93CDB7DEB714
:100990006C970FB6F894DEBF0FBECDBF1C014D8B18
:1009A0005E8B6F8B788FC901B801D10150962D9164
:1009B0003D914D915C915397298B3A8B4B8B5C8B7E
:1009C0002FD39B01AC01F101648B758B868B978BC8
:1009D000C701B60166D5D1011C962D913D914D916F
:1009E0005C911F971ED36D877E878F87988BD1016F
:1009F00094962D913D914D915C9197972D833E83D7
:100A00004F835887C701B6014CD54B015C01F101FA
:100A1000448C558C668C778C20A131A142A153A1C6
:100A200029873A874B875C87A3019201F9D22985F0
:100A30003A854B855C85F4D2F10120813181428178
:100A40005381EFD29B01AC01C701B6012AD5D10178
:100A500058962D913D914D915C915B97E2D26983BF
:100A60007A838B839C83A5019401C301B201D8D200
:100A70002B013C01A501940169857A858B859C85B4
:100A8000CFD269877A878B879C87F1012481358152
:100A900046815781C701B60104D59B01AC016D8128
:100AA0007E818F819885BDD2698F7A8F8B8F9C8F45
:100AB000D10118962D913D914D915C911B976981C3
:100AC0007A818B819C81ADD26B017C019B01AC0151
:100AD00069817A818B819C816ED34B015C01A70176
:100AE000960169857A858B859C8565D36B017C0130
:100AF0002D853E854F8558896D897E898F89988D92
:100B00008FD26D837E838F8398879B01AC01C50153
:100B1000B401C7D49B01AC016D857E858F85988912
:100B200080D26D877E878F87988BF1016487758768
:100B3000868797872D813E814F815885C701B601F1
:100B4000B0D49B01AC0169897A898B899C8969D26F
:100B5000D10150966D937D938D939C9353972981EA
:100B60003A814B815C81C501B4019BD49B01AC01EE
:100B700069817A818B819C8153D2F101608F718F61
:100B8000828F938FA3019201C501B4018AD49B0186
:100B9000AC01C301B20144D2D1015C966D937D9347
:100BA0008D939C935F9729813A814B815C81C7012A
:100BB000B60177D49B01AC0169857A858B859C85CC
:100BC0002FD2F10160A371A382A393A3A301920189
:100BD000C701B60166D49B01AC01698D7A8D8B8DFE
:100BE0009C8D1ED2D10194966D937D938D939C9391
:100BF00097976D857E858F8598896C960FB6F8944A
:100C0000DEBF0FBECDBFDF91CF911F910F91FF903F
:100C1000EF90DF90CF90BF90AF909F908F907F909C
:100C20006F905F904F903F902F900895CF93DF93F8
:100C3000CDB7DEB72F970FB6F894DEBF0FBECDBF8E
:100C400061E070E080E490E0A6D43C0148EB52E023
:100C500066E08BE3AADA6091BA0270E0762F66272D
:100C60008091BB02682B882777FD8095982F39D318
:100C70006B017C016093C6027093C7028093C80227
:100C80009093C9026091BC0270E0762F6627809134
:100C9000BD02682B882777FD8095982F22D39B0172
:100CA000AC016093B4027093B5028093B602909346
:100CB000B702C701B60128D221EE3EE245E652E472
:100CC000F0D36093C2027093C3028093C4029093E6
:100CD000C502609390027093910280939202909368
:100CE000930284E892E00ADE8091CA029091CB02DE
:100CF000A091CC02B091CD028093800290938102AA
:100D0000A0938202B09383021F821E824091CA0286
:100D10005091CB026091CC027091CD028E819F8167
:100D20000596A0E0B0E084179507A607B70708F07E
:100D3000F9C08091CA029091CB02A091CC02B091EF
:100D4000CD029F838E8348EB52E06AE08BE32DDA7D
:100D50006091BA0270E0762F66278091BB02682B03
:100D6000882777FD8095982FBCD24B015C0160935A
:100D7000C6027093C7028093C8029093C902609123
:100D8000BC0270E0762F66278091BD02682B882711
:100D900077FD8095982FA5D29B01AC016093B4029A
:100DA0007093B5028093B6029093B7026091C0022F
:100DB00070E0762F66278091C102682B882777FD27
:100DC0008095982F2C873D874E875F878AD21B019D
:100DD0002C016093B0027093B1028093B2029093A1
:100DE000B302C090CA02D090CB02E090CC02F09047
:100DF000CD028091800290918102A0918202B091F7
:100E0000830288879987AA87BB878091CA029091BD
:100E1000CB02A091CC02B091CD028093800290933E
:100E20008102A0938202B09383022C853D854E857A
:100E30005F85C501B40168D121EE3EE245E652E48A
:100E400030D34B015C016093C2027093C302809364
:100E5000C4029093C50220E030E044EB52ECA7D1ED
:100E600087FF0FC020E030E044EB52E460916E0257
:100E700070916F02809170029091710207D31816E1
:100E8000C4F020E030E044EB52E4C501B401FED2EE
:100E9000181604F520E030E044EB52EC60916E024D
:100EA00070916F02809170029091710280D187FFE2
:100EB00011C08092900290929102A0929202B09200
:100EC000930280926E0290926F02A0927002B09292
:100ED000710228C0C701B601288539854A855B851E
:100EE000621B730B840B950BFAD120E030E04AE7CC
:100EF00054E461D16B017C0120E030E043E053E435
:100F0000C201B10158D18B019C01B501A40184E853
:100F100092E02ADD60936E0270936F0280937002FC
:100F2000909371028BDAE8DA882309F4EFCEE7DADE
:100F30007C01009709F4EACEDC018C91813099F0B4
:100F400018F08230F9F0E2CED7011296ED91FC91C3
:100F500013972081818190E0B4E62B9F800D911D35
:100F6000112485DB45C0D7011296ED91FC911397B2
:100F70002081818190E0B4E62B9F800D911D11248A
:100F80007BDB36C089838A8320906E0230906F02AB
:100F9000409070025090710252014101B7FAB09432
:100FA000B7F8B09480926E0290926F02A092700295
:100FB000B092710220E030E0A901C501B401F7D080
:100FC00087FF06C021E0F3012083C201B10104C004
:100FD000F3011082C501B40156D1D30111966C936F
:100FE000662D7C826B8249815A817C818D81C2DA37
:100FF000C7018FDA8BCE24DB83ED94E038DBCAD9CE
:10100000883651F02FE789EA93E0215080409040E4
:10101000E1F700C00000F3CF80E090E028DB06DEBF
:101020005058BB27AA270ED0F7C1E8D130F0EDD138
:1010300020F031F49F3F11F41EF4B8C10EF4E09596
:10104000E7FBAEC1E92FF9D180F3BA176207730746
:101050008407950718F071F49EF511C20EF4E0951F
:101060000B2EBA2FA02D0B01B90190010C01CA0162
:10107000A0011124FF27591B99F0593F50F4503E0D
:1010800068F11A16F040A22F232F342F4427585FFF
:10109000F3CF469537952795A795F0405395C9F717
:1010A0007EF41F16BA0B620B730B840BBAF09150CF
:1010B000A1F0FF0FBB1F661F771F881FC2F70EC06E
:1010C000BA0F621F731F841F48F487957795679541
:1010D000B795F7959E3F08F0B3CF9395880F08F02A
:1010E0009927EE0F97958795089588D158F080E855
:1010F00091E009F49EEF89D128F040E851E059F4DD
:101100005EEF09C053C1BBC1E92FE07896D168F307
:10111000092E052AC1F3261737074807590738F063
:101120000E2E07F8E02569F0E025E0640AC0EF63C1
:1011300007F8009407FADB01B9019D01DC01CA013F
:10114000AD01EF9347D068D10AD05F91552331F0BC
:101150002BED3FE049E450FD49EC63CF0895DF9368
:10116000DD27B92FBF7740E85FE31616170648075B
:101170005B0710F4D92F8ED19F938F937F936F933A
:10118000F3D1E6E2F0E015D147D12F913F914F9195
:101190005F9193D1DD2349F09058A2EA2AED3FE018
:1011A00049EC5FE3D0785D274DDFDF9135C1D4D0C6
:1011B00008F481E008950CD02FC127D140F01ED152
:1011C00030F021F45F3F19F0EBC0511159C1EEC06E
:1011D00034D198F39923C9F35523B1F3951B550BDB
:1011E000BB27AA2762177307840738F09F5F5F4FFA
:1011F000220F331F441FAA1FA9F333D00E2E3AF03B
:10120000E0E830D091505040E695001CCAF729D054
:10121000FE2F27D0660F771F881FBB1F26173707A3
:101220004807AB07B0E809F0BB0B802DBF01FF27D3
:1012300093585F4F2AF09E3F510568F0B1C020C11E
:101240005F3FECF3983EDCF3869577956795B7950D
:10125000F7959F5FC9F7880F911D9695879597F928
:101260000895E1E0660F771F881FBB1F62177307A1
:101270008407BA0720F0621B730B840BBA0BEE1FB6
:1012800088F7E0950895E1D088F09F5790F0B92F46
:101290009927B751A0F0D1F0660F771F881F991FCB
:1012A0001AF0BA95C9F712C0B13081F0E8D0B1E0B8
:1012B0000895E5C0672F782F8827B85F39F0B93FC8
:1012C000CCF3869577956795B395D9F73EF49095CD
:1012D0008095709561957F4F8F4F9F4F0895E8944B
:1012E00009C097FB3EF490958095709561957F4F6E
:1012F0008F4F9F4F9923A9F0F92F96E9BB2793951C
:10130000F695879577956795B795F111F8CFFAF42B
:10131000BB0F11F460FF1BC06F5F7F4F8F4F9F4F5C
:1013200016C0882311F096E911C0772321F09EE8BA
:10133000872F762F05C0662371F096E8862F70E020
:1013400060E02AF09A95660F771F881FDAF7880FFA
:101350009695879597F90895990F0008550FAA0B50
:10136000E0E8FEEF16161706E807F907C0F01216B8
:101370001306E407F50798F0621B730B840B950BBB
:1013800039F40A2661F0232B242B252B21F4089510
:101390000A2609F4A140A6958FEF811D811D0895AD
:1013A00097F99F6780E870E060E008959FEF80EC18
:1013B0000895DF93CF931F930F93FF92EF92DF92E5
:1013C0007B018C01689405C0DA2EEF0176D0FE0116
:1013D000E894A5912591359145915591AEF3EF0192
:1013E00031DEFE019701A801DA9479F7DF90EF90E2
:1013F000FF900F911F91CF91DF91089500240A94DF
:101400001616170618060906089500240A941216DF
:101410001306140605060895092E0394000C11F412
:10142000882352F0BB0F40F4BF2B11F460FF04C0BF
:101430006F5F7F4F8F4F9F4F089557FD9058440F18
:10144000551F59F05F3F71F04795880F97FB991F23
:1014500061F09F3F79F087950895121613061406E0
:10146000551FF2CF4695F1DF08C01616170618066D
:10147000991FF1CF86957105610508940895E89448
:10148000BB2766277727CB0197F9089565DF08F416
:101490008FEF08959B01AC0160E070E080E89FE36E
:1014A0008ACE0BD0B9CFAADF28F0AFDF18F0952392
:1014B00009F076CF7BCF1124E3CFBFDFA0F3959F58
:1014C000D1F3950F50E0551F629FF001729FBB272B
:1014D000F00DB11D639FAA27F00DB11DAA1F649FD7
:1014E0006627B00DA11D661F829F2227B00DA11D8A
:1014F000621F739FB00DA11D621F839FA00D611D10
:10150000221F749F3327A00D611D231F849F600D30
:10151000211D822F762F6A2F11249F5750408AF069
:10152000E1F088234AF0EE0FFF1FBB1F661F771FF5
:10153000881F91505040A9F79E3F510570F030CF61
:101540009FCF5F3FECF3983EDCF3869577956795E8
:10155000B795F795E7959F5FC1F7FE2B880F911D13
:101560009695879597F908959B01AC019ACFAA1B90
:10157000BB1B51E107C0AA1FBB1FA617B70710F07E
:10158000A61BB70B881F991F5A95A9F780959095B0
:10159000BC01CD0108950F931F93CF93DF93869FD6
:1015A0008001879F100D969F100D1124C8010DD04A
:1015B000EC01009721F0A80160E070E02DD1CE0190
:1015C000DF91CF911F910F910895CF93DF938230D8
:1015D000910510F482E090E0E091D002F091D10208
:1015E00020E030E0A0E0B0E0309739F14081518157
:1015F00048175907B8F04817590771F48281938149
:10160000109729F013969C938E9312972CC0909369
:10161000D1028093D00227C02115310531F0421745
:10162000530718F0A901DB0101C0EF019A01BD01C8
:10163000DF010280F381E02DD7CF21153105F9F0CC
:10164000281B390B2430310580F48A819B81611578
:10165000710521F0FB019383828304C09093D10232
:101660008093D002FE01329644C0FE01E20FF31FC8
:101670008193919322503109398328833AC0209174
:10168000CE023091CF02232B41F4209162003091A1
:1016900063003093CF022093CE02209160003091FE
:1016A00061002115310541F42DB73EB7409164002A
:1016B00050916500241B350BE091CE02F091CF02D2
:1016C000E217F307A0F42E1B3F0B2817390778F019
:1016D000AC014E5F5F4F2417350748F04E0F5F1F78
:1016E0005093CF024093CE028193919302C0E0E0E9
:1016F000F0E0CF01DF91CF910895CF93DF93009772
:1017000009F487C0FC01329713821282C091D00283
:10171000D091D102209781F420813181280F391F87
:101720008091CE029091CF028217930779F5F093C2
:10173000CF02E093CE026DC0DE0120E030E0AE17B4
:10174000BF0750F412964D915C9113979D0141157E
:10175000510509F1DA01F3CFB383A28340815181AE
:10176000840F951F8A179B0771F48D919C91119797
:10177000840F951F02969183808312968D919C9180
:101780001397938382832115310529F4F093D102B5
:10179000E093D0023EC0D9011396FC93EE931297CA
:1017A0004D915D91A40FB51FEA17FB0779F4808175
:1017B0009181840F951F0296D90111969C938E9367
:1017C0008281938113969C938E931297E0E0F0E0D0
:1017D0008A819B81009719F0FE01EC01F9CFCE01BF
:1017E000029628813981820F931F2091CE02309179
:1017F000CF022817390769F4309729F41092D102E3
:101800001092D00202C013821282D093CF02C093F2
:10181000CE02DF91CF910895DC0101C06D9341505C
:0A1820005040E0F70895F894FFCF60
:06182A000000D2022000C4
:00000001FF
