:1000000029C043C042C041C040C03FC03EC03DC007
:100010003CC047C33AC0D1C2FCC237C036C035C0AD
:1000200034C033C032C0084AD73B3BCE016E84BCDB
:10003000BFFDC12F3D6C74319ABD56833DDA3D0042
:10004000C77F11BED9E4BB4C3E916BAAAABE00008B
:1000500000803F0011241FBECFE5D4E0DEBFCDBF3E
:1000600010E0A0E6B0E0EAE9FCE102C005900D92E4
:10007000A839B107D9F722E0A8E9B0E001C01D9284
:10008000A735B207E1F71BD706CEBACF11B888E47F
:1000900080B9089594EA96BF4FEF50E060E070E0B9
:1000A00006B607FC06C04150510961097109C0F745
:1000B00004C0452B462B472B11F191B1987F983006
:1000C00011F09031F1F483B984E886BF8FEF90E0AE
:1000D000A0E0B0E006B607FC05C00197A109B10990
:1000E000C8F704C0892B8A2B8B2B69F091B1987FBC
:1000F000983159F081E0903449F480E0089581E02E
:10010000089581E0089581E0089580E0089584E9EC
:1001100086BF80E090E006B604FE05C0019681151A
:1001200021E09207C1F7089583B984E886BF8FEF75
:1001300090E0A0E0B0E006B607FC05C00197A10979
:10014000B109C8F704C0892B8A2B8B2B39F091B1E8
:10015000987F81E0983219F480E0089581E0089555
:1001600084EC86BF8FEF90E0A0E0B0E006B607FC1D
:1001700005C00197A109B109C8F704C0892B8A2BD2
:100180008B2B11F083B1089580E0089584E886BF39
:100190008FEF90E0A0E0B0E006B607FC05C0019745
:1001A000A109B109C8F704C0892B8A2B8B2B11F048
:1001B00083B1089580E00895DF92EF92FF920F934C
:1001C0001F93CF93DF93182FD62ED42FC52F6623DE
:1001D00019F180ED5FDF812FA7DF88E28A95F1F7C3
:1001E00081ED58DF0D2F1C2FC0E0D0E0ED2CF12C5D
:1001F000E1E0EE1AF108CE15DF0521F4C7DFF801C2
:10020000808303C0ADDFF801808321960F5F1F4F0D
:10021000CD1588F37CDF01C0D12C8D2DDF91CF91DE
:100220001F910F91FF90EF90DF900895AB0161E077
:10023000C3DF0895FF920F931F93CF93DF93C82FCF
:10024000062FF42E152F662369F080ED23DF8C2F07
:100250006BDFCF2DD12F10E0899166DF1F5F101368
:10026000FBCF55DFDF91CF911F910F91FF90089544
:10027000CF93DF931F92CDB7DEB76983AE014F5F97
:100280005F4F61E0D7DF0F90DF91CF910895EF923C
:10029000FF920F931F93CF93DF931F92CDB7DEB7DB
:1002A000182FE62EF42E022F442381F11982BE016D
:1002B0006F5F7F4FBBDF882349F16E2D70E06F19B0
:1002C00071096F5F7F4FE1E0F0E0AF0102C0440FC2
:1002D000551FFA94E2F741505109062E02C0440F0F
:1002E000551F0A94E2F7202F30E0C90102C0880FA1
:1002F000991F6A95E2F7BC01942F90958981892313
:100300004623682F642B6983812FB2DF0F90DF9122
:10031000CF911F910F91FF90EF900895FF920F934F
:100320001F93CF93DF931F92CDB7DEB7182F062F01
:10033000F42EBE016F5F7F4F79DFFF2059F021E07F
:1003400030E0B90102C0660F771F0A95E2F7898194
:10035000682B0BC021E030E0B90102C0660F771FA7
:100360000A95E2F76095898168236983812F80DF90
:100370000F90DF91CF911F910F91FF90089540E072
:1003800066E08BE6CBDF089581DE28E22A95F1F75F
:100390008FE799EA23E0815090402040E1F700C0C8
:1003A0000000EDDF8FE295E70197F1F700C0000054
:1003B00021E043E062E08BE66ADF23E043E062E0B5
:1003C0008AE165DF64E089E153DF23E042E064E035
:1003D0008BE15DDF20E042E064E08CE158DF0895CE
:1003E00086E290E03AD186E690E0909354028093C2
:1003F000530282E090E077D89093E7018093E60182
:1004000081E090E070D89093EB018093EA01109224
:10041000E9011092E801089583E083BF89B7816004
:1004200089BF0895F8948C9A949887B3846387BBA6
:1004300088B3846388BBF0DFD3DFA6DF2FE789EAC8
:1004400093E0215080409040E1F700C00000789494
:10045000089590939900809398000895CF93DF9327
:1004600040919800509199009A01ADECBCEC2FD8C6
:100470009695879596958795969587959C01220FD9
:10048000331F880F991F880F991F880F991F820F9C
:10049000931FEA01C81BD90BC0689A0136952795AE
:1004A00036952795ABE7B4E112D89695879564E623
:1004B000689F9001699F300D1124CA01821B930B24
:1004C0009C01ADECBCEC03D89695879596958795E5
:1004D00096958795D82FD064FA01F695E795F6950D
:1004E000E795F695E7959F01A5ECB0E2F0D79295D8
:1004F00082958F7089279F70892768EE73E0869FA9
:100500009001879F300D969F300D1124421B530B95
:100510009A013695279536952795ABE7B4E1D7D75D
:1005200096958795482F40629F01A5ECB0E2CFD702
:10053000929582958F7089279F7089278061C29AD2
:1005400028E030E8C5989091EC01913071F028F0E6
:10055000923099F09330C9F01FC0932F982311F473
:10056000C49801C0C49A369517C0932F942311F4F0
:10057000C49801C0C49A36950FC0932F9D2311F4DF
:10058000C49801C0C49A369507C0932F9C2311F4D8
:10059000C49801C0C49A3695C59A215099F6C2985C
:1005A0008091EC018F5F843019F08093EC0102C0E0
:1005B0001092EC01DF91CF9108951F920F920FB628
:1005C0000F9211242F938F939F93EF93FF938BB1EF
:1005D0002CB18871E0919C00EF5FEF7390919B00CC
:1005E000E91739F0E0939C00F0E0E156FF4F2083DB
:1005F00001C082E090919A00892B80939A00FF912C
:10060000EF919F918F912F910F900FBE0F901F90A0
:1006100018951F920F920FB60F9211248F939F93EC
:10062000EF93FF9390919E0080919D00981759F051
:10063000E0919D00EF5FE0939D00F0E0E152FF4FFD
:1006400080818CB901C05598FF91EF919F918F9156
:100650000F900FBE0F901F90189510929E00109251
:100660009D0010929C0010929B0099231CF422E0A4
:100670002BB99F7790BD89B988E98AB986E880BD92
:10068000089520919E002F5F90919D002917E1F31E
:10069000E22FF0E0E152FF4F808320939E00559AB5
:1006A00008951F920F920FB60F9211242F933F932C
:1006B0004F935F936F937F938F939F93AF93BF936A
:1006C000EF93FF9384E482BF8091490290914A02A4
:1006D000A0914B02B0914C02AC01BD014F5F5F4F46
:1006E0006F4F7F4F4093490250934A0260934B02F1
:1006F00070934C0281309145A542B24040F0109277
:10070000490210924A0210924B0210924C028091C0
:10071000DF019091E00101969093E0018093DF0169
:100720008091DF019091E001059729F41092E0019A
:100730001092DF0193DEFF91EF91BF91AF919F91F6
:100740008F917F916F915F914F913F912F910F907A
:100750000FBE0F901F901895FC014FE652E163E821
:100760007AE3408351836283738346EA5BE964E4FE
:100770007BE344835583668377834FE852EC65EFD0
:100780007CE34087518762877387148615861686B7
:100790001786108A118A128A138A108E118E128E71
:1007A000138E148E158E168E178E10A211A212A201
:1007B00013A214A215A216A217A210A611A612A681
:1007C00013A608952F923F924F925F926F927F925D
:1007D0008F929F92AF92BF92CF92DF92EF92FF9251
:1007E0000F931F93CF93DF93CDB7DEB76C970FB600
:1007F000F894DEBF0FBECDBF1C014D8B5E8B6F8B9F
:10080000788FC901B801D10150962D913D914D913C
:100810005C915397298B3A8B4B8B5C8B55D3F101B1
:10082000648B758B868B978BA701960193D5D1012D
:100830001C962D913D914D915C911F9746D36D87EC
:100840007E878F87988BD10194962D913D914D9104
:100850005C91979729833A834B835C83A701960128
:1008600069817A818B819C8175D54B015C01F10195
:10087000448C558C668C778C20A131A142A153A168
:1008800029873A874B875C87A30192011DD329856D
:100890003A854B855C8518D3F101208131814281F5
:1008A000538113D3A701960155D5D10158962D91A7
:1008B0003D914D915C915B9708D36D837E838F83CF
:1008C0009887A5019401C301B201FED22B013C011E
:1008D000A501940169857A858B859C85F5D2698708
:1008E0007A878B879C87F1012481358146815781E6
:1008F000C701B6012FD59B01AC0169817A818B813B
:100900009C81E3D2698F7A8F8B8F9C8FD10118964F
:100910002D913D914D915C911B976D817E818F81D1
:100920009885D3D24B015C019B01AC016D817E8126
:100930008F81988594D369837A838B839C83A50167
:10094000940169857A858B859C8589D34B015C01EF
:100950002D853E854F8558896D897E898F89988D33
:10096000B3D26B017C019B01AC0169817A818B81DF
:100970009C81F0D49B01AC016D857E858F85988923
:10098000A4D26D877E878F87988BF10164877587E6
:1009900086879787A7019601C501B401DBD49B0127
:1009A000AC0169897A898B899C898FD2D101509653
:1009B0006D937D938D939C93539729813A814B81BD
:1009C0005C816D817E818F819885C4D49B01AC014F
:1009D0006D817E818F81988577D2F101608F718FD3
:1009E000828F938F29813A814B815C81C301B2014F
:1009F000B1D49B01AC01C301B20166D2D1015C96B6
:100A00006D937D938D939C935F97A50194016D8168
:100A10007E818F8198859ED49B01AC0169857A8502
:100A20008B859C8551D2F10160A371A382A393A30E
:100A3000A5019401C301B2018DD49B01AC01698D64
:100A40007A8D8B8D9C8D40D2D10194966D937D9340
:100A50008D939C9397976D857E858F8598896C96ED
:100A60000FB6F894DEBF0FBECDBFDF91CF911F91BF
:100A70000F91FF90EF90DF90CF90BF90AF909F903D
:100A80008F907F906F905F904F903F902F90089540
:100A9000CF93DF93CDB7DEB768970FB6F894DEBF7C
:100AA0000FBECDBFBE016F5F7F4F85E7BFDB898182
:100AB0001F928F9384E790E09F938F933BD60FEF25
:100AC0001EE924E2015010402040E1F700C0000080
:100AD000AE014F5F5F4F66E08BE36EDB6B8170E0D2
:100AE000762F66278C81682B882777FD8095982F35
:100AF00051D34B015C016D8170E0762F66278E81AA
:100B0000682B882777FD8095982F44D36B017C0153
:100B10009B01AC01C501B4014BD22B013C01A501E5
:100B20009401C501B40116D44B015C01A7019601E3
:100B3000C701B6010FD49B01AC01C501B401C5D1F9
:100B400070D46B017C01698170E0762F66278A8101
:100B5000682B882777FD8095982F1CD39058A70184
:100B600096017DD250D26B017C0121EE3EE245E63A
:100B700052E4C301B201EED36093290270932A02BA
:100B800080932B0290932C0221EE3EE245E652E444
:100B9000C701B601DFD36093F9017093FA01809326
:100BA000FB019093FC018DE192E0D6DD8DEE91E0AA
:100BB000D3DD8091490290914A02A0914B02B091FD
:100BC0004C028093190290931A02A0931B02B093D7
:100BD0001C020F900F900F900F901E8A1D8A19868D
:100BE0001A861B861C86AE014F5F5F4F6EE08BE35B
:100BF000E3DA698170E0762F66278A81682B88277F
:100C000077FD8095982FC6D2698B7A8B8B8B9C8BC6
:100C10006B8170E0762F66278C81682B882777FDA3
:100C20008095982FB7D24B015C016D8170E0762FD3
:100C300066278E81682B882777FD8095982FAAD20A
:100C40006B017C0109850F8B1A85188F6B8570E00D
:100C5000762F66278C85682B882777FD8095982FBF
:100C600099D22B013C014091490250914A02609176
:100C70004B0270914C028091190290911A02A0913E
:100C80001B02B0911C028A019B01081B190B2A0B45
:100C90003B0BC901B8017CD220E030E04AE754E4C4
:100CA000DED16D877E878F87988B809149029091E6
:100CB0004A02A0914B02B0914C028093190290938A
:100CC0001A02A0931B02B0931C02A7019601C50152
:100CD000B4016ED121EE3EE245E652E43BD3362E1E
:100CE000272E8F839887A5019401C501B40132D3C3
:100CF0004B015C01A7019601C701B6012BD39B01F3
:100D0000AC01C501B401E1D08CD39B01AC01698970
:100D10007A898B899C899058A2D175D121EE3EE2C7
:100D200045E652E417D34B015C0120E030E043E09C
:100D300053E4C301B20193D12B013C0120E030E028
:100D400044EB52EC632D722D8F81988584D18823DA
:100D50007CF420E030E044EB52E4B985AA85FB85C1
:100D6000EC856B2F7A2F8F2F9E2FE9D21816D4F097
:100D700020E030E044EB52E4632D722D8F819885A2
:100D8000DED21816F4F420E030E044EB52ECB985E2
:100D9000AA85FB85EC856B2F7A2F8F2F9E2F5BD139
:100DA00088237CF4832D922DAF81B885E9E2F2E0AF
:100DB00080839183A283B38339862A86AB87BC87DD
:100DC00020C0188D612F70E00F89702B882777FD68
:100DD0008095982FDFD120E030E043E053E43FD10D
:100DE0008B019C01CD84DE84EF84F888432D522D45
:100DF0006F8178858DE192E0E5DC69877A878B8762
:100E00009C8759854A853B852C85652F742F832FB8
:100E1000922F8DD19B01772324F422273327261B81
:100E2000370B2B35310524F077FA709477F87094EE
:100E3000CD84DE84EF84F88893018201B501A4019A
:100E40008DEE91E0BFDCE62FF72F409149025091E3
:100E50004A0260914B0270914C020D891E890C5917
:100E60001F4F20E030E0041715072607370700F56D
:100E70004091490250914A0260914B0270914C029C
:100E80005E8B4D8B9F938F93FF93EF931C851F93E6
:100E90002B852F933A853F9389858F93A7E8B0E000
:100EA000BF93AF9347D40FB6F894DEBF0FBECDBF4C
:100EB00087EB9BE00197F1F700C0000094CEB2DA17
:100EC00083ED94E0C6DAE4DD5058BB27AA270ED0A4
:100ED000FCC1EDD130F0F2D120F031F49F3F11F49C
:100EE0001EF4BDC10EF4E095E7FBB3C1E92FFED1BE
:100EF00080F3BA17620773078407950718F071F437
:100F00009EF516C20EF4E0950B2EBA2FA02D0B0104
:100F1000B90190010C01CA01A0011124FF27591B3E
:100F200099F0593F50F4503E68F11A16F040A22F44
:100F3000232F342F4427585FF3CF469537952795B5
:100F4000A795F0405395C9F77EF41F16BA0B620BB4
:100F5000730B840BBAF09150A1F0FF0FBB1F661FFB
:100F6000771F881FC2F70EC0BA0F621F731F841F3E
:100F700048F4879577956795B795F7959E3F08F064
:100F8000B3CF9395880F08F09927EE0F9795879523
:100F900008958DD158F080E891E009F49EEF8ED14C
:100FA00028F040E851E059F45EEF09C058C1C0C1D3
:100FB000E92FE0789BD168F3092E052AC1F32617A3
:100FC00037074807590738F00E2E07F8E02569F073
:100FD000E025E0640AC0EF6307F8009407FADB013C
:100FE000B9019D01DC01CA01AD01EF9347D06DD17C
:100FF0000AD05F91552331F02BED3FE049E450FDDD
:1010000049EC63CF0895DF93DD27B92FBF7740E820
:101010005FE31616170648075B0710F4D92F93D124
:101020009F938F937F936F933AD2E6E2F0E01AD1C9
:101030004CD12F913F914F915F9198D1DD2349F091
:101040009058A2EA2AED3FE049EC5FE3D0785D27B3
:101050004DDFDF913AC1D9D008F481E008950CD07A
:1010600034C12CD140F023D130F021F45F3F19F08E
:10107000F0C051115EC1F3C039D198F39923C9F37F
:101080005523B1F3951B550BBB27AA27621773078E
:10109000840738F09F5F5F4F220F331F441FAA1F42
:1010A000A9F333D00E2E3AF0E0E830D09150504002
:1010B000E695001CCAF729D0FE2F27D0660F771FB0
:1010C000881FBB1F261737074807AB07B0E809F092
:1010D000BB0B802DBF01FF2793585F4F2AF09E3F27
:1010E000510568F0B6C025C15F3FECF3983EDCF3D4
:1010F000869577956795B795F7959F5FC9F7880FA0
:10110000911D9695879597F90895E1E0660F771FF1
:10111000881FBB1F621773078407BA0720F0621B82
:10112000730B840BBA0BEE1F88F7E095089504D07B
:101130006894B111FEC00895E1D088F09F5790F0F7
:10114000B92F9927B751A0F0D1F0660F771F881FEC
:10115000991F1AF0BA95C9F712C0B13081F0E8D0E2
:10116000B1E00895E5C0672F782F8827B85F39F080
:10117000B93FCCF3869577956795B395D9F73EF44B
:1011800090958095709561957F4F8F4F9F4F0895F3
:10119000E89409C097FB3EF4909580957095619511
:1011A0007F4F8F4F9F4F9923A9F0F92F96E9BB27C7
:1011B0009395F695879577956795B795F111F8CF43
:1011C000FAF4BB0F11F460FF1BC06F5F7F4F8F4FAE
:1011D0009F4F16C0882311F096E911C0772321F0A4
:1011E0009EE8872F762F05C0662371F096E8862F3C
:1011F00070E060E02AF09A95660F771F881FDAF793
:10120000880F9695879597F90895990F0008550FBF
:10121000AA0BE0E8FEEF16161706E807F907C0F07C
:1012200012161306E407F50798F0621B730B840B84
:10123000950B39F40A2661F0232B242B252B21F45E
:1012400008950A2609F4A140A6958FEF811D811DFE
:10125000089597F99F6780E870E060E008959FEF38
:1012600080EC0895DF93CF931F930F93FF92EF923B
:10127000DF927B018C01689405C0DA2EEF0176D0F5
:10128000FE01E894A5912591359145915591AEF3D4
:10129000EF012CDEFE019701A801DA9479F7DF90C7
:1012A000EF90FF900F911F91CF91DF91089500244F
:1012B0000A941616170618060906089500240A94BB
:1012C00012161306140605060895092E0394000C41
:1012D00011F4882352F0BB0F40F4BF2B11F460FFD0
:1012E00004C06F5F7F4F8F4F9F4F089557FD9058F9
:1012F000440F551F59F05F3F71F04795880F97FBDA
:10130000991F61F09F3F79F0879508951216130693
:101310001406551FF2CF4695F1DF08C016161706C2
:101320001806991FF1CF86957105610508940895F7
:10133000E894BB2766277727CB0197F9089565DFE7
:1013400008F48FEF08959B01AC0160E070E080E845
:101350009FE385CE0BD0B9CFAADF28F0AFDF18F01E
:10136000952309F076CF7BCF1124E3CFBFDFA0F325
:10137000959FD1F3950F50E0551F629FF001729F2A
:10138000BB27F00DB11D639FAA27F00DB11DAA1F49
:10139000649F6627B00DA11D661F829F2227B00D96
:1013A000A11D621F739FB00DA11D621F839FA00D21
:1013B000611D221F749F3327A00D611D231F849F71
:1013C000600D211D822F762F6A2F11249F575040C8
:1013D0008AF0E1F088234AF0EE0FFF1FBB1F661F63
:1013E000771F881F91505040A9F79E3F510570F01C
:1013F00030CF9FCF5F3FECF3983EDCF38695779537
:101400006795B795F795E7959F5FC1F7FE2B880F16
:10141000911D9695879597F9089511F40EF41FCFB5
:1014200041C06CDFD0F39923D9F3CEF39F57550B0E
:1014300087FF46D00024A0E640EA900180585695E8
:10144000979528F4805C660F771F881F20F0261779
:101450003707480730F4621B730B840B20293129AE
:101460004A2BA69517940794202531254A2758F72B
:10147000660F771F881F20F026173707480730F4BC
:10148000620B730B840B200D311D411DA09581F75C
:10149000B901842F9158880F9695879508959B01DF
:1014A000AC0158CF9F3F31F0915020F4879577954C
:1014B0006795B795880F911D9695879597F908952B
:1014C00091505040660F771F881FD2F70895A29F52
:1014D000B001B39FC001A39F01D0B29F700D811DC9
:1014E0001124911D0895CF93DF938230910510F45C
:1014F00082E090E0E0914F02F091500220E030E075
:10150000A0E0B0E0309739F1408151814817590788
:10151000B8F04817590771F482819381109729F028
:1015200013969C938E9312972CC0909350028093A5
:101530004F0227C02115310531F04217530718F02B
:10154000A901DB0101C0EF019A01BD01DF010280A9
:10155000F381E02DD7CF21153105F9F0281B390B88
:101560002430310580F48A819B816115710521F059
:10157000FB019383828304C09093500280934F02B7
:10158000FE01329644C0FE01E20FF31F8193919356
:1015900022503109398328833AC020914D0230917D
:1015A0004E02232B41F4209162003091630030936E
:1015B0004E0220934D022091600030916100211570
:1015C000310541F42DB73EB740916400509165005C
:1015D000241B350BE0914D02F0914E02E217F30708
:1015E000A0F42E1B3F0B2817390778F0AC014E5F93
:1015F0005F4F2417350748F04E0F5F1F50934E0280
:1016000040934D028193919302C0E0E0F0E0CF015E
:10161000DF91CF910895CF93DF93009709F487C0AE
:10162000FC01329713821282C0914F02D091500276
:10163000209781F420813181280F391F80914D023C
:1016400090914E028217930779F5F0934E02E09342
:101650004D026DC0DE0120E030E0AE17BF0750F450
:1016600012964D915C9113979D014115510509F119
:10167000DA01F3CFB383A28340815181840F951F98
:101680008A179B0771F48D919C911197840F951F78
:1016900002969183808312968D919C9113979383E8
:1016A00082832115310529F4F0935002E0934F0213
:1016B0003EC0D9011396FC93EE9312974D915D9124
:1016C000A40FB51FEA17FB0779F480819181840F7D
:1016D000951F0296D90111969C938E9382819381D6
:1016E00013969C938E931297E0E0F0E08A819B81A1
:1016F000009719F0FE01EC01F9CFCE010296288186
:101700003981820F931F20914D0230914E0228178C
:10171000390769F4309729F41092500210924F0261
:1017200002C013821282D0934E02C0934D02DF9109
:10173000CF910895A0E0B0E0EFE9FBE085C2FE01A3
:10174000359661917191AF0180915302909154024D
:1017500002D0E2E095C2ACE0B0E0E0EBFBE064C2B6
:101760007C016B018A01FC0117821682838181FF53
:10177000B0C1CE0101964C01F7019381F60193FDB2
:10178000859193FF81916F01882309F49EC1853271
:1017900039F493FD859193FF81916F01853221F496
:1017A000B70190E0B1D1E8CF512C312C20E02032AC
:1017B000A0F48B3269F030F4803259F0833269F44E
:1017C00020612CC08D3239F0803339F4216026C07D
:1017D0002260246023C0286021C027FD27C030ED8F
:1017E000380F3A3078F426FF06C0FAE05F9E300DDD
:1017F0001124532E13C08AE0389E300D1124332E4D
:1018000020620CC08E3221F426FD5FC1206406C028
:101810008C3611F4206802C0883641F4F60193FD3D
:10182000859193FF81916F018111C1CF982F9F7D89
:101830009554933028F40C5F1F4FFFE3F9830DC0DC
:10184000833631F0833771F0833509F057C021C0FA
:10185000F801808189830E5F1F4F44244394512CEB
:10186000540114C03801F2E06F0E711CF801A08021
:10187000B18026FF03C0652D70E002C06FEF7FEFDF
:10188000C5012C8736D12C0183012C852F77222E80
:1018900016C03801F2E06F0E711CF801A080B18013
:1018A00026FF03C0652D70E002C06FEF7FEFC5011A
:1018B0002C8714D12C012C852068222E830123FC37
:1018C00019C0832D90E048165906A0F4B70180E2B4
:1018D00090E01AD13A94F5CFF50127FC859127FEC7
:1018E00081915F01B70190E00FD131103A94F1E09E
:1018F0004F1A51084114510479F7DEC0843611F0B3
:10190000893631F5F80127FF07C060817181828136
:1019100093810C5F1F4F08C060817181882777FD1C
:101920008095982F0E5F1F4F2F76B22E97FF09C01C
:1019300090958095709561957F4F8F4F9F4F206850
:10194000B22E2AE030E0A40111D1A82EA81843C07D
:10195000853729F42F7EB22E2AE030E025C0F22F01
:10196000F97FBF2E8F36C1F018F4883579F0ADC0FD
:10197000803719F0883721F0A8C02F2F2061B22EB0
:10198000B4FE0DC08B2D8460B82E09C024FF0AC0A0
:101990009F2F9660B92E06C028E030E005C020E1F8
:1019A00030E002C020E132E0F801B7FE07C06081FC
:1019B0007181828193810C5F1F4F06C060817181AC
:1019C00080E090E00E5F1F4FA401D0D0A82EA81891
:1019D000FB2DFF77BF2EB6FE0BC02B2D2E7FA5143F
:1019E00050F4B4FE0AC0B2FC08C02B2D2E7E05C0F8
:1019F0007A2C2B2D03C07A2C01C0752C24FF0DC02E
:101A0000FE01EA0DF11D8081803311F4297E09C0A9
:101A100022FF06C07394739404C0822F867809F065
:101A2000739423FD12C020FF06C05A2C731418F4BF
:101A3000530C5718732C731460F4B70180E290E0D4
:101A40002C8762D073942C85F6CF731410F437185A
:101A500001C0312C24FF11C0B70180E390E02C8736
:101A600053D02C8522FF16C021FF03C088E590E0EB
:101A700002C088E790E0B7010CC0822F867851F051
:101A800021FD02C080E201C08BE227FD8DE2B7019B
:101A900090E03AD0A51430F4B70180E390E034D060
:101AA0005A94F8CFAA94F401EA0DF11D8081B70190
:101AB00090E02AD0A110F6CF332009F45DCEB70113
:101AC00080E290E021D03A94F7CFF70186819781A8
:101AD00002C08FEF9FEF2C96E2E1C2C0FC0105909F
:101AE000615070400110D8F7809590958E0F9F1F20
:101AF0000895FC016150704001900110D8F7809565
:101B000090958E0F9F1F08950F931F93CF93DF9390
:101B1000182F092FEB018B8181FD03C08FEF9FEF01
:101B200020C082FF10C04E815F812C813D81421711
:101B300053077CF4E881F9819F012F5F3F4F398380
:101B40002883108306C0E885F985812F0995892BA4
:101B500029F72E813F812F5F3F4F3F832E83812FB7
:101B6000902FDF91CF911F910F910895FA01AA272D
:101B7000283051F1203181F1E8946F936E7F6E5FD0
:101B80007F4F8F4F9F4FAF4FB1E03ED0B4E03CD07E
:101B9000670F781F891F9A1FA11D680F791F8A1F61
:101BA000911DA11D6A0F711D811D911DA11D20D0C8
:101BB00009F468943F912AE0269F11243019305D82
:101BC0003193DEF6CF010895462F4770405D419373
:101BD000B3E00FD0C9F7F6CF462F4F70405D4A33C0
:101BE00018F0495D31FD4052419302D0A9F7EACF88
:101BF000B4E0A6959795879577956795BA95C9F7B7
:101C000000976105710508959B01AC010A2E0694A9
:101C10005795479537952795BA95C9F7620F731F62
:101C2000841F951FA01D08952F923F924F925F929F
:101C30006F927F928F929F92AF92BF92CF92DF92DC
:101C4000EF92FF920F931F93CF93DF93CDB7DEB741
:101C5000CA1BDB0B0FB6F894DEBF0FBECDBF0994D5
:101C60002A88398848885F846E847D848C849B842C
:101C7000AA84B984C884DF80EE80FD800C811B813A
:101C8000AA81B981CE0FD11D0FB6F894DEBF0FBE69
:0A1C9000CDBFED010895F894FFCFD9
:101C9A00000057022000000000020000000041037B
:101CAA00000000000A54657374204B616C6D616E0C
:101CBA003A2030782578000A583A20252E346620B2
:081CCA00593A20252E34660072
:00000001FF
